:020000040000FA
:04000000B3EF08F062
:08000800E9EF08F00000000020
:10001000AB2FFCD712006C52000001E11200F50E6C
:1000200000000000000000000000000000000000D0
:1000300000000000000000000000000000000000C0
:10004000FF0FD8A4EDD70000000000000000000062
:1000500000000000000000000000000000000000A0
:100060006C2EDDD71200FA0E6C6E0BEC00F0FA0E5F
:100070006C6E0BEC00F0FA0E6C6E0BEC00F0FA0EEE
:100080006C6E0BEC00F0572EEED71200D369D46BD8
:10009000D56BD66BD76BDA6BD22902E1010ED66F26
:1000A000D75324E1D65318E1D25303E1010ED76FA1
:1000B00013D0D86BD96B310ED85D05E2D96703D068
:1000C000D84BD92BF8D7D429D46F640ED46304D07D
:1000D000D205D26F0400D46B200E9E14DB6FDB516F
:1000E000D56FD553DDE0020ED76FDAD7020ED76396
:1000F00018D0040EAB14DB6FDB51D56FD55303E082
:10010000AE50DA6F0ED0020EAB14DB6FDB51D56F41
:10011000D55303E0AB98AB8804D0D36BAE50D3116A
:10012000D36FD351DB6FDC6B1200FF0EA965AA679A
:1001300001D00CD0AB6906EC00F0FF0EA95DAB6FEF
:10014000A959FF08AA5FAB51A96FEFD7000EA965A7
:10015000AA6701D01200A951AB6F06EC00F01200A3
:10016000100E9E147E6E7E52FBE0A851AD6E120002
:10017000956B9451956109D07F50EA6E7E5095251C
:10018000E96EEF5202E0952BF4D79551966F12006D
:100190007E6A7F6A56507F6E556A566A546A555217
:1001A00014E1FF0E7E6011D07E287E6E56507F6275
:1001B000566203D07E6A56507F6EF40E0001A96F1E
:1001C000010EAA6F95EC00F0EAD77E2805E1556A8A
:1001D000566A0001A86B03D0010E0001A86FA85158
:1001E000A96F12007D6A00019F519D638CD0A051C0
:1001F0009E6389D07E6A78507E6009D07750EA6E1F
:1002000076507E24E96EEF5202E07E2AF4D77C50CD
:100210007E6058D07D6A7B507D6009D09E51EA6E29
:100220009D517D24E96EEF5202E07D2AF4D77E5085
:100230007C5C7F6E7D507F6005D07E507C5CA16FC2
:10024000A1517D6E7D507E247B6E7D507E6E000EB2
:100250007E6414D07E067B069E51EA6E9D51E96E47
:100260007E50A16FA151E926EF50A26FA051EA6E16
:100270009F517B24E96EA251EF6EE9D77E6A7850D8
:100280007E601DD07C507E601AD07750EA6E76502A
:100290007E24E96EEF5213E07750EA6E7650E96EF5
:1002A0007E50A16FA151E926EF50A26FA051EA6ED6
:1002B0009F517E24E96EA251EF6E7E2AE0D77E50D8
:1002C0007D2675D07D6A78507D6071D07C507D60D0
:1002D0006ED07750EA6E76507D24E96EEF5267E07B
:1002E0007750EA6E7650E96E7D507F6E7F50E9263A
:1002F000EF50A16FA051EA6E9F517D24E96EA1518C
:10030000EF6E7D2AE0D77D6A78507D601DD07C50ED
:100310007D601AD07750EA6E76507D24E96EEF52F8
:1003200013E07750EA6E7650E96E7D507F6E7F5015
:10033000E926EF50A16FA051EA6E9F517D24E96E2E
:10034000A151EF6E7D2AE0D77C507D6030D0A16B4B
:100350007D509F257F6EA051A1237F50766EA151C5
:10036000776E7D507C5C786E7E6A7B507E601DD09F
:1003700078507E601AD09E51EA6E9D517E24E96EBF
:10038000EF5213E09E51EA6E9D51E96E7E507F6EF2
:100390007F50E926EF50A16F7750EA6E76507E24A9
:1003A000E96EA151EF6E7E2AE0D77E507D267C500B
:1003B0007D601200A051EA6E9F517D24E96E000E0F
:1003C000EF6E12007B6AC8EC00F0A9517D6E7D5281
:1003D000FAE176507E6E77507F6E7850946FB8EC6D
:1003E00000F096517C6E7C5217E07C507B600DD003
:1003F0007750EA6E76507B24E96EEF50A86FA96BB8
:10040000B0EC00F07B287B6EF0D77A5205E00D0E41
:10041000A86FA96BB0EC00F0C8EC00F0C8EC00F0DD
:10042000A9517D6E7D5202E17D6801D07D6A7D50CB
:100430007E6E12006A6A92906A5204E0010E891080
:10044000806E03D0FE0E8914806E6A6A92926A52A0
:1004500004E0020E8910806E03D0FD0E8914806EB8
:100460006A6A92946A5204E0040E8910806E03D086
:10047000FB0E8914806E6A6A92966A5204E0080E36
:100480008910806E03D0F70E8914806E6A6A929884
:100490006A5204E0100E8910806E03D0EF0E8914AA
:1004A000806E6A6A929A6A5204E0200E8910806E09
:1004B00003D0DF0E8914806E67380F0B696E010E52
:1004C00069146A6E92906A5204E0010E8910806E7F
:1004D00003D0FE0E8914806E6952D8906932010EE5
:1004E00069146A6E92926A5204E0020E8910806E5C
:1004F00003D0FD0E8914806E6952D8906932010EC6
:1005000069146A6E92946A5204E0040E8910806E37
:1005100003D0FB0E8914806E6952D8906932010EA7
:1005200069146A6E92966A5204E0080E8910806E11
:1005300003D0F70E8914806E68A00CD0010E6A6E8D
:1005400092986A5204E0100E8910806E03D0EF0E6C
:100550008914806E640E0001AB6F06EC00F0010E92
:100560006A6E929A6A5204E0200E8910806E03D05F
:10057000DF0E8914806E640EAB6F06EC00F06A6AC1
:10058000929A6A5204E0200E8910806E03D0DF0E2A
:100590008914806E640EAB6F06EC00F06A6A92906C
:1005A0006A5204E0010E8910806E03D0FE0E891499
:1005B000806E6A6A92926A5204E0020E8910806E1E
:1005C00003D0FD0E8914806E6A6A92946A5204E028
:1005D000040E8910806E03D0FB0E8914806E6A6A47
:1005E00092966A5204E0080E8910806E03D0F70ECE
:1005F0008914806E6A6A92986A5204E0100E89101B
:10060000806E03D0EF0E8914806E0F0E67146A6E31
:100610006A50696E010E69146A6E92906A5204E023
:10062000010E8910806E03D0FE0E8914806E69520F
:10063000D8906932010E69146A6E92926A5204E08F
:10064000020E8910806E03D0FD0E8914806E6952EF
:10065000D8906932010E69146A6E92946A5204E06D
:10066000040E8910806E03D0FB0E8914806E6952CF
:10067000D8906932010E69146A6E92966A5204E04B
:10068000080E8910806E03D0F70E8914806E68A062
:100690000CD0010E6A6E92986A5204E0100E891016
:1006A000806E03D0EF0E8914806E640EAB6F06EC83
:1006B00000F0010E6A6E929A6A5204E0200E8910D0
:1006C000806E03D0DF0E8914806E640EAB6F06EC73
:1006D00000F06A6A929A6A5204E0200E8910806ED5
:1006E00003D0DF0E8914806E640EAB6F06EC00F051
:1006F0001200AC847F0EAF6EAB6AAB8EAC8AAB8857
:100700009D8AF28CF28E12005F6A5D505F601ED08F
:100710005E505F601BD00001A951EA6EA8515F24B2
:10072000E96EEF5213E0A951EA6EA851E96E5F50ED
:10073000606E6050E926EF50616ED051EA6ECF5185
:100740005F24E96E6150EF6E5F2ADFD75E505F6015
:1007500012000001D051EA6ECF515F24E96E000E05
:10076000EF6E1200410E6D6E540E6E6E260E6F6EA1
:10077000460E706E2A0E716E726A000E776E6D0EE6
:10078000766E060E786E796A010E7A6EE2EC01F0F2
:100790007E506C6E6C506D6E12006C5241E06D526A
:1007A00020E0410E0001806F540E816F530E826F66
:1007B000350E836F310E846F320E856F3D0E866F5E
:1007C000340E876F886B000E776E800E766E090E82
:1007D000786E796A010E7A6EE2EC01F07E506E6EF0
:1007E0005FD0310E0001846F320E856F876F350E3A
:1007F000836F3D0E866F410E806F530E826F540ED5
:10080000816F886B000E776E800E766E090E786EA3
:10081000796A010E7A6EE2EC01F07E506E6E40D085
:100820006D521FE0310E0001846F320E856F876FAD
:10083000350E836F3D0E866F410E806F530E826FB3
:10084000540E816F886B000E776E800E766E090EE7
:10085000786E796A030E7A6EE2EC01F07E506E6E6D
:100860001FD0410E0001806F540E816F530E826FB6
:10087000350E836F310E846F320E856F3D0E866F9D
:10088000300E876F886B000E776E800E766E090EC5
:10089000786E796A010E7A6EE2EC01F07E506E6E2F
:1008A0006E506F6E1200410E6D6E540E6E6E260EFF
:1008B0006F6E570E706E716A000E776E6D0E766EEB
:1008C000050E786E796A010E7A6EE2EC01F07E50C8
:1008D0006C6E6C5214E1410E6D6E540E6E6E5A0EBB
:1008E0006F6E706A000E776E6D0E766E040E786E07
:1008F000796A010E7A6EE2EC01F07E506C6E6C50FB
:100900006D6E1200220E00019B6F2B0E966F3D0E36
:100910009A6F410E946F420E976F4B0E996F540E63
:10092000956F986F9C6B000E776E940E766E090E25
:10093000786E6C509D6F6D509E6F73507B6E000E85
:10094000A06F800E9F6F140E7C6EF2EC00F0000E14
:10095000776E800E766E140E786E220E796E7A6A3D
:10096000000E9E6F790E9D6F020E7B6E000EA06FC3
:10097000800E9F6F140E7C6EF2EC00F0000E776E0E
:10098000800E766E140E786E796A010E7A6EE2EC45
:1009900001F07E50756E7550766E1200010E676E16
:1009A00068901AEC02F0020E6C6E0BEC00F0020E76
:1009B000676E68901AEC02F0020E6C6E0BEC00F0A1
:1009C00012000101306B010E316F020E326F030E07
:1009D000336F040E346F050E356F060E366F070E3B
:1009E000376F080E386F090E396F0A0E3A6F610EB5
:1009F000616F620E626F630E636F640E646F650EEB
:100A0000656F660E666F2B0E2B6F1200FF0E59641A
:100A10005A6601D00CD06C680BEC00F0FF0E595CEC
:100A20005B6E5958FF085A5E5B50596EEFD7000E47
:100A300059645A6601D0120059506C6E0BEC00F0EC
:100A40001200586A59685A6A010E576001D003D0E3
:100A5000020E576402D05B68D6D057040CE0020E39
:100A6000576201D04AD0030E576201D073D0040EF2
:100A7000576292D080D00A0E0001B16FBB6FC56F74
:100A80000D0EB06FBA6FC46F300EAD6FCA6F310EFE
:100A9000AF6FB66FC36FCD6F320EB76FCB6F330EC4
:100AA000C06F340EB96F350EB56FBF6FC96F360E9C
:100AB000C16F3D0EAE6FB86FC26FCC6F410EAA6FA3
:100AC000B26FBC6FC66F530EAC6FB46FBE6FC86FA2
:100AD000540EAB6FB36FBD6FC76FCE6B000EA96FB7
:100AE000AA0EA86F250E5D6E000ED06F800ECF6F20
:100AF000280E5E6E84EC03F051D00A0E0001AF6F39
:100B00000D0EAE6F260EAC6F300EB86FB96F310E92
:100B1000B76F340EB56F350EB36FB46F3D0EB66F51
:100B2000410EAA6FB06F530EB26F540EAB6FB16F20
:100B3000570EAD6FBA6B000EA96FAA0EA86F110EFB
:100B40005D6E000ED06F800ECF6F280E5E6E84EC4F
:100B500003F024D05C6A000E0001A96F5C0EA86F40
:100B6000010E5D6E000ED06F800ECF6F280E5E6E90
:100B700084EC03F013D05C6A000E0001A96F5C0ED8
:100B8000A86F010E5D6E000ED06F800ECF6F280E25
:100B90005E6E84EC03F002D05B6835D0000E5964C1
:100BA00023D0000100EE80F0E9505850E926EF50C4
:100BB000596E000E596415D00A0E596201D011D039
:100BC0005950A86FA96BB0EC00F05A285A6E0D0E60
:100BD000596207D0C8EC00F0C8EC00F0A9515B6E78
:100BE0005A6A5828586EDAD7000E5A640CD00D0E87
:100BF0000001A86FA96BB0EC00F0C8EC00F0C8ECE5
:100C000000F0A9515B6E5B505C6E12006C6A9492AE
:100C10006C5204E0020E8B10826E03D0FD0E8B141A
:100C2000826E640E6C6E0BEC00F0010E6C6E949292
:100C30006C5204E0020E8B10826E03D0FD0E8B14FA
:100C4000826E6B6A79EC03F00A0E6C6E0BEC00F0AE
:100C5000C8EC00F0B2EC03F0220E876F2B0E826F0F
:100C60003D0E866F410E806F420E836F4E0E856F74
:100C7000540E816F846F886B000E776E800E766ED7
:100C8000090E786E4A0E896F310E8A6F8B6B000EDB
:100C90009E6F890E9D6F030E7B6E000EA06F570E28
:100CA0009F6F140E7C6EF2EC00F0000E776E570E04
:100CB000766E140E786E220E6D6E6E6A000E9E6F4A
:100CC0006D0E9D6F020E7B6E000EA06F570E9F6F14
:100CD000140E7C6EF2EC00F0000E776E570E766EFE
:100CE000140E786E796A010E7A6EE2EC01F0310E24
:100CF0006E6E330E6F6E370E706E390E716E726AD5
:100D0000000E6D6E6E0E6C6E050E736E746A82EC64
:100D100004F0010E6C6E6D6ECDEC03F053EC04F03C
:100D20006D506B6E6B506C6E12005E6A5D505E6053
:100D30001BD000EE05F0E9505E50E926000EEF648E
:100D400013D000EE05F0E9505E505F6E5F50E9266B
:100D5000EF50606E5A50EA6E59505E24E96E605052
:100D6000EF6E5E285E6EE2D75D505E6012005A50F4
:100D7000EA6E59505E24E96E000EEF6E12005A6A58
:100D8000556A565054600AD000EE05F0E9505450B0
:100D9000E926EF505B6E5428546E12D0280E566030
:100DA0000CD0595203E059505A6007D0010E6C6EB6
:100DB0000BEC00F05A285A6EE4D7546A566A5B6806
:100DC0005B505C6E1200576A9290575204E0010E1D
:100DD0008910806E03D0FE0E8914806E576A92923D
:100DE000575204E0020E8910806E03D0FD0E891464
:100DF000806E576A9294575204E0040E8910806EF8
:100E000003D0FB0E8914806E576A9296575204E005
:100E1000080E8910806E03D0F70E8914806E576A11
:100E20009298575204E0100E8910806E03D0EF0E96
:100E30008914806E576A929A575204E0200E8910E6
:100E4000806E03D0DF0E8914806E0C0E6C6E0BEC7E
:100E500000F0330E676E68901AEC02F0020E6C6EB2
:100E60000BEC00F0330E676E68901AEC02F0020E85
:100E70006C6E0BEC00F0320E676E68901AEC02F0AC
:100E8000020E6C6E0BEC00F02C0E676E68901AEC84
:100E900002F0020E6C6E0BEC00F0060E676E6890AE
:100EA0001AEC02F0020E6C6E0BEC00F00C0E676E8A
:100EB00068901AEC02F0020E6C6E0BEC00F0010E62
:100EC000676E68901AEC02F0020E6C6E0BEC00F08C
:100ED000020E676E68901AEC02F0020E6C6E0BEC5C
:100EE00000F0CEEC04F01200656A59507E6E5A5044
:100EF0007F6E63500001946FB8EC00F09651666EFF
:100F00006650656012005A50EA6E59506524E96EC9
:100F1000EF50676E68801AEC02F06528656EF0D7B6
:100F2000586A596A000E0001A96F590EA86F010E88
:100F30005D6E040ED06F000ECF6F5E6884EC03F020
:100F4000010E596EBFEC06F05C50576E040E5A6EDF
:100F5000000E596E5B685C6A57505D6E95EC06F04A
:100F6000040E5A6E000E596E6368646A74EC07F0E2
:100F7000F40E596E010E5A6E06EC05F0CEEC04F03C
:100F80001200E3EC06F006EC06F0420E5B6E6F0E0C
:100F90005C6E5D6E740E5E6E690E5F6E6E0E606EE0
:100FA000670E616E626A000E5A6E5B0E596E080E15
:100FB000636E646A74EC07F0010E576E21EC05F065
:100FC0002E0E5B6E5C6A000E5A6E5B0E596E020E40
:100FD000636E646A74EC07F0020E576E21EC05F044
:100FE0002E0E5B6E5C6A000E5A6E5B0E596E020E20
:100FF000636E646A74EC07F0E1EC04F02E0E5B6E35
:101000005C6A000E5A6E5B0E596E020E636E646A65
:1010100074EC07F0AEEF08F0410E576E596E540EA7
:10102000586E5A6A000E776E570E766E040E786E02
:10103000796A010E7A6EE2EC01F07E50536E030E77
:10104000576E33EC00F051B051D0410E576E596ECF
:10105000540E586E5A6A000E776E570E766E040E56
:10106000786E796A010E7A6EE2EC01F07E50536E72
:10107000640E6C6E0BEC00F0410E576E540E586E01
:10108000490E596E390E5A6E5B6A000E776E570E16
:10109000766E050E786E796A010E7A6EE2EC01F0DA
:1010A000640E6C6E0BEC00F0596ABFEC06F05C50FD
:1010B000506E030E5A6E000E596E5B685C6A50509B
:1010C0005D6E95EC06F0010101EE00F0E9500301C0
:1010D0000051E926576AEF66578051905750D8A4BF
:1010E0005180010E576E33EC00F0ADD72E0E5B6EC3
:1010F0005C6A000E5A6E5B0E596E020E636E646A75
:1011000074EC07F0410E576E540E586E4F0E596E28
:101110005A6A000E776E570E766E040E786E796AF4
:10112000010E7A6EE2EC01F02E0E5B6E5C6A000E30
:101130005A6E5B0E596E020E636E646A74EC07F0B1
:10114000F40E596E010E5A6E06EC05F0CEEC04F06A
:1011500012000F0EC16E990EC1EF07F00CEC08F0F3
:1011600090EC07F0FDD7D50E2D6EC40E2E6EBB0E83
:101170002F6EDC0E306E316A326A336A346A356A39
:10118000366A376A386A396A3A6A3B6A3C6A466A3A
:10119000476A416A426A486A496A4A6A4B6A3D6AD2
:1011A0003E6A3F6A406A446A456A436A4C6A4D6ACD
:1011B000000E4F6E4D0E4E6E4E500201006F4F509E
:1011C000016F5190A50E526E546A556A566AA9EF86
:1011D00008F0EACF01F0E9CF02F0F4CF03F0F3CF4B
:1011E00004F0200E9E140001D36F200E9D14D26FC8
:1011F000D16BD253D8A4D353D8A4D12BD15322E04E
:10120000010ED26F46EC00F0DB51D16F555219E15F
:10121000280E566016D00A0ED1630AD0010E556E04
:1012200000EE05F0E9505650E926000EEF6E09D0A9
:1012300000EE05F0E9505650E926D151EF6E5628E0
:10124000566E9E9A04C0F3FF03C0F4FF02C0E9FF8C
:0612500001C0EAFF1100DD
:020000040030CA
:0E000000FF32F9FEFF78BAFFFFFFFFFFFFFFA0
:00000001FF
