:020000040000FA
:04000000DAEF0CF037
:080008001AEF0DF00553000092
:1000100001E11200F50E00000000000000000000E9
:1000200000000000000000000000000000000000D0
:10003000000000000000FF0FD8A4EDD70000000072
:1000400000000000000000000000000000000000B0
:10005000000000000000052FDDD7120000000000A6
:10006000042FFCD71200FA0E0101056F06EC00F018
:10007000FA0E056F06EC00F0FA0E056F06EC00F0C4
:10008000FA0E056F06EC00F00001852FECD7120088
:100090000101036F5F0E016F026BFF0E01650267C6
:1000A00001D00DD004692EEC00F0FF0E015D046F4D
:1000B0000159FF08025F0451016F0400EED701519E
:1000C000046F2EEC00F0040000D0000EFA6E035115
:1000D000F926FAEF00F015EF01F078EF00F085EF68
:1000E00000F091EF00F0FA6F8492080E48EF00F0F4
:1000F0000001F96B080EF96110D0F7A102D08482DB
:1001000001D084920C0E48EF00F00001F753F85331
:10011000D890F833F733F92BEDD78482100E48EFDF
:1001200000F000D0010EFA6E0001FA51F926AEEF90
:1001300001F0B5EF01F0BCEF01F0C7EF01F0CDEF3A
:1001400001F0D4EF01F0DAEF01F0E1EF01F0E7EFB9
:1001500001F0EDEF01F0F4EF01F0FAEF01F000EF44
:1001600002F01FEF02F027EF02F045EF01F04BEF36
:1001700001F052EF01F05DEF01F050EF0CF00101E2
:10018000006F0001F869F96BFA6BFB6BFC6BF729E8
:1001900002E1010EFB6FFC5326E1FB5318E1F7531C
:1001A00003E1010EFC6F13D0FD6BFE6B310EFD5DA4
:1001B00005E2FE6703D0FD4BFE2BF8D7F929F96F56
:1001C000640EF96304D0F705F76F0400F96B040EB1
:1001D00084140101016F01510001FA6FFA53DBE150
:1001E000020EFC6FD8D7020EFC6322D0F86B000E13
:1001F00048EF00F00001FF6B080EFF6119D084A4E6
:1002000011D0010E0101016F0001FF51FF0B05E04C
:10021000D89001010137FF0FF9D701010151000109
:10022000F811F86F040E48EF00F00001FF2BE4D73F
:10023000F8510101016F026B00D0020EFA6E0051FD
:10024000F926C0EF01F02BEF02F056EF01F061EF5D
:1002500001F03FEF0CF044EF0CF049EF0CF054EFDD
:100260000CF05AEF0CF060EF0CF0C9EF0CF0CFEF90
:100270000CF00001F66FF26BF36BF46BF56B420E52
:10028000F76FF86B3C0E73EF00F06650F76FF86B8A
:10029000400E73EF00F06550F76F6650F86F440E34
:1002A00073EF00F0F769080EBFEF00F0450E000194
:1002B000F76FF86B480E73EF00F0F7690C0EBFEFA5
:1002C00000F000D0020EFA6E0001F651F926E0EFC0
:1002D00002F0C4EF0CF0EF6BEB51EF611DD0EE516B
:1002E000EF611AD0EA51EA6EE951EF25E96EEF525B
:1002F00013E0EA51EA6EE951E96EEF51F06FF05107
:10030000E926EF50F16FED51EA6EEC51EF25E96E01
:10031000F151EF6EEF2BE0D7EE51EF611200ED518E
:10032000EA6EEC51EF25E96E000EEF6E1200E76BFE
:10033000E651E76109D0E551EA6EE451E725E96E3F
:10034000EF5202E0E72BF4D7E751E86F1200E36BBE
:100350004F0EF76FF86B000E73EF00F0E15306E0FD
:10036000F76BF86B040E73EF00F006D0010EF76F19
:10037000F86B080E73EF00F0F769000EBFEF00F0A6
:10038000530E0001F76FF86B0C0E73EF00F0DD51A8
:10039000F76FF86B100E73EF00F0DC51F76FDD5163
:1003A000F86F140E73EF00F0DF51F76FF86B180E53
:1003B00073EF00F0DE51F76FDF51F86F1C0E73EF33
:1003C00000F0E051F76FF86B200E73EF00F068500B
:1003D000F76FF86B240E73EF00F06750F76F6850FB
:1003E000F86F280E73EF00F0010EF76FF86B2C0E0C
:1003F00073EF00F0010EF76FF86B300E73EF00F043
:10040000D851E46FD951E56FDA51E66F97EC01F0FE
:10041000E851E26FE251E36115D0D951EA6ED8514B
:10042000E325E96EEF520EE0D951EA6ED851E3258B
:10043000E96EEF50F76FF86B340E73EF00F0E329BD
:10044000E36FE8D7F76BF86B380E73EF00F0F769DE
:10045000040EBFEF00F006EF03F0DD6BDC51DD6151
:100460001BD000EE05F0E950DD51E926000EEF64E7
:1004700013D000EE05F0E950DD51DE6FDE51E926C4
:10048000EF50DF6FD951EA6ED851DD25E96EDF51AB
:10049000EF6EDD29DD6FE2D7DC51DD611200D9514D
:1004A000EA6ED851DD25E96E000EEF6E1200D96BB1
:1004B0007F6A80517E600AD000EE05F0E9507E50E0
:1004C000E926EF50DA6F7E287E6E14D0320E8061FE
:1004D0000ED0D85303E0D851D96109D0010E0101E3
:1004E000056F06EC00F00001D929D96FE2D77E6ACA
:1004F000806BDA69DA51DB6FE5EF02F0D969DA6B0C
:10050000DB6BDC6BDD6BE06BD82902E1010EDC6F8D
:10051000DD5324E1DC5318E1D85303E1010EDD6F14
:1005200013D0DE6BDF6B310EDE5D05E2DF6703D0DB
:10053000DE4BDF2BF8D7DA29DA6F640EDA6304D0EA
:10054000D805D86F0400DA6B200E9E14E16FE151DC
:10055000DB6FDB53DDE0020EDD6FDAD7020EDD6309
:1005600018D0040EAB14E16FE151DB6FDB5303E0F5
:10057000AE50E06F0ED0020EAB14E16FE151DB6FB5
:10058000DB5303E0AB98AB8804D0D96BAE50D911E4
:10059000D96FD951E16FE26B12000001D86B000EE8
:1005A000EA6FD80EE96F010EEB6F000EED6F370E9C
:1005B000EC6F140EEE6F6BEC01F0000E39EF01F0F2
:1005C000010ED86F990E57EF02F0DB51726E000EDC
:1005D000D96F370ED86F140EDA6FDB6B7250DC6F89
:1005E0002DEC02F0000ED96F370ED86F140EDA6FB3
:1005F000DB6B320EDC6FDD6B640EDE6FDF6B020EC9
:10060000E06F010EE16F990EA7EF01F029EF0DF0F9
:10061000FF0EBF65C06701D00ED0010104692EEC4A
:1006200000F0FF0E0001BF5DC16FBF59FF08C05F42
:10063000C151BF6FEDD7000EBF65C06701D012007A
:10064000BF510101046F2EEC00F01200100E9E1439
:10065000BE6FBE53FBE0BC51AD6E12000001BC6B1F
:10066000BD6B8051BD6F7F6A806B7E6A7F5214E1E3
:10067000FF0E0001BC6110D0BC29BC6F8051BD636E
:10068000806303D0BC6B8051BD6FF40EBF6F010E51
:10069000C06F08EC03F0EAD70001BC2904E17F6ACF
:1006A000806BBE6B02D0010EBE6FBE51BF6F1200D9
:1006B000AD6BAE6BAF6BB06BAF6BB06BA151A50305
:1006C000F350AD6FF450AE6FA251A503F350AE27B7
:1006D000F450AF23D8B0B02BA351A503F350AF27EC
:1006E000F450B023A451A503F350B027A151A603A1
:1006F000F350AE27F450AF23D8B0B02BA251A603CD
:10070000F350AF27F450B023A351A603F350B02702
:10071000A151A703F350AF27F450B023A251A70370
:10072000F350B027A151A803F350B0271200A96BD2
:10073000AA6BAB6BAC6BAF6BB06BB16BB26BAD6BF1
:10074000200EAD15AE6FAE671200D890AF37B03740
:10075000B137B237A137A237A337A437A937AA37A1
:10076000AB37AC37A851AC5D08E1A751AB5D05E1F3
:10077000A651AA5D02E1A551A95D09E3A551A95FB2
:10078000A651AA5BA751AB5BA851AC5BAF81AD2B67
:10079000D7D7C66BC351C0638CD0C451C16389D055
:1007A000C76BBF51C76109D0B551EA6EB451C725B7
:1007B000E96EEF5202E0C72BF4D7C551C76158D09C
:1007C000C66BC251C66109D0C151EA6EC051C6257F
:1007D000E96EEF5202E0C62BF4D7C751C55DC86F72
:1007E000C651C86105D0C751C55DC96FC951C66F33
:1007F000C651C725C26FC651C76F000EC76514D05A
:10080000C707C207C151EA6EC051E96EC751C96F2F
:10081000C951E926EF50CA6FC451EA6EC351C225CF
:10082000E96ECA51EF6EE9D7C76BBF51C7611DD0E2
:10083000C551C7611AD0B551EA6EB451C725E96EEA
:10084000EF5213E0B551EA6EB451E96EC751C96F6A
:10085000C951E926EF50CA6FC451EA6EC351C7258A
:10086000E96ECA51EF6EC72BE0D7C751C62775D0C6
:10087000C66BBF51C66171D0C551C6616ED0B5514E
:10088000EA6EB451C625E96EEF5267E0B551EA6EE3
:10089000B451E96EC651C86FC851E926EF50C96F0F
:1008A000C451EA6EC351C625E96EC951EF6EC62B1D
:1008B000E0D7C66BBF51C6611DD0C551C6611AD005
:1008C000B551EA6EB451C625E96EEF5213E0B55149
:1008D000EA6EB451E96EC651C86FC851E926EF50AF
:1008E000C96FC451EA6EC351C625E96EC951EF6E96
:1008F000C62BE0D7C551C66130D0C96BC651C325E0
:10090000C86FC451C923C851B46FC951B56FC6511E
:10091000C55DBF6FC76BC251C7611DD0BF51C761F5
:100920001AD0C151EA6EC051C725E96EEF5213E0EB
:10093000C151EA6EC051E96EC751C86FC851E9266E
:10094000EF50C96FB551EA6EB451C725E96EC95170
:10095000EF6EC72BE0D7C751C627C551C66112003D
:10096000C451EA6EC351C625E96E000EEF6E120047
:10097000B96B2EEC03F0BF51BB6FBB53FAE1B4511E
:10098000E46FB551E56FB651E66F97EC01F0E851B1
:10099000BA6FBA5317E0BA51B9610DD0B551EA6ECA
:1009A000B451B925E96EEF50BC6FBD6B26EC03F076
:1009B000B929B96FF0D7B85305E00D0EBC6FBD6B08
:1009C00026EC03F02EEC03F02EEC03F0BF51BB6FCE
:1009D000BB5302E1BB6901D0BB6BBB51BC6F1200C2
:1009E000A96B9290A95304E0010E8910806E03D088
:1009F000FE0E8914806EA96B9292A95304E0020E38
:100A00008910806E03D0FD0E8914806EA96B9294BC
:100A1000A95304E0040E8910806E03D0FB0E8914E4
:100A2000806EA96B9296A95304E0080E8910806E1F
:100A300003D0F70E8914806EA96B9298A95304E035
:100A4000100E8910806E03D0EF0E8914806EA96B92
:100A5000929AA95304E0200E8910806E03D0DF0E15
:100A60008914806EA6390F0BA86F010EA815A96F07
:100A70009290A95304E0010E8910806E03D0FE0EFF
:100A80008914806EA853D890A833010EA815A96FB9
:100A90009292A95304E0020E8910806E03D0FD0EDD
:100AA0008914806EA853D890A833010EA815A96F99
:100AB0009294A95304E0040E8910806E03D0FB0EBB
:100AC0008914806EA853D890A833010EA815A96F79
:100AD0009296A95304E0080E8910806E03D0F70E99
:100AE0008914806EA7A10CD0010EA96F9298A9530A
:100AF00004E0100E8910806E03D0EF0E8914806E12
:100B0000640E0101046F2EEC00F0010E0001A96FCC
:100B1000929AA95304E0200E8910806E03D0DF0E54
:100B20008914806E640E0101046F2EEC00F0000148
:100B3000A96B929AA95304E0200E8910806E03D00D
:100B4000DF0E8914806E640E0101046F2EEC00F03C
:100B50000001A96B9290A95304E0010E8910806EE8
:100B600003D0FE0E8914806EA96B9292A95304E003
:100B7000020E8910806E03D0FD0E8914806EA96B61
:100B80009294A95304E0040E8910806E03D0FB0EEA
:100B90008914806EA96B9296A95304E0080E8910FF
:100BA000806E03D0F70E8914806EA96B9298A953BA
:100BB00004E0100E8910806E03D0EF0E8914806E51
:100BC0000F0EA615A96FA951A86F010EA815A96F40
:100BD0009290A95304E0010E8910806E03D0FE0E9E
:100BE0008914806EA853D890A833010EA815A96F58
:100BF0009292A95304E0020E8910806E03D0FD0E7C
:100C00008914806EA853D890A833010EA815A96F37
:100C10009294A95304E0040E8910806E03D0FB0E59
:100C20008914806EA853D890A833010EA815A96F17
:100C30009296A95304E0080E8910806E03D0F70E37
:100C40008914806EA7A10CD0010EA96F9298A953A8
:100C500004E0100E8910806E03D0EF0E8914806EB0
:100C6000640E0101046F2EEC00F0010E0001A96F6B
:100C7000929AA95304E0200E8910806E03D0DF0EF3
:100C80008914806E640E0101046F2EEC00F00001E7
:100C9000A96B929AA95304E0200E8910806E03D0AC
:100CA000DF0E8914806E640E0101046F2EEC00F0DB
:100CB0001200AC847F0EAF6EAB6AAB8EAC8AAB8891
:100CC0009D8AF28CF28E12008E51966F8F51976F23
:100CD0009051986F9151996F9A6BCA0E9B6F9A0EB3
:100CE0009C6F3B0E9D6F9E6B945305E192519F6FDD
:100CF0009351A06F120099AF14D09351EA6E9251A4
:100D0000E96EA16BA151E9262D0EEF6E9E2B961F69
:100D1000971F981F991F963F04D0973F02D0984B7A
:100D2000992B956B9651971198119911FF0B06E12C
:100D3000010E956F9A6F9B6B9C6B9D6B94519E619E
:100D400072D09D51000808E19C51000805E19B51BB
:100D5000000802E19A51000866E29D51995D08E1A0
:100D60009C51985D05E19B51975D02E19A51965D1A
:100D700002E2955340E09651A16F9751A26F9851AE
:100D8000A36F9951A46F9A51A56F9B51A66F9C5167
:100D9000A76F9D51A86F97EC03F0AF51956F9551D8
:100DA000300FA16F9351EA6E92519E25E96EA151C9
:100DB000EF6E9E2B9551A16FA26BA36BA46B9A5102
:100DC000A56F9B51A66F9C51A76F9D51A86F58ECC2
:100DD00003F0AD51A96FAE51AA6FAF51AB6FB051D7
:100DE000AC6FA951965FAA51975BAB51985BAC5120
:100DF000995B010E956F9A51A16F9B51A26F9C5107
:100E0000A36F9D51A46F0A0EA56FA66BA76BA86B6D
:100E100097EC03F0AF519A6FB0519B6FB1519C6F3B
:100E2000B2519D6F8BD794519E6107D09351EA6E5A
:100E300092519E25E96E000EEF6E92519F6F935175
:100E4000A06F1200410E0001976F540E986F260E8E
:100E5000996F460E9A6F2A0E9B6F9C6B000EB56FB2
:100E6000970EB46F060EB66FB76B010EB86FB8EC85
:100E700004F0BC51966F9651976F120096533FE065
:100E800097531FE0410E996F540E9A6F530E9B6F4C
:100E9000350E9C6F310E9D6F320E9E6F3D0E9F6F13
:100EA000340EA06FA16B000EB56F990EB46F090ED2
:100EB000B66FB76B010EB86FB8EC04F0BC51986F09
:100EC0005CD0310E9D6F320E9E6FA06F350E9C6F01
:100ED0003D0E9F6F410E996F530E9B6F540E9A6F8C
:100EE000A16B000EB56F990EB46F090EB66FB76B9C
:100EF000010EB86FB8EC04F0BC51986F3ED0975318
:100F00001EE0310E9D6F320E9E6FA06F350E9C6FEE
:100F10003D0E9F6F410E996F530E9B6F540E9A6F4B
:100F2000A16B000EB56F990EB46F090EB66FB76B5B
:100F3000030EB86FB8EC04F0BC51986F1ED0410E90
:100F4000996F540E9A6F530E9B6F350E9C6F310E36
:100F50009D6F320E9E6F3D0E9F6F300EA06FA16B86
:100F6000000EB56F990EB46F090EB66FB76B010E18
:100F7000B86FB8EC04F0BC51986F9851996F12009B
:100F8000410E0001976F540E986F260E996F570E01
:100F90009A6F9B6B000EB56F970EB46F050EB66F10
:100FA000B76B010EB86FB8EC04F0BC51966F965356
:100FB00014E1410E976F540E986F5A0E996F9A6B09
:100FC000000EB56F970EB46F040EB66FB76B010EBF
:100FD000B86FB8EC04F0BC51966F9651976F120041
:100FE000220EBD6F2B0EB86F3D0EBC6F410EB66F5B
:100FF000420EB96F4B0EBB6F540EB76FBA6FBE6B1C
:10100000000EB56FB60EB46F090EBF6F9651C06F6C
:101010009751C16F9D51C26F000EC46F9F0EC36F79
:10102000140EC56FC9EC03F0000EB56F9F0EB46FC0
:10103000140EBF6F220EB66FB76B000EC16FB60EE7
:10104000C06F020EC26F000EC46F9F0EC36F140EEE
:10105000C56FC9EC03F0000EB56F9F0EB46F140E90
:10106000B66FB76B010EB86FB8EC04F0BC51B36F3C
:10107000B351B46F1200010E0001A66FA791F0ECFE
:1010800004F0020E056F06EC00F0020E0001A66FE0
:10109000A791F0EC04F0020E056F06EC00F01200D0
:1010A000A46B8E51E46F8F51E56FA251E66F97EC00
:1010B00001F0E851A56FA551A46112008F51EA6EAD
:1010C0008E51A425E96EEF50A66FA781F0EC04F0D5
:1010D0000001A429A46FEFD796849692848212000F
:1010E0008851EA6E8751E96E8951EF108B6F8B51F1
:1010F000EF6E8651EA6E8551E96E8951EF148B6F60
:101100008A518C6FD8B41200D8908B338C07FAD7E1
:10111000FF0E8265836701D00ED00101056906ECE0
:1011200000F0FF0E0001825D846F8259FF08835F2B
:101130008451826FEDD7000E8265836701D0120063
:1011400082510101056F06EC00F01200826B836989
:10115000AC6B010E816101D003D0020E816502D01B
:10116000AD69E0D081050CE0020E816301D04ED064
:10117000030E816301D081D0040E81639ED08DD097
:101180000A0EB56FBA6FC46FCE6F0D0EB46FB96F24
:10119000C36FCD6F300EB16FD36F310EB36FBF6FB2
:1011A000CC6F320EC06FD46F330EC96F350EBE6F69
:1011B000C86FD26F360ECA6F370EC26F3D0EB26F58
:1011C000C16FCB6FD56F410EAE6FB66FBB6FC56F82
:1011D000CF6F520EB86F530EB06FBD6FC76FD16F28
:1011E000540EAF6FB76FBC6FC66FD06FD66B000E6B
:1011F000EA6FAE0EE96F290EEB6F000EED6F840EF5
:10120000EC6F280EEE6F6BEC01F059D00A0EB76F41
:10121000BC6FC26F0D0EB66FBB6FC16F260EBF6F76
:10122000300EC66F310EB36F320EB56F330EB26F24
:10123000350EB16F3D0EB46F410EAE6FB86FBA6F21
:10124000BD6FC36F530EB06F540EAF6FB96FBE6FEB
:10125000C46F570EC06F5A0EC56FC76B000EEA6F92
:10126000AE0EE96F1A0EEB6F000EED6F840EEC6F91
:10127000280EEE6F6BEC01F022D0AE6B000EEA6F21
:10128000AE0EE96F010EEB6F000EED6F840EEC6F8A
:10129000280EEE6F6BEC01F012D0AE6B000EEA6F11
:1012A000AE0EE96F010EEB6F000EED6F840EEC6F6A
:1012B000280EEE6F6BEC01F002D0AD6933D0000E5A
:1012C000836522D000EE84F0E9508251E926EF5088
:1012D000836F000E836515D00A0E836301D011D091
:1012E0008351BC6FBD6B26EC03F0AC29AC6F0D0EC7
:1012F000836307D02EEC03F02EEC03F0BF51AD6FEB
:10130000AC6B8229826FDBD7000EAC650BD00D0E63
:10131000BC6FBD6B26EC03F02EEC03F02EEC03F05B
:10132000BF51AD6FAD51AE6F12000001966B94923C
:10133000965304E0020E8B10826E03D0FD0E8B14C8
:10134000826E640E0101056F06EC00F0010E0001D3
:10135000966F9492965304E0020E8B10826E03D027
:10136000FD0E8B14826E956B59EC06F00A0E01018E
:10137000056F06EC00F02EEC03F022EC07F0220ED5
:101380009E6F2B0E996F3D0E9D6F410E976F420E13
:101390009A6F4E0E9C6F540E986F9B6F9F6B000E52
:1013A000B56F970EB46F090EBF6F6C0EA26FA56F6D
:1013B0006F0EA36FA46FA66B000EC16FA20EC06F5D
:1013C000050EC26F000EC46F810EC36F140EC56F81
:1013D000C9EC03F0000EB56F810EB46F140EBF6F31
:1013E000220E976F986B000EC16F970EC06F020EA2
:1013F000C26F000EC46F810EC36F140EC56FC9ECAF
:1014000003F0000EB56F810EB46F140EB66FB76B9C
:10141000010EB86FB8EC04F0310E986F330E996F6F
:10142000370E9A6F390E9B6F9C6B000E976F980E5C
:10143000966F050E9D6F9E6BF0EC07F0010E966F98
:10144000976F3EEC07F0C0EC07F09751956F955100
:10145000966F120082518E6F83518F6F906B916BDC
:1014600083AF02D090079107000E936F840E926FA6
:101470000A0E946F64EC06F0000E8F6F840E8E6F70
:101480000A0EA26FA36B50EC08F01200835303E125
:10149000800E836F02D0C00E836F82518325A66FAA
:1014A000A791F0EC04F0020E056F06EC00F01200BC
:1014B0000001816B9290815304E0010E8910806ECF
:1014C00003D0FE0E8914806E816B9292815304E0EA
:1014D000020E8910806E03D0FD0E8914806E816B20
:1014E0009294815304E0040E8910806E03D0FB0EA9
:1014F0008914806E816B9296815304E0080E8910E6
:10150000806E03D0F70E8914806E816B92988153A0
:1015100004E0100E8910806E03D0EF0E8914806EE7
:10152000816B929A815304E0200E8910806E03D063
:10153000DF0E8914806E0C0E0101056F06EC00F0C1
:10154000330E0001A66FA791F0EC04F0020E056FB8
:1015500006EC00F0330E0001A66FA791F0EC04F04A
:10156000020E056F06EC00F0320E0001A66FA79187
:10157000F0EC04F0020E056F06EC00F02C0E0001FA
:10158000A66FA791F0EC04F0020E056F06EC00F0D8
:10159000060E0001A66FA791F0EC04F0020E056F95
:1015A00006EC00F00C0E0001A66FA791F0EC04F021
:1015B000020E056F06EC00F0010E0001A66FA79168
:1015C000F0EC04F0020E056F06EC00F0020E0001D4
:1015D000A66FA791F0EC04F0020E056F06EC00F088
:1015E0003BEC08F0120095EC09F058EC0AF02E0ED6
:1015F00000019E6F9F6FA06F490E906F610E956FF7
:10160000996F690E926F946F976F9B6F6C0E966FC8
:101610006E0E916F9D6F6F0E9C6F730E986F740EB0
:10162000936F9A6FA16B000E8F6F900E8E6F120EDC
:10163000A26FA36B50EC08F0010E856F33EC00F045
:10164000010E816FA6EC08F0020E816FA6EC08F087
:10165000826B010E836F46EC0AF0500E0001906F12
:101660006C0E916F610E926F790E936F650E946F91
:10167000720E956F200E966F280E976F310E986F31
:10168000290E996F9A6B000E8F6F900E8E6F0B0E56
:10169000A26FA36B50EC08F0F28EF28C9D8AD7EF0C
:1016A0000CF00001816B812B7466819181676CD095
:1016B0003BEC08F02E0E00019A6F9B6F9C6F430E5F
:1016C000906F630E956F650E946F690E976F6E0E37
:1016D000926F936F996F6F0E916F986F740E966FF4
:1016E0009D6B000E8F6F900E8E6F0E0EA26FA36B10
:1016F00050EC08F0826B010E836F46EC0AF0200E6E
:101700000001966F2E0E9B6F9C6F9D6F500E906F19
:10171000610E936F986F650E926F956F690E996F5A
:101720006C0E916F730E946F740E9A6F770E976FA5
:101730009E6B000E8F6F900E8E6F0F0EA26FA36BBD
:1017400050EC08F0410E826F846F540E836F856BEE
:10175000000EB56F820EB46F040EB66FB76B010E3C
:10176000B86FB8EC04F0BC51736E050E856F33ECA6
:1017700000F03BEC08F073500001826F836B2AECA1
:101780000AF07350746E8DD7F40E826F010E836F62
:1017900088EC08F03BEC08F0200E0001996F430E36
:1017A000906F630E956F640E986F650E946F976FD0
:1017B0006E0E926F936F6F0E916F9B6F740E966F9C
:1017C0009A6F9C6B000E8F6F900E8E6F0D0EA26F36
:1017D000A36B50EC08F0826B010E836F46EC0AF0AD
:1017E000700E0001826F6C0E836F610E846F790E34
:1017F000856F650E866F720E876F200E886F280EBC
:10180000896F320E8A6F290E8B6F8C6B000E8F6F73
:10181000820E8E6F0B0EA26FA36B50EC08F0010EC0
:10182000856F33EC00F012000001856B96908553B4
:1018300004E0010E8D10846E03D0FE0E8D14846EB4
:101840006CEC08F0640E0101046F2EEC00F00F0E3A
:101850000001866F840E856F0F0E886F960E876F5E
:10186000010E896F8A6B70EC08F08B51846F030E48
:10187000856F33EC00F0F76B100EBFEF00F0000146
:10188000F76B140EBFEF00F00001F76B180EBFEFFF
:1018900000F0550E0001F76FF86B4C0E73EF00F07F
:1018A000F7691C0EBFEF00F00A0E0001F76F200E63
:1018B000BFEF00F00A0E0001F76F240EBFEF00F03B
:1018C0000001816B8133813381331F0E8117826B5D
:1018D000823382333F0E8217836B833383338333A8
:1018E0001F0E83178251856F686A85376836853782
:1018F0006836853768368537683685376836E00E4E
:10190000851785518311676E856B8151866FD890DD
:101910008637D8908637D89086378551671286519A
:10192000681281698133813381331F0E8117826987
:10193000823382333F0E8217836983338333833349
:101940001F0E83178251856F666A85376636853725
:101950006636853766368537663685376636E00EF5
:10196000851785518311656E856B8151866FD8907F
:101970008637D8908637D89086378551651286513C
:101980006612040E39EF01F00A0EF76F280EBFEF52
:1019900000F00A0E0001F76F2C0EBFEF00F01200EE
:1019A0000F0EC16E14EC0CF0990EF3EF0AF051EC2F
:1019B0000BF0FFD7D50E4B6EC40E4C6EBB0E4D6EAA
:1019C000DC0E4E6E4F6A506A516A526A536A546A0C
:1019D000556A566A576A586A596A5A6A6C6A6D6AD1
:1019E000636A646A6E6A6F6A706A716A5B6A5C6A6B
:1019F0005D6A5E6A6A6A6B6A696AA50E746E000E39
:101A0000756E010E766E020E776E030E786E040E02
:101A1000796E050E7A6E060E7B6E070E7C6E5F6A1F
:101A2000606A616A626A7D6A7E6A7F6A0001806BB1
:101A3000D0EF0CF0EACF01F0E9CF02F0F4CF03F0E1
:101A4000F3CF04F09EAA06D09DAA04D0990ECDEF44
:101A500002F09E9A200E9E140001D96F200E9D1454
:101A6000D86FD76BD853D8A4D953D8A4D72BD75372
:101A700022E0010ED86F7EEC02F0E151D76F7F5269
:101A800019E1320E806116D00A0ED7630AD0010E1A
:101A90007F6E00EE05F0E9508051E926000EEF6EF2
:101AA00009D000EE05F0E9508051E926D751EF6EDC
:101AB0008029806F9E9A04C0F3FF03C0F4FF02C028
:081AC000E9FF01C0EAFF11007B
:020000040030CA
:0E000000FF32F9FEFF78BAFFFFFFFFFFFFFFA0
:00000001FF
