:020000040000FA
:0400000019EF0AF0FA
:0800080043EF0AF000000000C4
:10001000C52FFCD712009A53000001E11200F50E23
:1000200000000000000000000000000000000000D0
:1000300000000000000000000000000000000000C0
:10004000FF0FD8A4EDD70000000000000000000062
:1000500000000000000000000000000000000000A0
:100060009A2FDDD71200FA0E9A6F0BEC00F0FA0E01
:100070009A6F0BEC00F0FA0E9A6F0BEC00F0FA0E90
:100080009A6F0BEC00F0862FEED71200E269E36B5B
:10009000E46BE56BE66BE96BE12902E1010EE56FCC
:1000A000E65324E1E55318E1E15303E1010EE66F65
:1000B00013D0E76BE86B310EE75D05E2E86703D02C
:1000C000E74BE82BF8D7E329E36F640EE36304D032
:1000D000E105E16F0400E36B200E9E14EA6FEA5124
:1000E000E46FE453DDE0020EE66FDAD7020EE6635A
:1000F00018D0040EAB14EA6FEA51E46FE45303E046
:10010000AE50E96F0ED0020EAB14EA6FEA51E46F05
:10011000E45303E0AB98AB8804D0E26BAE50E2113D
:10012000E26FE251EA6FEB6B1200FF0EC365C4672A
:1001300001D00CD0C56906EC00F0FF0EC35DC56FA1
:10014000C359FF08C45FC551C36FEFD7000EC36525
:10015000C46701D01200C351C56F06EC00F0120055
:10016000100E9E14C26FC253FBE0C051AD6E120060
:10017000C36BC251C36109D0C151EA6EC051C325DE
:10018000E96EEF5202E0C32BF4D7C351C46F1200E3
:100190000001C06BC16B8451C16F836B846B826B38
:1001A000835313E1FF0EC06110D0C029C06F84518A
:1001B000C163846303D0C06B8451C16FF40EC36FFD
:1001C000010EC46F95EC00F0EBD7C02904E1836BFE
:1001D000846BC26B02D0010EC26FC251C36F12009A
:1001E000B16BB26BB36BB46BB36BB46BA551A903BA
:1001F000F350B16FF450B26FA651A903F350B22778
:10020000F450B323D8B0B42BA751A903F350B327AC
:10021000F450B423A851A903F350B427A551AA035D
:10022000F350B227F450B323D8B0B42BA651AA038D
:10023000F350B327F450B423A751AA03F350B427C3
:10024000A551AB03F350B327F450B423A651AB032D
:10025000F350B427A551AC03F350B4271200AD6B93
:10026000AE6BAF6BB06BB36BB46BB56BB66BB16BA6
:10027000200EB115B26FB2671200D890B337B43701
:10028000B537B637A537A637A737A837AD37AE3756
:10029000AF37B037AC51B05D08E1AB51AF5D05E1B0
:1002A000AA51AE5D02E1A951AD5D09E3A951AD5F6F
:1002B000AA51AE5BAB51AF5BAC51B05BB381B12B1C
:1002C000D7D7CA6BC751C4638CD0C851C56389D016
:1002D000CB6BC351CB6109D0B951EA6EB851CB2574
:1002E000E96EEF5202E0CB2BF4D7C951CB6158D065
:1002F000CA6BC651CA6109D0C551EA6EC451CA253C
:10030000E96EEF5202E0CA2BF4D7CB51C95DCC6F36
:10031000CA51CC6105D0CB51C95DCD6FCD51CA6FEB
:10032000CA51CB25C66FCA51CB6F000ECB6514D016
:10033000CB07C607C551EA6EC451E96ECB51CD6FEC
:10034000CD51E926EF50CE6FC851EA6EC751C62590
:10035000E96ECE51EF6EE9D7CB6BC351CB611DD0A7
:10036000C951CB611AD0B951EA6EB851CB25E96EAB
:10037000EF5213E0B951EA6EB851E96ECB51CD6F2F
:10038000CD51E926EF50CE6FC851EA6EC751CB254B
:10039000E96ECE51EF6ECB2BE0D7CB51CA2775D08B
:1003A000CA6BC351CA6171D0C951CA616ED0B9510B
:1003B000EA6EB851CA25E96EEF5267E0B951EA6EAC
:1003C000B851E96ECA51CC6FCC51E926EF50CD6FD0
:1003D000C851EA6EC751CA25E96ECD51EF6ECA2BDE
:1003E000E0D7CA6BC351CA611DD0C951CA611AD0C6
:1003F000B951EA6EB851CA25E96EEF5213E0B9510E
:10040000EA6EB851E96ECA51CC6FCC51E926EF5073
:10041000CD6FC851EA6EC751CA25E96ECD51EF6E56
:10042000CA2BE0D7C951CA6130D0CD6BCA51C7259C
:10043000CC6FC851CD23CC51B86FCD51B96FCA51D3
:10044000C95DC36FCB6BC651CB611DD0C351CB61AE
:100450001AD0C551EA6EC451CB25E96EEF5213E0B4
:10046000C551EA6EC451E96ECB51CC6FCC51E9262F
:10047000EF50CD6FB951EA6EB851CB25E96ECD5131
:10048000EF6ECB2BE0D7CB51CA27C951CA611200FE
:10049000C851EA6EC751CA25E96E000EEF6E120010
:1004A000BD6BC8EC00F0C351BF6FBF53FAE1B85148
:1004B000C06FB951C16FBA51C26FB8EC00F0C451EE
:1004C000BE6FBE5317E0BE51BD610DD0B951EA6E8B
:1004D000B851BD25E96EEF50C06FC16BB0EC00F0B4
:1004E000BD29BD6FF0D7BC5305E00D0EC06FC16BC9
:1004F000B0EC00F0C8EC00F0C8EC00F0C351BF6FE6
:10050000BF5302E1BF6901D0BF6BBF51C06F120082
:10051000A86B9290A85304E0010E8910806E03D05E
:10052000FE0E8914806EA86B9292A85304E0020E0E
:100530008910806E03D0FD0E8914806EA86B929492
:10054000A85304E0040E8910806E03D0FB0E8914BA
:10055000806EA86B9296A85304E0080E8910806EF6
:1005600003D0F70E8914806EA86B9298A85304E00C
:10057000100E8910806E03D0EF0E8914806EA86B68
:10058000929AA85304E0200E8910806E03D0DF0EEB
:100590008914806EA5390F0BA76F010EA715A86FE0
:1005A0009290A85304E0010E8910806E03D0FE0ED5
:1005B0008914806EA753D890A733010EA715A86F92
:1005C0009292A85304E0020E8910806E03D0FD0EB3
:1005D0008914806EA753D890A733010EA715A86F72
:1005E0009294A85304E0040E8910806E03D0FB0E91
:1005F0008914806EA753D890A733010EA715A86F52
:100600009296A85304E0080E8910806E03D0F70E6E
:100610008914806EA6A10CD0010EA86F9298A853E1
:1006200004E0100E8910806E03D0EF0E8914806EE6
:10063000640EC56F06EC00F0010EA86F929AA853E5
:1006400004E0200E8910806E03D0DF0E8914806EC6
:10065000640EC56F06EC00F0A86B929AA85304E0F4
:10066000200E8910806E03D0DF0E8914806E640E18
:10067000C56F06EC00F0A86B9290A85304E0010E41
:100680008910806E03D0FE0E8914806EA86B929242
:10069000A85304E0020E8910806E03D0FD0E891469
:1006A000806EA86B9294A85304E0040E8910806EAB
:1006B00003D0FB0E8914806EA86B9296A85304E0B9
:1006C000080E8910806E03D0F70E8914806EA86B17
:1006D0009298A85304E0100E8910806E03D0EF0E9C
:1006E0008914806E0F0EA515A86FA851A76F010E73
:1006F000A715A86F9290A85304E0010E8910806E90
:1007000003D0FE0E8914806EA753D890A733010E34
:10071000A715A86F9292A85304E0020E8910806E6C
:1007200003D0FD0E8914806EA753D890A733010E15
:10073000A715A86F9294A85304E0040E8910806E48
:1007400003D0FB0E8914806EA753D890A733010EF7
:10075000A715A86F9296A85304E0080E8910806E22
:1007600003D0F70E8914806EA6A10CD0010EA86FDD
:100770009298A85304E0100E8910806E03D0EF0EFB
:100780008914806E640EC56F06EC00F0010EA86F30
:10079000929AA85304E0200E8910806E03D0DF0ED9
:1007A0008914806E640EC56F06EC00F0A86B929AF7
:1007B000A85304E0200E8910806E03D0DF0E891448
:1007C000806E640EC56F06EC00F01200AC847F0EE4
:1007D000AF6EAB6AAB8EAC8AAB889D8AF28CF28E20
:1007E000120092519A6F93519B6F94519C6F955147
:1007F0009D6F9E6BCA0E9F6F9A0EA06F3B0EA16FEE
:10080000A26B985305E19651A36F9751A46F120004
:100810009DAF14D09751EA6E9651E96EA56BA55124
:10082000E9262D0EEF6EA22B9A1F9B1F9C1F9D1F6A
:100830009A3F04D09B3F02D09C4B9D2B996B9A51C1
:100840009B119C119D11FF0B06E1010E996F9E6F8C
:100850009F6BA06BA16B9851A26172D0A15100084F
:1008600008E1A051000805E19F51000802E19E51F6
:10087000000866E2A1519D5D08E1A0519C5D05E183
:100880009F519B5D02E19E519A5D02E2995340E0C7
:100890009A51A56F9B51A66F9C51A76F9D51A86F50
:1008A0009E51A96F9F51AA6FA051AB6FA151AC6F20
:1008B0002FEC01F0B351996F9951300FA56F9751FB
:1008C000EA6E9651A225E96EA551EF6EA22B9951C1
:1008D000A56FA66BA76BA86B9E51A96F9F51AA6FBE
:1008E000A051AB6FA151AC6FF0EC00F0B151AD6F06
:1008F000B251AE6FB351AF6FB451B06FAD519A5F9B
:10090000AE519B5BAF519C5BB0519D5B010E996FEB
:100910009E51A56F9F51A66FA051A76FA151A86FBF
:100920000A0EA96FAA6BAB6BAC6B2FEC01F0B35145
:100930009E6FB4519F6FB551A06FB651A16F8BD709
:100940009851A26107D09751EA6E9651A225E96E9F
:10095000000EEF6E9651A36F9751A46F1200DD6BDE
:10096000D951DD611DD0DC51DD611AD0B351EA6E81
:10097000B251DD25E96EEF5213E0B351EA6EB25188
:10098000E96EDD51DE6FDE51E926EF50DF6FDB519E
:10099000EA6EDA51DD25E96EDF51EF6EDD2BE0D72F
:1009A000DC51DD611200DB51EA6EDA51DD25E96EC2
:1009B000000EEF6E1200410E00019B6F540E9C6FF3
:1009C000260E9D6F460E9E6F2A0E9F6FA06B000E27
:1009D000B96F9B0EB86F060EBA6FBB6B010EBC6F82
:1009E00050EC02F0C0519A6F9A519B6F12009A53CB
:1009F0003FE09B531FE0410E9D6F540E9E6F530EC0
:100A00009F6F350EA06F310EA16F320EA26F3D0E9B
:100A1000A36F340EA46FA56B000EB96F9D0EB86F57
:100A2000090EBA6FBB6B010EBC6F50EC02F0C051E7
:100A30009C6F5CD0310EA16F320EA26FA46F350E89
:100A4000A06F3D0EA36F410E9D6F530E9F6F540E0E
:100A50009E6FA56B000EB96F9D0EB86F090EBA6F31
:100A6000BB6B010EBC6F50EC02F0C0519C6F3ED0CE
:100A70009B531EE0310EA16F320EA26FA46F350E94
:100A8000A06F3D0EA36F410E9D6F530E9F6F540ECE
:100A90009E6FA56B000EB96F9D0EB86F090EBA6FF1
:100AA000BB6B030EBC6F50EC02F0C0519C6F1ED0AC
:100AB000410E9D6F540E9E6F530E9F6F350EA06FAB
:100AC000310EA16F320EA26F3D0EA36F300EA46FD8
:100AD000A56B000EB96F9D0EB86F090EBA6FBB6B98
:100AE000010EBC6F50EC02F0C0519C6F9C519D6F89
:100AF0001200410E00019B6F540E9C6F260E9D6FDD
:100B0000570E9E6F9F6B000EB96F9B0EB86F050E50
:100B1000BA6FBB6B010EBC6F50EC02F0C0519A6F04
:100B20009A5314E1410E9B6F540E9C6F5A0E9D6FA9
:100B30009E6B000EB96F9B0EB86F040EBA6FBB6B45
:100B4000010EBC6F50EC02F0C0519A6F9A519B6F2E
:100B50001200220EC16F2B0EBC6F3D0EC06F410EF6
:100B6000BA6F420EBD6F4B0EBF6F540EBB6FBE6FA0
:100B7000C26B000EB96FBA0EB86F090EC36F9A51EF
:100B8000C46F9B51C56FA151C66F000EC86FA30EF5
:100B9000C76F140EC96F61EC01F0000EB96FA30EA0
:100BA000B86F140EC36F220EBA6FBB6B000EC56F09
:100BB000BA0EC46F020EC66F000EC86FA30EC76FC9
:100BC000140EC96F61EC01F0000EB96FA30EB86F7F
:100BD000140EBA6FBB6B010EBC6F50EC02F0C0512B
:100BE000B76FB751B86F1200895303E1800E896F58
:100BF00002D0C00E896F88518925A56FA69188EC17
:100C000002F0020E9A6F0BEC00F01200010E0001D0
:100C1000A56FA69188EC02F0020E9A6F0BEC00F023
:100C2000020EA56FA69188EC02F0020E9A6F0BECF3
:100C300000F01200A36B9251C06F9351C16FA1518C
:100C4000C26FB8EC00F0C451A46FA451A3611200AC
:100C50009351EA6E9251A325E96EEF50A56FA681DC
:100C600088EC02F0A329A36FF0D70001856B866B97
:100C7000040E855DD8A0866701D002D086AF1ED055
:100C8000D8906136623660AE02D0614A622AD8904E
:100C90005F36603662AE0BD0080E5F14876F886BCC
:100CA000875309E1886707D05F4A602A04D05FA6AE
:100CB00002D05F4A602A854B862BDAD761505F18D5
:100CC000876F62506018886F12000101306B010E4F
:100CD000316F020E326F030E336F040E346F050E48
:100CE000356F060E366F070E376F080E386F090E18
:100CF000396F0A0E3A6F610E616F620E626F630E9A
:100D0000636F640E646F650E656F660E666F2B0E03
:100D10002B6F1200FF0E8665876701D00CD09A6991
:100D20000BEC00F0FF0E865D886F8659FF08875F29
:100D30008851866FEFD7000E8665876701D0120055
:100D400086519A6F0BEC00F01200866B8769B06BCE
:100D5000010E856101D003D0020E856502D0B16914
:100D6000D0D085050CE0020E856301D049D0030E7A
:100D7000856301D071D0040E85638ED07DD00A0EBC
:100D8000BB6FC56FCF6F0D0EBA6FC46FCE6F300ED5
:100D9000B76FD46F310EB96FC06FCD6FD76F320E92
:100DA000C16FD56F330ECA6F340EC36F350EBF6F70
:100DB000C96FD36F360ECB6F3D0EB86FC26FCC6F5D
:100DC000D66F410EB46FBC6FC66FD06F530EB66F47
:100DD000BE6FC86FD26F540EB56FBD6FC76FD16F46
:100DE000D86B000EB36FB40EB26F250ED96F000E24
:100DF000DB6F880EDA6F280EDC6FAFEC04F04ED09C
:100E00000A0EB96F0D0EB86F260EB66F300EC26F98
:100E1000C36F310EC16F340EBF6F350EBD6FBE6F25
:100E20003D0EC06F410EB46FBA6F530EBC6F540EBF
:100E3000B56FBB6F570EB76FC46B000EB36FB40EB8
:100E4000B26F110ED96F000EDB6F880EDA6F280EAD
:100E5000DC6FAFEC04F022D0B46B000EB36FB40EB5
:100E6000B26F010ED96F000EDB6F880EDA6F280E9D
:100E7000DC6FAFEC04F012D0B46B000EB36FB40EA5
:100E8000B26F010ED96F000EDB6F880EDA6F280E7D
:100E9000DC6FAFEC04F002D0B16933D0000E87658F
:100EA00022D000EE88F0E9508651E926EF50876F96
:100EB000000E876515D00A0E876301D011D08751C7
:100EC000C06FC16BB0EC00F0B029B06F0D0E87633E
:100ED00007D0C8EC00F0C8EC00F0C351B16FB06BA4
:100EE0008629866FDBD7000EB0650BD00D0EC06F64
:100EF000C16BB0EC00F0C8EC00F0C8EC00F0C351DE
:100F0000B16FB151B26F120000019A6B94929A5373
:100F100004E0020E8B10826E03D0FD0E8B14826EE5
:100F2000640E9A6F0BEC00F0010E9A6F94929A5334
:100F300004E0020E8B10826E03D0FD0E8B14826EC5
:100F4000996BE6EC03F00A0E9A6F0BEC00F0C8EC1C
:100F500000F0DBEC04F0220EA26F2B0E9D6F3D0E15
:100F6000A16F410E9B6F420E9E6F4E0EA06F540EEE
:100F70009C6F9F6FA36B000EB96F9B0EB86F090E2D
:100F8000C36F4A0EA66F320EA76FA86B000EC56F17
:100F9000A60EC46F030EC66F000EC86F850EC76F16
:100FA000140EC96F61EC01F0000EB96F850EB86FB9
:100FB000140EC36F220E9B6F9C6B000EC56F9B0EB1
:100FC000C46F020EC66F000EC86F850EC76F140E79
:100FD000C96F61EC01F0000EB96F850EB86F140E89
:100FE000BA6FBB6B010EBC6F50EC02F0310E9C6F00
:100FF000330E9D6F370E9E6F390E9F6FA06B000EE4
:101000009B6F9C0E9A6F050EA16FA26BA9EC05F069
:10101000010E9A6F9B6FF7EC04F079EC05F09B5191
:10102000996F99519A6F1200020E86611200886BB7
:101030008651896FF4EC05F0876B100E876108D03C
:10104000200EA56FA68188EC02F08729876FF5D75F
:10105000886B8651896FF4EC05F012008651926F0F
:101060008751936F946B956B87AF02D09407950768
:10107000000E976F880E966F0A0E986FF1EC03F0D2
:10108000000E936F880E926F0A0EA16FA26B1AEC7E
:1010900006F012000001856B9290855304E0010E6A
:1010A0008910806E03D0FE0E8914806E856B92923B
:1010B000855304E0020E8910806E03D0FD0E891462
:1010C000806E856B9294855304E0040E8910806EC7
:1010D00003D0FB0E8914806E856B9296855304E0D5
:1010E000080E8910806E03D0F70E8914806E856B10
:1010F0009298855304E0100E8910806E03D0EF0E95
:101100008914806E856B929A855304E0200E8910B5
:10111000806E03D0DF0E8914806E0C0E9A6F0BEC7C
:1011200000F0330EA56FA69188EC02F0020E9A6FC4
:101130000BEC00F0330EA56FA69188EC02F0020EC6
:101140009A6F0BEC00F0320EA56FA69188EC02F0BE
:10115000020E9A6F0BEC00F02C0EA56FA69188EC96
:1011600002F0020E9A6F0BEC00F0060EA56FA6912E
:1011700088EC02F0020E9A6F0BEC00F00C0EA56FDB
:10118000A69188EC02F0020E9A6F0BEC00F0010EB3
:10119000A56FA69188EC02F0020E9A6F0BEC00F09E
:1011A000020EA56FA69188EC02F0020E9A6F0BEC6E
:1011B00000F006EC06F0120035EC06F08751806F67
:1011C0005F0E8B6F630E856F650E876F8A6F680E7B
:1011D000866F720E896F760E886F8C6B000EB96FFA
:1011E000850EB86F080EC36F8051926F936B946B2E
:1011F000956B000E976F370E966F140E986FF1EC8B
:1012000003F0A351C46FA451C56F140EC66F000E36
:10121000C86F4B0EC76F140EC96F61EC01F0000E62
:10122000B96F4B0EB86F140EBA6FBB6B010EBC6F6B
:1012300050EC02F0200E8F6F3A0E8E6F470E856FC6
:10124000610E8A6F640E8D6F650E866F886F8C6F6E
:101250006E0E876F720E896F740E8B6F906B000E1F
:10126000936F850E926F0C0EA16FA26B1AEC06F0B5
:101270008051866F876B2EEC08F0140E866F33EC6E
:1012800000F006EC06F098D74AEC08F084EC07F082
:10129000010E856FA5EC06F0020E856FA5EC06F039
:1012A00065EC06F014EF0AF0300E0001896F8A6FCA
:1012B0008C6F8F6F330E926F380E8B6F8E6F936FB4
:1012C000390E8D6F916F410E866F946F420E906F45
:1012D000440E886F540E876F956B000EB96F860EA3
:1012E000B86F100EBA6FBB6B010EBC6F50EC02F002
:1012F000C051816F030E866F33EC00F0756A766A19
:10130000856B080E756203D07650D8B4852B85673F
:1013100073D0300E896F8A6F8C6F8F6F330E926F20
:10132000380E8B6F8E6F936F390E8D6F916F410EEC
:10133000866F946F420E906F440E886F540E876FC5
:10134000956B000EB96F860EB86F100EBA6FBB6B3F
:10135000010EBC6F50EC02F0C051816F640E9A6FA9
:101360000BEC00F0200E976F9F6F3A0E9E6F410EB0
:10137000946F440E966F540E956F650E996F6E0EB6
:101380009D6F720E986F9C6F740E9A6F750E9B6FA7
:10139000A06B000E936F940E926F0D0EA16FA26B57
:1013A0001AEC06F08151866F876B2EEC08F0C20EA6
:1013B000866F010E876F8AEC06F0866B14EC08F0DE
:1013C0007550886F010E896FF4EC05F02E0E866F54
:1013D000876B000E936F860E926F020EA16FA26B49
:1013E0001AEC06F0886B896BF4EC05F075527652B6
:1013F000752AD8B4762A84D7410E866F540E876F2B
:101400004F0E886F896B000EB96F860EB86F040E91
:10141000BA6FBB6B010EBC6F50EC02F012000F0EE6
:10142000C16E990E44EF09F054EC09F0DCEC08F0C1
:10143000FFD7D50E5F6EC40E606EBB0E616EDC0E04
:10144000626E636A646A656A666A676A686A696A1C
:101450006A6A6B6A6C6A6D6A6E6A7A6A7B6A736AB8
:10146000746A7C6A7D6A7E6A7F6A6F6A706A716A72
:10147000726A786A796A776A00018169826B836B24
:10148000846B0FEF0AF0EACF01F0E9CF02F0F4CF5E
:1014900003F0F3CF04F0200E9E140001E26F200E43
:1014A0009D14E16FE06BE153D8A4E253D8A4E02B84
:1014B000E05322E0010EE16F46EC00F0EA51E06FEC
:1014C000835319E1320E846116D00A0EE0630AD00C
:1014D000010E836F00EE05F0E9508451E926000EFD
:1014E000EF6E09D000EE05F0E9508451E926E05195
:1014F000EF6E8429846F9E9A04C0F3FF03C0F4FF4B
:0A15000002C0E9FF01C0EAFF11007C
:020000040030CA
:0E000000FF32F9FEFF78BAFFFFFFFFFFFFFFA0
:00000001FF
