:040000008A153729FD
:08000800FF00030E8312031335
:10001000CE000A0ECF00040ED0008A150A12602905
:10002000F908031D1428080009300000FF3E031DD5
:10003000152800000000F90B14280800F208031D21
:1000400022280800F5300000000000000000000039
:1000500000000000000000000000000000000000A0
:10006000000000000000FF3E031D232800000000E8
:100070000000000000000000000000000000000080
:10008000000000000000F20B22280800FA30F20005
:100090001E20FA30F2001E20FA30F2001E20FA3044
:1000A000F2001E20F00B4628080083160313A0015F
:1000B000FE08031977287E0303197A287E08023A7E
:1000C00003197D287E08033A031980287E08043A24
:1000D000031983287E08053A031986287E08063A04
:1000E000031989287E08073A03198C288E280130C5
:1000F000A0008E280230A0008E280430A0008E2898
:100100000830A0008E281030A0008E282030A000DB
:100110008E284030A0008E288030A0002008A1004A
:100120000800643083120313EF006C080C05F6001E
:10013000F501F50AF608031D7510F5080319AF2837
:100140006C080C05F600F701F70AF608031D771096
:100150007708F500EF03EF08031908009D286430C5
:10016000EF0010300705F600F701F608031D7714BD
:100170007708F500F5080319CB2810300705F600BD
:10018000F701F608031D77147708F500EF03EF0871
:1001900003190800BA287408990008002C30FA00E6
:1001A000FB01FF30FC00FD01023083120313EE005F
:1001B0008712780A031DDE280130FD006E08023A1E
:1001C000031DFB286D080C050319E828EE01DE2845
:1001D000FD08031DDE28F808031DF3280130EE009A
:1001E000FF30FC00DE28FA03FA08031DDE28F803BE
:1001F0002C30FA00DE28EE08031D20290230FE0014
:1002000055202108F9008312180503190E291A0830
:10021000FC000330EE001812181620290130FE00F1
:1002200055202108F9008312180503191E290430EE
:10023000EE001A08FC001812181620291A08FC00F3
:1002400087167C08FE000800FB01FC0183160313DF
:10025000A001A101FD017D1A08000310A00DA10D50
:10026000F50DF60DFB0DFC0D78087C02031D3A29F7
:1002700077087B02031C43297708FB027808031CDC
:10028000FC03FC022014FD0A2B2983120313060829
:10029000F8007810F8107811F8117812F812750E2D
:1002A0000F39F9000F307905F70077187814F7182F
:1002B000F81477197815F719F815F608031D78164C
:1002C000780886000A30F900102086160A30F900F6
:1002D000102086120F307505F7000A30F900102043
:1002E0000608F8007810F8107811F8117812F81252
:1002F00077187814F718F81477197815F719F8158E
:10030000F608031D7816780886000A30F9001020D8
:1003100086160A30F900102086120A30F9001020E3
:100320000800F201F501F601831203138313403034
:10033000840072088407F20A0D3080008313403075
:10034000840072088407F20A0A30800070030319DF
:10035000C2297008023A0319E3297008033A031905
:10036000142A7008043A0319552A7008053A03192B
:10037000B62A7008063A0319E72A7008073A0319E3
:10038000102B392B83134030840072088407F20A43
:100390004F30800083134030840072088407F20AD3
:1003A0004B30800083134030840072088407F20AC7
:1003B0000D30800083134030840072088407F20AF5
:1003C0000A3080003C2B831340308400720884077D
:1003D000F20A45308000831340308400720884079D
:1003E000F20A523080008313403084007208840780
:1003F000F20A523080008313403084007208840770
:10040000F20A4F3080008313403084007208840762
:10041000F20A52308000831340308400720884074F
:10042000F20A203080003C2B831340308400720895
:100430008407F20A4330800083134030840072083E
:100440008407F20A4F308000831340308400720822
:100450008407F20A4E308000831340308400720813
:100460008407F20A4E308000831340308400720803
:100470008407F20A453080008313403084007208FC
:100480008407F20A433080008313403084007208EE
:100490008407F20A543080008313403084007208CD
:1004A0008407F20A203080003C2B83134030840004
:1004B00072088407F20A4E308000831340308400B3
:1004C00072088407F20A4F308000831340308400A2
:1004D00072088407F20A20308000831340308400C1
:1004E00072088407F20A433080008313403084008E
:1004F00072088407F20A4130800083134030840080
:1005000072088407F20A523080008313403084005E
:1005100072088407F20A523080008313403084004E
:1005200072088407F20A4930800083134030840047
:1005300072088407F20A453080008313403084003B
:1005400072088407F20A523080008313403084001E
:1005500072088407F20A0D30800083134030840053
:1005600072088407F20A0A3080003C2B8313403063
:10057000840072088407F20A4130800083134030FF
:10058000840072088407F20A5530800083134030DB
:10059000840072088407F20A4430800083134030DC
:1005A000840072088407F20A4930800083134030C7
:1005B000840072088407F20A4F30800083134030B1
:1005C000840072088407F20A203080003C2B8313D9
:1005D0004030840072088407F20A50308000831390
:1005E0004030840072088407F20A4130800083138F
:1005F0004030840072088407F20A49308000831377
:100600004030840072088407F20A5230800083135D
:100610004030840072088407F20A203080003C2BAE
:1006200083134030840072088407F20A523080003D
:1006300083134030840072088407F20A4930800036
:1006400083134030840072088407F20A4E30800021
:1006500083134030840072088407F20A4730800018
:1006600083134030840072088407F20A203080002F
:100670003C2BFF30F7000800EB01F401033075025A
:1006800003188F2B3230F800CE207E08F300EE08DE
:100690000319572BF103F108031D512BFF30F7000D
:1006A00008003230F800CE207E08F300472B730894
:1006B0000D3A031D5F2B01307504F500762B73088E
:1006C0000A3A031D672B02307504F500762B83135D
:1006D000203084006B08840773088000EB0A203008
:1006E0006B02031C762B6B08F7000800F608031D4D
:1006F000862BF501831340308400740884070008BA
:1007000073060319852B0130F600F40AF608031D61
:100710003E2B72087406031D3E2BF70108006B0880
:10072000F7000800F201831203136A08003C031863
:10073000C12B6A0872020318AF2B83132030840088
:10074000720884070008F4009120F0080319AD2B0B
:100750006430F800CE207E08F300F20A992BF108ED
:100760000319BD2B0D30F4009120F0080319BD2BA7
:100770006430F800CE207E08F300EA010130F40076
:100780000800F40108002030831203136A020318E2
:10079000D42B8313203084006A08840770088000FB
:1007A000EA0A0130F1000800F10108009630F20079
:1007B0001E205E30F000C3237108E500F001F10156
:1007C00092237408E5009630F2001E205E30F0009F
:1007D000C3237108E500F001F10192237408E500DC
:1007E0009630F2001E205E30F000C3237108E50051
:1007F000F001F10192237408E5009630F2001E200A
:100800000130F000C830F10091217708E5000800C0
:10081000F11F172C2D30F5001030F600452170081F
:10082000003CF500F1090318F10A7508F0007008A2
:10083000F2007108F30027307102031D212C1030E3
:100840007002031C552CF11B552CF9017208F500A0
:100850007308F600F31F322CF509F609F50A03199F
:10086000F60AF90A1030F7002730F8002421200892
:10087000F400791C3D2CF409F40A7408303EF500AC
:100880001030F60045217408003C0318552C103038
:100890007202F5002730031C28307302F600750839
:1008A000F2007608F300F403432C03307102031DB9
:1008B0005B2CE8307002031C902CF11B902CFA0189
:1008C0007208F5007308F600F31F6C2CF509F609A1
:1008D000F50A0319F60AFA0AE830F7000330F800BF
:1008E00024212008F9007A1C772CF909F90A7908E3
:1008F000F400303EF5001030F60045217408003C4D
:100900000318902CE8307202F5000330031C043009
:100910007302F6007508F2007608F300F4037E2CEB
:100920007108803AF50080307502031D992C6430FF
:100930007002031CC62CFA017208F5007308F60059
:10094000F31FA82CF509F609F50A0319F60AFA0AA5
:100950006430F700F80124212008F9007A1CB22C39
:10096000F909F90A7908F400303EF5001030F60074
:1009700045217408003C0318C62C64307202F5004F
:10098000031CF3037508F200F403B92C7108803AD4
:10099000F50080307502031DCF2C0A307002031C55
:1009A000FC2CFA017208F5007308F600F31FDE2C28
:1009B000F509F609F50A0319F60AFA0A0A30F700EA
:1009C000F80124212008F9007A1CE82CF909F90A19
:1009D0007908F400303EF5001030F6004521740827
:1009E000003C0318FC2C0A307202F500031CF303D0
:1009F0007508F200F403EF2C7208303EF500103059
:100A0000F60045210800F108031D092D8030F10092
:100A10000B2DC030F10070087107F500F60145217B
:100A20000230F2001E2008007008F5001030F600B9
:100A3000452108000130F500F60145210230F200A1
:100A40001E200230F500F60145210230F2001E2082
:100A5000080083160313061086100611861106126D
:100A600086120C30F2001E203330F500F6014521CD
:100A70000230F2001E203230F500F601452102302E
:100A8000F2001E202C30F500F60145210230F20064
:100A90001E200630F500F60145210230F2001E202E
:100AA0000C30F500F60145210230F2001E20013025
:100AB000F500F60145210230F2001E200230F5005B
:100AC000F60145210230F2001E20080083120313B4
:100AD0006B0870020318742D831320308400700893
:100AE00084070008F1000800F1010800F101F2019B
:100AF00083120313EB01EE017108023C031CB02DBD
:100B00000A30F800CE207E08F000EE08031DA82D64
:100B100070080D3A031D902D01307104F1007C2DF9
:100B200070080A3A031D982D02307104F1007C2DE3
:100B30008313203084006B08840770088000EB0A60
:100B4000F20120306B02031C7C2DFF30F1007C2D64
:100B5000F20A7208013C03187C2DFF30F1007C2D55
:100B60006B08F300080083120313EA01EB01FF3066
:100B7000831687000713871283128716831698013E
:100B80001F309900831298019817831698168312C4
:100B900018160430FE00552021088312EC000530A1
:100BA000FE00552021088312ED000800073083164F
:100BB00003139F00C030810029257230F0001425F6
:100BC0007830F00014252E30F0001425B325643061
:100BD000F00014256F30F00014256E30F00014255D
:100BE0006530F00014252E30F000142576257308AA
:100BF000E50076257308E50076257308E5000130E9
:100C0000F0004620E1011A254130F000C3237108AD
:100C1000E5005430F000C3237108E5002630F000F1
:100C2000C3237108E5006630F000C3237108E500B6
:100C30002A30F000C3237108E5000130F000F10014
:100C400092237408E5002E30F00014250130F000E6
:100C500046200130F0006430F10091217708E50072
:100C6000E5088A15031DFA28610AE1004130F00009
:100C70008A11C3237108E5005430F000C3237108C2
:100C8000E5005A30F000C3237108E5000130F000A0
:100C9000F10092237408E5002E30F0001425013095
:100CA000F00046200130F0000A30F1009121770871
:100CB000E500E5088A15031DFA28610AE1004130C4
:100CC000F0008A11C3237108E5005430F000C323FB
:100CD0007108E5002B30F000C3237108E5004230B5
:100CE000F000C3237108E5005430F000C3237108FD
:100CF000E5004B30F000C3237108E5003D30F00003
:100D0000C3237108E5002230F000C3237108E50019
:100D10003130F000C3237108E5003230F000C32306
:100D20007108E5003330F000C3237108E50034306A
:100D3000F000C3237108E5002230F000C3237108DE
:100D4000E5002E30F00014250130F000F100922370
:100D50007408E5000130F0000A30F10091217708B5
:100D6000E500E5088A15031DFA28610AE100413013
:100D7000F0008A11C3237108E5005430F000C3234A
:100D80007108E5002B30F000C3237108E500423004
:100D9000F000C3237108E5005430F000C32371084C
:100DA000E5005730F000C3237108E5003030F00053
:100DB000C3237108E5003030F000C3237108E5005B
:100DC0003830F000C3237108E5003030F000C32351
:100DD0007108E5003930F000C3237108E5003830B0
:100DE000F000C3237108E5004530F000C32371080B
:100DF000E5003430F000C3237108E5003430F00022
:100E0000C3237108E5003930F000C3237108E50001
:100E10003630F000C3237108E5003130F000C32301
:100E20007108E5000130F000F10092237408E5003C
:100E30002E30F00014250130F0000A30F10091212D
:100E40007708E500E5088A15031DFA28610AE10024
:100E50000430F0008A1146200630F000FA30F1002C
:100E600091217708E500E5088A15031DFA28610A33
:100E7000E1008A1176257308E500E5088A15031953
:100E8000FA28610AE100F0018A1166257108E40080
:100E9000303A8A15031DFA288A1176257308E50071
:100EA00076257308E50076257308E500610AE10000
:100EB0004130F000C3237108E5005430F000C32333
:100EC0007108E5004430F000C3237108E5003030BC
:100ED000F000C3237108E5003030F000C32371082F
:100EE000E5003830F000C3237108E5003030F00031
:100EF000C3237108E5003930F000C3237108E50011
:100F00003830F000C3237108E5004530F000C323FA
:100F10007108E5003430F000C3237108E500343077
:100F2000F000C3237108E5003930F000C3237108D5
:100F3000E5003630F000C3237108E5003130F000E1
:100F4000C3237108E5000130F000F100922374081A
:100F5000E5002E30F0001425610AE1000130F000B8
:100F600046200330F0006430F10091217708E5005D
:100F7000E5088A15031DFA286330F0008A1114254C
:100F80006F30F00014256E30F00014256E30F00044
:100F900014256530F00014256330F00014257430FA
:100FA000F00014256530F00014256430F00014259D
:100FB0000230F00046201A257330F0001425653009
:100FC000F00014256E30F00014256430F000142574
:100FD0006930F00014256E30F00014256730F00001
:100FE00014252E30F00014252E30F00014252E305C
:100FF000F00014252A30F000C3237108E5005530B5
:10100000F000C3237108E5006E30F000C3237108BF
:10101000E5006930F000C3237108E5007430F0008A
:10102000C3237108E5002030F000C3237108E500F8
:101030007030F000C3237108E5006130F000C32375
:101040007108E5007330F000C3237108E5007330C8
:10105000F000C3237108E5006530F000C323710878
:10106000E5006430F000C3237108E5002A30F00089
:10107000C3237108E500F001F10192237408E50033
:10108000F0010130F10003257030F00014257230BA
:10109000F00014256530F00014257330F00014259D
:1010A0007330F00014252030F00014254130F0009A
:1010B00014253030F0001425FF3083160504850018
:1010C00083120508E30063038A15031D5C288A1157
:1010D00076257308E50076257308E5007625730804
:1010E000E500610AE1002925D623E5088A15031DDC
:1010F000FA28610AE1004130F0008A11C323710827
:10110000E5005430F000C3237108E5004830F000DA
:10111000C3237108E5000130F000F1009223740848
:10112000E5002E30F00014250430F0000A30F10004
:1011300091217708E500E5088A15031DFA28610A60
:10114000E1004130F0008A11C3237108E5005430FA
:10115000F000C3237108E5002630F000C3237108B6
:10116000E5006630F000C3237108E5002A30F00086
:10117000C3237108E5000130F000F10092237408E8
:10118000E5002E30F00014256430F2001E200130FE
:10119000F0006430F10091217708E500E5088A1538
:1011A000031DFA288A111A252A30F00014252A3046
:1011B000F00014252A30F00014252030F00014250A
:1011C0004430F00014254F30F00014254E30F0006C
:1011D00014254530F00014252030F00014252A3065
:1011E000F00014252A30F00014252A30F0001425D0
:1011F0008A15F8286530F0008A1114257230F00045
:1012000014257230F00014256F30F0001425723070
:10121000F00014252030F00014256108F000F101E1
:101220000824F0010130F1000325650A8A15031D29
:1012300025297430F0008A1114252F30F000142570
:101240006F30F00014258A153629E2016508620224
:10125000031836296208F0008A1166257108E40037
:10126000F0001425620AE2008A15262936290D307D
:1012700083120313D300D4010030E6005330D100B1
:101280006608D2000D30D700D8010030E700573093
:10129000D5006708D6000D30DB00DC010030E80027
:1012A0005B30D9006808DA000D30DF00E001003063
:1012B000E9005F30DD006908DE008A110A12D62DD0
:1012C00083120313500E84004F0E8A004E0E8300CB
:0612D000FF0E7F0E090075
:02400E003A3F37
:00000001FF