:020000040000FA
:0400000078EF02F0A3
:080008009DEF02F00000000072
:10001000322EFCD712002452000001E11200F50E2E
:1000200000000000000000000000000000000000D0
:1000300000000000000000000000000000000000C0
:10004000FF0FD8A4EDD70000000000000000000062
:1000500000000000000000000000000000000000A0
:10006000242EDDD71200326A9290325204E0010E43
:100070008910806E03D0FE0E8914806E326A9292CF
:10008000325204E0020E8910806E03D0FD0E8914F6
:10009000806E326A9294325204E0040E8910806EAF
:1000A00003D0FB0E8914806E326A9296325204E0BD
:1000B000080E8910806E03D0F70E8914806E326AA4
:1000C0009298325204E0100E8910806E03D0EF0E29
:1000D0008914806E326A929A325204E0200E89109E
:1000E000806E03D0DF0E8914806E2F380F0B316EB7
:1000F000010E3114326E9290325204E0010E8910DA
:10010000806E03D0FE0E8914806E3152D890313249
:10011000010E3114326E9292325204E0020E8910B6
:10012000806E03D0FD0E8914806E3152D89031322A
:10013000010E3114326E9294325204E0040E891092
:10014000806E03D0FB0E8914806E3152D89031320C
:10015000010E3114326E9296325204E0080E89106C
:10016000806E03D0F70E8914806E30A00CD0010E83
:10017000326E9298325204E0100E8910806E03D0D5
:10018000EF0E8914806E640E326E06EC00F0010EE4
:10019000326E929A325204E0200E8910806E03D0A3
:1001A000DF0E8914806E640E326E06EC00F0326A47
:1001B000929A325204E0200E8910806E03D0DF0E36
:1001C0008914806E640E326E06EC00F0326A9290F2
:1001D000325204E0010E8910806E03D0FE0E8914A5
:1001E000806E326A9292325204E0020E8910806E62
:1001F00003D0FD0E8914806E326A9294325204E06C
:10020000040E8910806E03D0FB0E8914806E326A52
:100210009296325204E0080E8910806E03D0F70ED9
:100220008914806E326A9298325204E0100E89105E
:10023000806E03D0EF0E8914806E0F0E2F14326E75
:100240003250316E010E3114326E9290325204E00F
:10025000010E8910806E03D0FE0E8914806E31521B
:10026000D8903132010E3114326E9292325204E043
:10027000020E8910806E03D0FD0E8914806E3152FB
:10028000D8903132010E3114326E9294325204E021
:10029000040E8910806E03D0FB0E8914806E3152DB
:1002A000D8903132010E3114326E9296325204E0FF
:1002B000080E8910806E03D0F70E8914806E30A06E
:1002C0000CD0010E326E9298325204E0100E89105A
:1002D000806E03D0EF0E8914806E640E326E06ECD1
:1002E00000F0010E326E929A325204E0200E891014
:1002F000806E03D0DF0E8914806E640E326E06ECC1
:1003000000F0326A929A325204E0200E8910806E18
:1003100003D0DF0E8914806E640E326E06EC00F09E
:100320001200326A3150326009D03050EA6E2F50DC
:100330003224E96EEF5202E0322AF4D73250336EA3
:100340001200010E2F6E309033EC00F0020E246E7E
:100350000BEC00F0020E2F6E309033EC00F0020E2A
:10036000246E0BEC00F01200246A9290245204E0F8
:10037000010E8910806E03D0FE0E8914806E246AEF
:100380009292245204E0020E8910806E03D0FD0E7A
:100390008914806E246A9294245204E0040E891019
:1003A000806E03D0FB0E8914806E246A92962452CC
:1003B00004E0080E8910806E03D0F70E8914806E59
:1003C000246A9298245204E0100E8910806E03D0A3
:1003D000EF0E8914806E246A929A245204E0200E53
:1003E0008910806E03D0DF0E8914806E0C0E246E8F
:1003F0000BEC00F0330E2F6E309033EC00F0020E59
:10040000246E0BEC00F0330E2F6E309033EC00F0C6
:10041000020E246E0BEC00F0320E2F6E309033EC97
:1004200000F0020E246E0BEC00F02C0E2F6E3090BC
:1004300033EC00F0020E246E0BEC00F0060E2F6E73
:10044000309033EC00F0020E246E0BEC00F00C0E3A
:100450002F6E309033EC00F0020E246E0BEC00F0A7
:10046000010E2F6E309033EC00F0020E246E0BEC78
:1004700000F0020E2F6E309033EC00F0020E246E6E
:100480000BEC00F0A1EC01F012002D6A24502F6E4D
:100490002550306E2B50316E91EC01F033502E6EA2
:1004A0002E502D6012002550EA6E24502D24E96E46
:1004B000EF502F6E308033EC00F02D282D6EF0D7EA
:1004C0000F0EC16EB4EC01F0A1EC01F0650E276EC9
:1004D000730E286E740E266E296E2A6A000E256E23
:1004E000260E246E050E2B6E2C6A45EC02F0FFD70B
:1004F000D50E056EC40E066EBB0E076EDC0E086EC2
:10050000096A0A6A0B6A0C6A0D6A0E6A0F6A106A37
:10051000116A126A136A146A1E6A1F6A196A1A6AD1
:10052000206A216A226A236A156A166A176A186A9B
:100530001C6A1D6A1B6A60EF02F0EACF01F0E9CF86
:1005400002F0F4CF03F0F3CF04F004C0F3FF03C0D4
:0C055000F4FF02C0E9FF01C0EAFF110047
:020000040030CA
:0E000000FF32F9FEFF79BAFFFFFFFFFFFFFF9F
:00000001FF
