:020000040000FA
:04000000FFEF02F01C
:0800080025EF03F000000000E9
:10001000402EFCD712002952000001E11200F50E1B
:1000200000000000000000000000000000000000D0
:1000300000000000000000000000000000000000C0
:10004000FF0FD8A4EDD70000000000000000000062
:1000500000000000000000000000000000000000A0
:10006000292EDDD71200406A9290405204E0010E22
:100070008910806E03D0FE0E8914806E406A9292C1
:10008000405204E0020E8910806E03D0FD0E8914E8
:10009000806E406A9294405204E0040E8910806E93
:1000A00003D0FB0E8914806E406A9296405204E0A1
:1000B000080E8910806E03D0F70E8914806E406A96
:1000C0009298405204E0100E8910806E03D0EF0E1B
:1000D0008914806E406A929A405204E0200E891082
:1000E000806E03D0DF0E8914806E3D380F0B3F6E9B
:1000F000010E3F14406E9290405204E0010E8910B0
:10010000806E03D0FE0E8914806E3F52D8903F322D
:10011000010E3F14406E9292405204E0020E89108C
:10012000806E03D0FD0E8914806E3F52D8903F320E
:10013000010E3F14406E9294405204E0040E891068
:10014000806E03D0FB0E8914806E3F52D8903F32F0
:10015000010E3F14406E9296405204E0080E891042
:10016000806E03D0F70E8914806E3EA00CD0010E75
:10017000406E9298405204E0100E8910806E03D0B9
:10018000EF0E8914806E640E406E06EC00F0010ED6
:10019000406E929A405204E0200E8910806E03D087
:1001A000DF0E8914806E640E406E06EC00F0406A2B
:1001B000929A405204E0200E8910806E03D0DF0E28
:1001C0008914806E640E406E06EC00F0406A9290D6
:1001D000405204E0010E8910806E03D0FE0E891497
:1001E000806E406A9292405204E0020E8910806E46
:1001F00003D0FD0E8914806E406A9294405204E050
:10020000040E8910806E03D0FB0E8914806E406A44
:100210009296405204E0080E8910806E03D0F70ECB
:100220008914806E406A9298405204E0100E891042
:10023000806E03D0EF0E8914806E0F0E3D14406E59
:1002400040503F6E010E3F14406E9290405204E0C9
:10025000010E8910806E03D0FE0E8914806E3F520D
:10026000D8903F32010E3F14406E9292405204E00B
:10027000020E8910806E03D0FD0E8914806E3F52ED
:10028000D8903F32010E3F14406E9294405204E0E9
:10029000040E8910806E03D0FB0E8914806E3F52CD
:1002A000D8903F32010E3F14406E9296405204E0C7
:1002B000080E8910806E03D0F70E8914806E3EA060
:1002C0000CD0010E406E9298405204E0100E89103E
:1002D000806E03D0EF0E8914806E640E406E06ECC3
:1002E00000F0010E406E929A405204E0200E8910F8
:1002F000806E03D0DF0E8914806E640E406E06ECB3
:1003000000F0406A929A405204E0200E8910806EFC
:1003100003D0DF0E8914806E640E406E06EC00F090
:100320001200AC847F0EAF6EAB6AAB8EAC8AAB882A
:100330009D9A1200406A3F50406009D03E50EA6EDC
:100340003D504024E96EEF5202E0402AF4D740507D
:10035000416E1200010E3D6E3E9033EC00F0020E35
:10036000296E0BEC00F0020E3D6E3E9033EC00F077
:10037000020E296E0BEC00F01200266A256A91EC41
:1003800001F01200285203E1800E286E02D0C00E48
:10039000286E275028243D6E3E9033EC00F0020E6C
:1003A000296E0BEC00F012003B6A27503D6E28507E
:1003B0003E6E39503F6E9AEC01F041503C6E3C501D
:1003C0003B6012002850EA6E27503B24E96EEF5044
:1003D0003D6E3E8033EC00F03B283B6EF0D7276A41
:1003E0009290275204E0010E8910806E03D0FE0E19
:1003F0008914806E276A9292275204E0020E8910B7
:10040000806E03D0FD0E8914806E276A9294275265
:1004100004E0040E8910806E03D0FB0E8914806EF8
:10042000276A9296275204E0080E8910806E03D046
:10043000F70E8914806E276A9298275204E0100EF6
:100440008910806E03D0EF0E8914806E276A929A0D
:10045000275204E0200E8910806E03D0DF0E89142D
:10046000806E0C0E296E0BEC00F0330E3D6E3E904C
:1004700033EC00F0020E296E0BEC00F0330E3D6EF3
:100480003E9033EC00F0020E296E0BEC00F0320EC1
:100490003D6E3E9033EC00F0020E296E0BEC00F046
:1004A0002C0E3D6E3E9033EC00F0020E296E0BECEC
:1004B00000F0060E3D6E3E9033EC00F0020E296E09
:1004C0000BEC00F00C0E3D6E3E9033EC00F0020E93
:1004D000296E0BEC00F0010E3D6E3E9033EC00F007
:1004E000020E296E0BEC00F0020E3D6E3E9033ECD6
:1004F00000F0020E296E0BEC00F0AAEC01F01200E5
:10050000BDEC01F0EFEC01F0AAEC01F0200E316E31
:100510002E0E366E490E296E610E2E6E630E326EF1
:10052000650E306E690E2B6E2D6E6E0E2A6E346E59
:10053000356E6F0E336E740E2C6E2F6E376A000E92
:10054000286E290E276E0F0E396E3A6AD4EC01F030
:1005500012002490AAEC01F0200E306E570E296E86
:10056000610E2A6E326E670E2F6E376E690E2B6E1D
:100570002D6E336E356E6E0E2E6E366E700E316EC3
:10058000720E346E740E2C6E386A000E286E290EB0
:10059000276E100E396E3A6AD4EC01F0276A010E0C
:1005A000286EC2EC01F0200E2F6E2E0E346E356ECA
:1005B000366E500E296E610E2C6E316E650E2B6EEE
:1005C0002E6E690E326E6C0E2A6E730E2D6E740EC8
:1005D000336E770E306E376A000E286E290E276E46
:1005E0000F0E396E3A6AD4EC01F024A0FED7120047
:1005F0000F0EC16E80EC02F0A9EC02F0FFD7D50E11
:10060000056EC40E066EBB0E076EDC0E086E096A20
:100610000A6A0B6A0C6A0D6A0E6A0F6A106A116A1E
:10062000126A136A146A1E6A1F6A196A1A6A206AB1
:10063000216A226A236A156A166A176A186A1C6A8E
:100640001D6A1B6A2490F8EF02F0EACF01F0E9CFAF
:1006500002F0F4CF03F0F3CF04F004C0F3FF03C0C3
:0C066000F4FF02C0E9FF01C0EAFF110036
:020000040030CA
:0E000000FF32FFFEFFFBBAFFFFFFFFFFFFFF17
:00000001FF
