:020000040000FA
:0400000096EF09F07E
:08000800C0EF09F00000000048
:10001000AD2FFCD712007052000001E11200F50E66
:1000200000000000000000000000000000000000D0
:1000300000000000000000000000000000000000C0
:10004000FF0FD8A4EDD70000000000000000000062
:1000500000000000000000000000000000000000A0
:10006000702EDDD71200FA0E706E0BEC00F0FA0E57
:10007000706E0BEC00F0FA0E706E0BEC00F0FA0EE6
:10008000706E0BEC00F05B2EEED71200D669D76BCA
:10009000D86BD96BDA6BDD6BD52902E1010ED96F14
:1000A000DA5324E1D95318E1D55303E1010EDA6F95
:1000B00013D0DB6BDC6B310EDB5D05E2DC6703D05C
:1000C000DB4BDC2BF8D7D729D76F640ED76304D06E
:1000D000D505D56F0400D76B200E9E14DE6FDE5160
:1000E000D86FD853DDE0020EDA6FDAD7020EDA638A
:1000F00018D0040EAB14DE6FDE51D86FD85303E076
:10010000AE50DD6F0ED0020EAB14DE6FDE51D86F35
:10011000D85303E0AB98AB8804D0D66BAE50D61161
:10012000D66FD651DE6FDF6B1200FF0EAB65AC678A
:1001300001D00CD0AD6906EC00F0FF0EAB5DAD6FE9
:10014000AB59FF08AC5FAD51AB6FEFD7000EAB659D
:10015000AC6701D01200AB51AD6F06EC00F012009D
:10016000100E9E14AA6FAA53FBE0A851AD6E1200A8
:10017000996B9851996109D09751EA6E96519925DA
:10018000E96EEF5202E0992BF4D799519A6F120061
:100190000001A86BA96B5A50A96F596A5A6A586A2C
:1001A000595213E1FF0EA86110D0A829A86F5A5028
:1001B000A9635A6203D0A86B5A50A96FF40EAB6FB3
:1001C000010EAC6F95EC00F0EBD7A82904E1596A59
:1001D0005A6AAA6B02D0010EAA6FAA51AB6F120025
:1001E000866B876B886B896B886B896B7A50800311
:1001F000F350866FF450876F7B508003F35087274E
:10020000F4508823D8B0892B7C508003F350882782
:10021000F45089237D508003F35089277A5081035D
:10022000F3508727F4508823D8B0892B7B50810363
:10023000F3508827F45089237C508103F350892799
:100240007A508203F3508827F45089237B5082032D
:10025000F35089277A508303F35089271200846B67
:10026000856B866B876B886B896B8A6B8B6B7E6A01
:10027000200E7E147F6E7F661200D89088378937F3
:100280008A378B377A367B367C367D3684378537AE
:10029000863787378351875D08E18251865D05E1A6
:1002A0008151855D02E18051845D09E38051845F65
:1002B0008151855B8251865B8351875B88817E2A71
:1002C000D7D7A06B9D517D628CD09E517E6289D024
:1002D000A16B7C50A16109D07B50EA6E7A50A125B8
:1002E000E96EEF5202E0A12BF4D79F51A16158D0E3
:1002F000A06B7F50A06109D07E50EA6E7D50A02592
:10030000E96EEF5202E0A02BF4D7A1519F5DA26FDE
:10031000A051A26105D0A1519F5DA36FA351A06F11
:10032000A051A1257F6EA051A16F000EA16514D030
:10033000A1077F067E50EA6E7D50E96EA151A36F42
:10034000A351E926EF50A46F9E51EA6E9D517F2480
:10035000E96EA451EF6EE9D7A16B7C50A1611DD06D
:100360009F51A1611AD07B50EA6E7A50A125E96EA7
:10037000EF5213E07B50EA6E7A50E96EA151A36F01
:10038000A351E926EF50A46F9E51EA6E9D51A1251D
:10039000E96EA451EF6EA12BE0D7A151A02775D033
:1003A000A06B7C50A06171D09F51A0616ED07B503A
:1003B000EA6E7A50A025E96EEF5267E07B50EA6E54
:1003C0007A50E96EA051A26FA251E926EF50A36FB7
:1003D0009E51EA6E9D51A025E96EA351EF6EA02BB0
:1003E000E0D7A06B7C50A0611DD09F51A0611AD0B6
:1003F0007B50EA6E7A50A025E96EEF5213E07B50F5
:10040000EA6E7A50E96EA051A26FA251E926EF5030
:10041000A36F9E51EA6E9D51A025E96EA351EF6E28
:10042000A02BE0D79F51A06130D0A36BA0519D2598
:10043000A26F9E51A323A2517A6EA3517B6EA0514D
:100440009F5D7C6EA16B7F50A1611DD07C50A1612E
:100450001AD07E50EA6E7D50A125E96EEF5213E06E
:100460007E50EA6E7D50E96EA151A26FA251E9263D
:10047000EF50A36F7B50EA6E7A50A125E96EA3512D
:10048000EF6EA12BE0D7A151A0279F51A0611200D0
:100490009E51EA6E9D51A025E96E000EEF6E12008E
:1004A0007F6AC8EC00F0AB51956F9553FAE17A5032
:1004B000966F7B50976F7C50986FB8EC00F09A5114
:1004C000946F945317E094517F600DD07B50EA6E87
:1004D0007A507F24E96EEF50A86FA96BB0EC00F062
:1004E0007F287F6EF0D77E5205E00D0EA86FA96BB6
:1004F000B0EC00F0C8EC00F0C8EC00F0AB51956F28
:10050000955302E1956901D0956B9551966F120054
:10051000826B9290825304E0010E8910806E03D0AA
:10052000FE0E8914806E826B9292825304E0020E5A
:100530008910806E03D0FD0E8914806E826B9294B8
:10054000825304E0040E8910806E03D0FB0E8914E0
:10055000806E826B9296825304E0080E8910806E42
:1005600003D0F70E8914806E826B9298825304E058
:10057000100E8910806E03D0EF0E8914806E826B8E
:10058000929A825304E0200E8910806E03D0DF0E11
:100590008914806E7F380F0B816F010E8115826F79
:1005A0009290825304E0010E8910806E03D0FE0EFB
:1005B0008914806E8153D8908133010E8115826F2A
:1005C0009292825304E0020E8910806E03D0FD0ED9
:1005D0008914806E8153D8908133010E8115826F0A
:1005E0009294825304E0040E8910806E03D0FB0EB7
:1005F0008914806E8153D8908133010E8115826FEA
:100600009296825304E0080E8910806E03D0F70E94
:100610008914806E80A10CD0010E826F9298825353
:1006200004E0100E8910806E03D0EF0E8914806EE6
:10063000640EAD6F06EC00F0010E826F929A825349
:1006400004E0200E8910806E03D0DF0E8914806EC6
:10065000640EAD6F06EC00F0826B929A825304E058
:10066000200E8910806E03D0DF0E8914806E640E18
:10067000AD6F06EC00F0826B9290825304E0010EA5
:100680008910806E03D0FE0E8914806E826B929268
:10069000825304E0020E8910806E03D0FD0E89148F
:1006A000806E826B9294825304E0040E8910806EF7
:1006B00003D0FB0E8914806E826B9296825304E005
:1006C000080E8910806E03D0F70E8914806E826B3D
:1006D0009298825304E0100E8910806E03D0EF0EC2
:1006E0008914806E0F0E7F14826F8251816F010E0C
:1006F0008115826F9290825304E0010E8910806E02
:1007000003D0FE0E8914806E8153D8908133010E80
:100710008115826F9292825304E0020E8910806EDE
:1007200003D0FD0E8914806E8153D8908133010E61
:100730008115826F9294825304E0040E8910806EBA
:1007400003D0FB0E8914806E8153D8908133010E43
:100750008115826F9296825304E0080E8910806E94
:1007600003D0F70E8914806E80A10CD0010E826F29
:100770009298825304E0100E8910806E03D0EF0E21
:100780008914806E640EAD6F06EC00F0010E826F6E
:10079000929A825304E0200E8910806E03D0DF0EFF
:1007A0008914806E640EAD6F06EC00F0826B929A35
:1007B000825304E0200E8910806E03D0DF0E89146E
:1007C000806E640EAD6F06EC00F01200AC847F0EFC
:1007D000AF6EAB6AAB8EAC8AAB889D8AF28CF28E20
:1007E000120067506F6E6850706E6950716E6A507B
:1007F000726E736ACA0E746E9A0E756E3B0E766ECA
:10080000776A6D5205E16B50786E6C50796E12000C
:1008100072AE14D06C50EA6E6B50E96E7A6A7A5000
:10082000E9262D0EEF6E772A6F1E701E711E721E46
:100830006F3E04D0703E02D0714A722A6E6A6F50C9
:10084000701071107210FF0B06E1010E6E6E736E68
:10085000746A756A766A6D50776074D07650000855
:1008600008E17550000805E17450000802E173507A
:10087000000868E27650725C08E17550715C05E131
:100880007450705C02E173506F5C02E26E5241E0A2
:100890006F507A6E70507B6E71507C6E72507D6EB0
:1008A00073500001806F7450816F7550826F765065
:1008B000836F2FEC01F088516E6E6E50300F7A6EA0
:1008C0006C50EA6E6B507724E96E7A50EF6E772A9F
:1008D0006E507A6E7B6A7C6A7D6A7350806F74504A
:1008E000816F7550826F7650836FF0EC00F0865107
:1008F0007E6E87517F6E8851846F8951856F7E50DF
:100900006F5E7F50705A8451715A8551725A010E30
:100910006E6E73507A6E74507B6E75507C6E76502E
:100920007D6E0A0E0001806F816B826B836B2FECF2
:1009300001F08851736E8951746E8A51756E8B51B6
:10094000766E89D76D50776007D06C50EA6E6B5029
:100950007724E96E000EEF6E6B50786E6C50796EF6
:1009600012000001D16B7C50D1611DD07F50D1614C
:100970001AD06150EA6E6050D125E96EEF5213E053
:100980006150EA6E6050E96ED151D26FD251E926C2
:10099000EF50D36F7E50EA6E7D50D125E96ED35172
:1009A000EF6ED12BE0D77F50D16112007E50EA6EFE
:1009B0007D50D125E96E000EEF6E1200410E716E72
:1009C000540E726E260E736E460E746E2A0E756E7F
:1009D000766A000E7B6E710E7A6E060E7C6E7D6AF4
:1009E000010E7E6E50EC02F09651706E7050716E7A
:1009F0001200705241E0715220E0410E0001806F00
:100A0000540E816F530E826F350E836F310E846FDB
:100A1000320E856F3D0E866F340E876F886B000E29
:100A20007B6E800E7A6E090E7C6E7D6A010E7E6E84
:100A300050EC02F09651726E5FD0310E0001846F5F
:100A4000320E856F876F350E836F3D0E866F410EB8
:100A5000806F530E826F540E816F886B000E7B6E19
:100A6000800E7A6E090E7C6E7D6A010E7E6E50ECF1
:100A700002F09651726E40D071521FE0310E0001AB
:100A8000846F320E856F876F350E836F3D0E866FD4
:100A9000410E806F530E826F540E816F886B000E73
:100AA0007B6E800E7A6E090E7C6E7D6A030E7E6E02
:100AB00050EC02F09651726E1FD0410E0001806F13
:100AC000540E816F530E826F350E836F310E846F1B
:100AD000320E856F3D0E866F300E876F886B000E6D
:100AE0007B6E800E7A6E090E7C6E7D6A010E7E6EC4
:100AF00050EC02F09651726E7250736E1200410EFD
:100B0000716E540E726E260E736E570E746E756A89
:100B1000000E7B6E710E7A6E050E7C6E7D6A010E84
:100B20007E6E50EC02F09651706E705214E1410EE0
:100B3000716E540E726E5A0E736E746A000E7B6E76
:100B4000710E7A6E040E7C6E7D6A010E7E6E50EC24
:100B500002F09651706E7050716E1200220E0001FC
:100B60009B6F2B0E966F3D0E9A6F410E946F420E47
:100B7000976F4B0E996F540E956F986F9C6B000E8C
:100B80007B6E940E7A6E090E7C6E70507D6E715085
:100B90007E6E77507F6E000E9E6F800E9D6F140EDE
:100BA0009F6F61EC01F0000E7B6E800E7A6E140E6A
:100BB0007C6E220E946F956B000E7E6E940E7D6E91
:100BC000020E7F6E000E9E6F800E9D6F140E9F6F43
:100BD00061EC01F0000E7B6E800E7A6E140E7C6E5E
:100BE0007D6A010E7E6E50EC02F09651796E79505E
:100BF0007A6E1200010E7F6E0001809188EC02F087
:100C0000020E706E0BEC00F0020E7F6E809188EC8D
:100C100002F0020E706E0BEC00F012007D6A67505D
:100C20000001966F6850976F7B50986FB8EC00F09A
:100C30009A517E6E7E507D6012006850EA6E675059
:100C40007D24E96EEF507F6E808188EC02F07D2874
:100C50007D6EF0D75C6A5D685E6A010E5B6001D0F4
:100C600003D0020E5B6402D05F68E1D05B040CE04D
:100C7000020E5B6201D04FD0030E5B6201D082D0C6
:100C8000040E5B629FD08ED00A0E0001AF6FB46F6E
:100C9000BE6FC86F0D0EAE6FB36FBD6FC76F300EF6
:100CA000AB6FCD6F310EAD6FB96FC66F320EBA6FCD
:100CB000CE6F330EC36F350EB86FC26FCC6F360E6A
:100CC000C46F370EBC6F3D0EAC6FBB6FC56FCF6F7F
:100CD000410EA86FB06FB56FBF6FC96F520EB26F84
:100CE000530EAA6FB76FC16FCB6F540EA96FB16F60
:100CF000B66FC06FCA6FD06B000E616EA80E606ECB
:100D0000290E7C6E000E7E6E800E7D6E280E7F6E2C
:100D1000B1EC04F059D00A0E6B6E706E766E0D0E4B
:100D20006A6E6F6E756E260E736E300E7A6E310EB1
:100D3000676E320E696E330E666E350E656E3D0E51
:100D4000686E410E626E6C6E6E6E716E776E530ED3
:100D5000646E540E636E6D6E726E786E570E746EA6
:100D60005A0E796E7B6A000E616E620E606E1A0E0C
:100D70007C6E000E7E6E800E7D6E280E7F6EB1EC56
:100D800004F022D0626A000E616E620E606E010E87
:100D90007C6E000E7E6E800E7D6E280E7F6EB1EC36
:100DA00004F012D0626A000E616E620E606E010E77
:100DB0007C6E000E7E6E800E7D6E280E7F6EB1EC16
:100DC00004F002D05F6833D0000E5D6422D000EEE4
:100DD00080F0E9505C50E926EF505D6E000E5D64D6
:100DE00015D00A0E5D6201D011D05D50A86FA96BBD
:100DF000B0EC00F05E285E6E0D0E5D6207D0C8ECB0
:100E000000F0C8EC00F0AB515F6E5E6A5C285C6E6F
:100E1000DBD7000E5E640BD00D0EA86FA96BB0EC93
:100E200000F0C8EC00F0C8EC00F0AB515F6E5F5012
:100E3000606E1200706A9392705204E0020E8A1083
:100E4000816E03D0FD0E8A14816E640E706E0BEC01
:100E500000F0010E706E9392705204E0020E8A1040
:100E6000816E03D0FD0E8A14816E6F6AE6EC03F08A
:100E70000A0E706E0BEC00F0C8EC00F0DEEC04F033
:100E8000220E876F2B0E826F3D0E866F410E806F94
:100E9000420E836F4E0E856F540E816F846F886B88
:100EA000000E7B6E800E7A6E090E7C6E6C0E896F62
:100EB0008C6F6F0E8A6F8B6F8D6B000E7E6E890E3E
:100EC0007D6E050E7F6E000E9E6F5B0E9D6F140E85
:100ED0009F6F61EC01F0000E7B6E5B0E7A6E140E5C
:100EE0007C6E220E716E726A000E7E6E710E7D6EC9
:100EF000020E7F6E000E9E6F5B0E9D6F140E9F6F35
:100F000061EC01F0000E7B6E5B0E7A6E140E7C6E4F
:100F10007D6A010E7E6E50EC02F0310E726E330E61
:100F2000736E370E746E390E756E766A000E716EC2
:100F3000720E706E050E776E786AAEEC05F0010EDB
:100F4000706E716EF9EC04F07FEC05F071506F6E0D
:100F50006F50706E12005B50676E5C50686E696A0D
:100F60006A6A5CAE02D069066A06000E6C6E5D0E9F
:100F70006B6E0A0E6D6EF1EC03F0000E686E5D0E86
:100F8000676E0A0E7B6E7C6A0EEC06F012005C52F5
:100F900003E1800E5C6E02D0C00E5C6E5B505C2480
:100FA0007F6E0001809188EC02F0020E706E0BECF7
:100FB00000F012005B6A92905B5204E0010E89100F
:100FC000806E03D0FE0E8914806E5B6A92925B5233
:100FD00004E0020E8910806E03D0FD0E8914806E2D
:100FE0005B6A92945B5204E0040E8910806E03D019
:100FF000FB0E8914806E5B6A92965B5204E0080EC9
:101000008910806E03D0F70E8914806E5B6A929807
:101010005B5204E0100E8910806E03D0EF0E89142D
:10102000806E5B6A929A5B5204E0200E8910806E9B
:1010300003D0DF0E8914806E0C0E706E0BEC00F086
:10104000330E7F6E0001809188EC02F0020E706E0C
:101050000BEC00F0330E7F6E809188EC02F0020EF4
:10106000706E0BEC00F0320E7F6E809188EC02F017
:10107000020E706E0BEC00F02C0E7F6E809188ECEF
:1010800002F0020E706E0BEC00F0060E7F6E809187
:1010900088EC02F0020E706E0BEC00F00C0E7F6E0E
:1010A000809188EC02F0020E706E0BEC00F0010EE5
:1010B0007F6E809188EC02F0020E706E0BEC00F0F7
:1010C000020E7F6E809188EC02F0020E706E0BECC7
:1010D00000F0FAEC05F012001AEC07F0DAEC07F079
:1010E000010E5B6E33EC00F0010E5B6E2AEC06F035
:1010F000020E5B6E2AEC06F02E0E776E786E796E1D
:10110000490E696E610E6E6E726E690E6B6E6D6E5B
:10111000706E746E6C0E6F6E6E0E6A6E766E6F0E03
:10112000756E730E716E740E6C6E736E7A6A000E4D
:10113000686E690E676E120E7B6E7C6A0EEC06F0AE
:101140005B6A010E5C6EC7EC07F0500E696E6C0EA8
:101150006A6E610E6B6E790E6C6E650E6D6E720E40
:101160006E6E200E6F6E280E706E310E716E290E2F
:10117000726E736A000E686E690E676E0B0E7B6E80
:101180007C6A0EEC06F093EF09F057527BE0FAEC24
:1011900005F02E0E736E746E756E430E696E630EDF
:1011A0006E6E650E6D6E690E706E6E0E6B6E6C6E91
:1011B000726E6F0E6A6E716E740E6F6E766A000ECE
:1011C000686E690E676E0E0E7B6E7C6A0EEC06F022
:1011D0005B6A010E5C6EC7EC07F0200E6F6E2E0E80
:1011E000746E756E766E500E696E610E6C6E716EF9
:1011F000650E6B6E6E6E690E726E6C0E6A6E730E9D
:101200006D6E740E736E770E706E776A000E686E78
:10121000690E676E0F0E7B6E7C6A0EEC06F0300E68
:101220005E6E5F6E616E646E330E676E380E606E5A
:10123000636E686E696E390E626E666E410E5B6E2D
:10124000420E656E440E5D6E540E5C6E6A6A000E50
:101250007B6E5B0E7A6E100E7C6E7D6A010E7E6E6A
:1012600050EC02F09651566E010E5B6E33EC00F0BE
:10127000FAEC05F056505B6E5C6AABEC07F056502A
:10128000576E83D7050E5B6E33EC00F0FAEC05F079
:10129000200E726E430E696E630E6E6E640E716E7A
:1012A000650E6D6E706E6E0E6B6E6C6E6F0E6A6E8E
:1012B000746E740E6F6E736E756A000E686E690ED2
:1012C000676E0D0E7B6E7C6A0EEC06F05B6A010E9B
:1012D0005C6EC7EC07F0700E5B6E6C0E5C6E610EA0
:1012E0005D6E790E5E6E650E5F6E720E606E200E24
:1012F000616E280E626E320E636E290E646E656A30
:10130000000E686E5B0E676E0B0E7B6E7C6A0EECD9
:1013100006F0010E5B6E33EC00F012000F0EC16E92
:10132000990E6CEF08F0C5EC08F0FFD7D50E376EBC
:10133000C40E386EBB0E396EDC0E3A6E3B6A3C6AE8
:101340003D6A3E6A3F6A406A416A426A436A446A49
:10135000456A466A506A516A4B6A4C6A526A536AD5
:10136000546A556A476A486A496A4A6A4E6A4F6AC5
:101370004D6AA50E576E586A596A5A6A8EEF09F07F
:10138000EACF01F0E9CF02F0F4CF03F0F3CF04F09D
:10139000200E9E140001D66F200E9D14D56FD46BC5
:1013A000D553D8A4D653D8A4D42BD45322E0010EBD
:1013B000D56F46EC00F0DE51D46F595219E1320E70
:1013C0005A6016D00A0ED4630AD0010E596E00EE90
:1013D00005F0E9505A50E926000EEF6E09D000EEF4
:1013E00005F0E9505A50E926D451EF6E5A285A6E4A
:1013F0009E9A04C0F3FF03C0F4FF02C0E9FF01C0DE
:04140000EAFF1100EE
:020000040030CA
:0E000000FF32F9FEFF78BAFFFFFFFFFFFFFFA0
:00000001FF
