:020000040000FA
:04000000A7EF02F074
:08000800CDEF02F00000000042
:10001000432EFCD712003A52000001E11200F50E07
:1000200000000000000000000000000000000000D0
:1000300000000000000000000000000000000000C0
:10004000FF0FD8A4EDD70000000000000000000062
:1000500000000000000000000000000000000000A0
:100060003A2EDDD71200436A9290435204E0010E0B
:100070008910806E03D0FE0E8914806E436A9292BE
:10008000435204E0020E8910806E03D0FD0E8914E5
:10009000806E436A9294435204E0040E8910806E8D
:1000A00003D0FB0E8914806E436A9296435204E09B
:1000B000080E8910806E03D0F70E8914806E436A93
:1000C0009298435204E0100E8910806E03D0EF0E18
:1000D0008914806E436A929A435204E0200E89107C
:1000E000806E03D0DF0E8914806E40380F0B426E95
:1000F000010E4214436E9290435204E0010E8910A7
:10010000806E03D0FE0E8914806E4252D890423227
:10011000010E4214436E9292435204E0020E891083
:10012000806E03D0FD0E8914806E4252D890423208
:10013000010E4214436E9294435204E0040E89105F
:10014000806E03D0FB0E8914806E4252D8904232EA
:10015000010E4214436E9296435204E0080E891039
:10016000806E03D0F70E8914806E41A00CD0010E72
:10017000436E9298435204E0100E8910806E03D0B3
:10018000EF0E8914806E640E436E06EC00F0010ED3
:10019000436E929A435204E0200E8910806E03D081
:1001A000DF0E8914806E640E436E06EC00F0436A25
:1001B000929A435204E0200E8910806E03D0DF0E25
:1001C0008914806E640E436E06EC00F0436A9290D0
:1001D000435204E0010E8910806E03D0FE0E891494
:1001E000806E436A9292435204E0020E8910806E40
:1001F00003D0FD0E8914806E436A9294435204E04A
:10020000040E8910806E03D0FB0E8914806E436A41
:100210009296435204E0080E8910806E03D0F70EC8
:100220008914806E436A9298435204E0100E89103C
:10023000806E03D0EF0E8914806E0F0E4014436E53
:100240004350426E010E4214436E9290435204E0BA
:10025000010E8910806E03D0FE0E8914806E42520A
:10026000D8904232010E4214436E9292435204E0FF
:10027000020E8910806E03D0FD0E8914806E4252EA
:10028000D8904232010E4214436E9294435204E0DD
:10029000040E8910806E03D0FB0E8914806E4252CA
:1002A000D8904232010E4214436E9296435204E0BB
:1002B000080E8910806E03D0F70E8914806E41A05D
:1002C0000CD0010E436E9298435204E0100E891038
:1002D000806E03D0EF0E8914806E640E436E06ECC0
:1002E00000F0010E436E929A435204E0200E8910F2
:1002F000806E03D0DF0E8914806E640E436E06ECB0
:1003000000F0436A929A435204E0200E8910806EF6
:1003100003D0DF0E8914806E640E436E06EC00F08D
:100320001200436A4250436009D04150EA6E405087
:100330004324E96EEF5202E0432AF4D74350446E5F
:100340001200010E406E419033EC00F0020E3A6E46
:100350000BEC00F0020E406E419033EC00F0020E08
:100360003A6E0BEC00F012003A6A92903A5204E0B6
:10037000010E8910806E03D0FE0E8914806E3A6AD9
:1003800092923A5204E0020E8910806E03D0FD0E64
:100390008914806E3A6A92943A5204E0040E8910ED
:1003A000806E03D0FB0E8914806E3A6A92963A52A0
:1003B00004E0080E8910806E03D0F70E8914806E59
:1003C0003A6A92983A5204E0100E8910806E03D077
:1003D000EF0E8914806E3A6A929A3A5204E0200E27
:1003E0008910806E03D0DF0E8914806E0C0E3A6E79
:1003F0000BEC00F0330E406E419033EC00F0020E37
:100400003A6E0BEC00F0330E406E419033EC00F08E
:10041000020E3A6E0BEC00F0320E406E419033EC5F
:1004200000F0020E3A6E0BEC00F02C0E406E419084
:1004300033EC00F0020E3A6E0BEC00F0060E406E4C
:10044000419033EC00F0020E3A6E0BEC00F00C0E13
:10045000406E419033EC00F0020E3A6E0BEC00F06F
:10046000010E406E419033EC00F0020E3A6E0BEC40
:1004700000F0020E406E419033EC00F0020E3A6E36
:100480000BEC00F0A1EC01F012003E6A3A50406E15
:100490003B50416E3C50426E91EC01F044503F6E37
:1004A0003F503E6012003B50EA6E3A503E24E96EE7
:1004B000EF50406E418033EC00F03E283E6EF0D7A6
:1004C0000F0EC16EB4EC01F0530E056EEA0E066E0F
:1004D000150E076EFD0E086E000E416E050E406E85
:1004E000140E426E91EC01F04450386E5B0E010127
:1004F000006F385039601BD000EE05F0E9503950DC
:100500003A6E3A50E926EF503B6E01EE00F0E950AA
:100510003950E9263B50EF6E000EE96E39283A6EED
:100520003A50E9262C0EEF6E3928396EE2D701EEEB
:1005300000F0E9503950E9265D0EEF6E010E3B6E7A
:10054000000E3A6E3C683D6A45EC02F0FFD7D50ECE
:10055000196EC40E1A6EBB0E1B6EDC0E1C6E1D6A6D
:100560001E6A1F6A206A216A226A236A246A256A2F
:10057000266A276A286A326A336A2D6A2E6A346AC2
:10058000356A366A376A296A2A6A2B6A2C6A306A9F
:10059000316A2F6A396A60EF02F0EACF01F0E9CFE1
:1005A00002F0F4CF03F0F3CF04F004C0F3FF03C074
:0C05B000F4FF02C0E9FF01C0EAFF1100E7
:020000040030CA
:0E000000FF32F9FEFFFBBAFFFFFFFFFFFFFF1D
:00000001FF
