:020000040000FA
:04000000F9EF05F01F
:080008004CEF06F0B6530000B6
:1000100001E11200F50E00000000000000000000E9
:1000200000000000000000000000000000000000D0
:10003000000000000000FF0FD8A4EDD70000000072
:1000400000000000000000000000000000000000B0
:10005000000000000000B62FDDD7120000000000F5
:10006000B52FFCD71200FA0EB66F06EC00F0FA0EB0
:10007000B66F06EC00F0FA0EB66F06EC00F0FA0E62
:10008000B66F06EC00F0B52FEED71200100E9E14DE
:10009000CA6FCA53FBE0C851AD6E1200C969CA6B82
:1000A000CB6BCC6BCD6BD06BC82902E1010ECC6F52
:1000B000CD5324E1CC5318E1C85303E1010ECD6FB9
:1000C00013D0CE6BCF6B310ECE5D05E2CF6703D080
:1000D000CE4BCF2BF8D7CA29CA6F640ECA6304D09F
:1000E000C805C86F0400CA6B200E9E14D16FD15191
:1000F000CB6FCB53DDE0020ECD6FDAD7020ECD63AE
:1001000018D0040EAB14D16FD151CB6FCB5303E099
:10011000AE50D06F0ED0020EAB14D16FD151CB6F59
:10012000CB5303E0AB98AB8804D0C96BAE50C91178
:10013000C96FC951D16FD26B1200AB6AAC6A1200A1
:10014000C1534DE1C2534BE1700EC86FC96B46EC11
:1001500000F0C86BC96B46EC00F0C8694EEC00F0CB
:10016000720EC86FC96B46EC00F0BA51C86FC96B0C
:1001700046EC00F0B951C86FBA51C96F46EC00F0B7
:10018000BC51C86FC96B46EC00F0BB51C86FBC5185
:10019000C96F46EC00F0BE51C86FC96B46EC00F069
:1001A000BD51C86FBE51C96F46EC00F0C051C86F59
:1001B000C96B46EC00F0BF51C86FC051C96F46EC27
:1001C00000F09351C86FC96B46EC00F09251C86FB4
:1001D0009351C96F46EC00F0C8694EEC00F0700E08
:1001E000C86FC96B46EC00F0C25305E0C86BC96B21
:1001F00046EC00F005D0010EC86FC96B46EC00F06C
:10020000C8694EEC00F0720EC86FC96B46EC00F086
:10021000BA51C86FC96B46EC00F0B951C86FBA51FA
:10022000C96F46EC00F0BC51C86FC96B46EC00F0DA
:10023000BB51C86FBC51C96F46EC00F0BE51C86FCE
:10024000C96B46EC00F0BD51C86FBE51C96F46EC9A
:1002500000F0C051C86FC96B46EC00F0BF51C86FC9
:10026000C051C96F46EC00F09551C86FC96B46ECA0
:1002700000F09451C86F9551C96F46EC00F0C86901
:100280004EEC00F01200B933B933B9331F0EB91771
:10029000BA33BA333F0EBA17BB33BB33BB331F0E6F
:1002A000BB17BA51BC6F956BBC379537BC379537C8
:1002B000BC379537BC379537BC379537E00EBC1740
:1002C000BC51BB11946FBC6BB951BD6FD890BD3799
:1002D000D890BD37D890BD37BC519413BD519513FC
:1002E0001200AC847F0EAF6EAB6AAB8EAC8AAB886B
:1002F0009D9A1200070EB56501D01200B55304E1B6
:10030000B669010EB76F2FD0B50505E17F0EB66F48
:10031000010EB76F28D0020EB56303D0B669B76B74
:1003200022D0030EB56304D07F0EB66FB76B1BD01F
:10033000040EB56304D03F0EB66FB76B14D0050E34
:10034000B56304D01F0EB66FB76B0DD0060EB56344
:1003500004D0140EB66FB76B06D0070EB56303D08A
:100360000A0EB66FB76B9DEC00F0B70502E1AC94D6
:1003700001D0AC84B651AF6EAB6AAB8EAC8AAB88A1
:100380009D9A1200B851EA6EB751E96EB951EF105B
:10039000BB6FBB51EF6EB651EA6EB551E96EB95104
:1003A000EF14BB6FBA51BC6FD8B41200D890BB33F6
:1003B000BC07FAD7320EB96FBA6FBB6F43EC01F0CE
:1003C000B151B96FB251BA6FB551BB6FB651BC6F75
:1003D000B351BD6FB451BE6FB751BF6FB851C06F4D
:1003E000C16B010EC26FA0EC00F01200BA6BBB6BC8
:1003F000010EBC6FBD6B010EBE6FBF6B4C0EC86FA4
:10040000C96B46EC00F0B351C86FC96B46EC00F005
:10041000B251C86FB351C96F46EC00F0B551C86F07
:10042000C96B46EC00F0B451C86FB551C96F46ECCA
:1004300000F0B751C86FC96B46EC00F0B651C86FF9
:10044000B751C96F46EC00F0B951C86FC96B46ECA3
:1004500000F0B851C86FB951C96F46EC00F0955122
:10046000C86FC96B46EC00F09451C86F9551C96FC5
:1004700046EC00F0C8694EEC00F012000001B56BCC
:10048000B66BB76BB86B420EC86FC96B46EC00F029
:100490009351C86FC96B46EC00F09251C86F9351ED
:1004A000C96F46EC00F0C8694EEC00F0450EC86F0D
:1004B000C96B46EC00F0C8694EEC00F01200180E53
:1004C00000018A6F8B6B180E846F856B8A51B26F37
:1004D0008B51B36FB46BB56B8A51B66F8B51B76FDD
:1004E000F00EB86FB96BF6EC01F0B26B180E8A27FC
:1004F0008B51B223B2518B6FB16BF00E8A6303D074
:100500008B51D8B4B12BB153E1E0B26BB36B8451D2
:10051000B46F8551B56FF00EB66FB76B8451B86F7D
:100520008551B96FF6EC01F0B26B180E8427855136
:10053000B223B251856FB16BF00E8465856701D02F
:10054000B12BB153E2E1120000018E51B16F8F5116
:10055000B26F180E8E5DB36F8E5918088F5DB46F31
:100560008C51B56F8D51B66F180E8C5DB76F8C596D
:1005700018088D5DB86FDAEC01F01200CB6BCA5130
:10058000CB6109D0C951EA6EC851CB25E96EEF5253
:1005900002E0CB2BF4D7CB51CC6F12006F0E0001D1
:1005A000C86FC96B46EC00F0040EC86FC96B46EC0F
:1005B00000F0C8694EEC00F0C8694EEC00F0D15173
:1005C000B26FC8694EEC00F0C8694EEC00F0B2534F
:1005D00032E06F0EC86FC96B46EC00F0050EC86FB5
:1005E000C96B46EC00F0C8694EEC00F0D151986F31
:1005F000D251996FC8694EEC00F0D151B16FB36B15
:100600009851996FB351986FB15198139953C86924
:100610004EEC00F0D151966FD251976FC8694EECF5
:1006200000F0D151B16FB36B9651976FB351966F84
:10063000B15196139753B251B36F1200590E000186
:10064000C86FC96B46EC00F0050EC86FC96B46EC6D
:1006500000F0C86BC96B46EC00F0C8694EEC00F0C6
:10066000D151B16F590EC86FC96B46EC00F0050E41
:10067000C86FC96B46EC00F0020EC86FC96B46EC40
:1006800000F0C8694EEC00F0D151B16F060EB163B5
:1006900002D0B16B01D0B169B151B26F1200590EE5
:1006A0000001C86FC96B46EC00F0050EC86FC96B3E
:1006B00046EC00F0010EC86FC96B46EC00F0C8694B
:1006C0004EEC00F0D151B16F060EB16302D0B16BA8
:1006D00001D0B169B151B26F12000001B56B949AAB
:1006E000B55304E0200E8B10826E03D0DF0E8B1406
:1006F000826E71EC01F0640EB56F2EEC00F00F0EFF
:10070000B66F820EB56F0F0EB86F940EB76F200ED6
:10071000B96F050EBA6FC2EC01F0BB51B46F030E96
:10072000B56F33EC00F0C86B4EEC00F0C86B4EECCC
:1007300000F0C86B4EEC00F0550EC86FC96B46EC6C
:1007400000F0C8694EEC00F0510EC86FC96B46EC62
:1007500000F00C0EC86FC96B46EC00F0C8694EEC97
:1007600000F0060EB56F7AEC01F00A0EC86F4EEC81
:1007700000F00A0EC86F4EEC00F0B16BB133B1332C
:10078000B1331F0EB117B26BB233B2333F0EB21793
:10079000B36BB333B333B3331F0EB317B251B56F6B
:1007A000956BB5379537B5379537B5379537B53735
:1007B0009537B5379537E00EB517B551B311946F2E
:1007C000B56BB151B66FD890B637D890B637D890D0
:1007D000B637B5519413B6519513B169B133B133EE
:1007E000B1331F0EB117B269B233B2333F0EB21735
:1007F000B369B333B333B3331F0EB317B251B56F0D
:10080000936BB5379337B5379337B5379337B537DC
:100810009337B5379337E00EB517B551B311926FD3
:10082000B56BB151B66FD890B637D890B637D8906F
:10083000B637B5519213B65193133EEC02F00A0E3F
:10084000C86F4EEC00F00A0EC86F4EEC00F01200BC
:10085000B26BB36BB15307E0780EB16301D003D034
:10086000580EB16304D09851B26F9951B36FB1056E
:1008700007E0790EB16301D003D0590EB16304D003
:100880009651B26F9751B36FB251B46FB351B56F08
:1008900012004FEC03F01EEC03F01200CEEC02F05D
:1008A000B351A56F12000001B16B28EC04F0B451F4
:1008B000906FB551916F010EB16F28EC04F0B451F7
:1008C000886FB551896F120000EE05F0E950000104
:1008D000A451B26FB251E926EF50B36F050EE96E25
:1008E000A451E926B351EF6EA429A46FB16B640E35
:1008F000A46301D0B12BB153E7E000EE05F0E9505D
:10090000A451B16FB151E926EF50B26F050EE96EF7
:10091000A751E926B251EF6E6DEC03F03EEC02F008
:100920005FEC02F01200010E0001A46F180E8C6F34
:100930008D6B180E8E6F8F6B010E865D3AE28767A6
:1009400038D08D51895D02E18C51885D27E28F514D
:10095000915D02E18E51905D09E3A429A46FB26B11
:10096000180E8E278F51B223B2518F6F8653875343
:10097000862BD8B4872BB16B8F51915D04E18E51DA
:10098000906101D001D0D8A0B171B153E0E0A4ECE6
:1009900002F08E6B8F6B8C6B8D6BCED70A0EA425FD
:1009A000A46FB16B180E8C278D51B123B1518D6F8F
:1009B000C3D7866B876B00EE05F0E950A751E92697
:1009C000A451EF6E050EE96EA751E926B16BB12B6C
:1009D000050EE96EA751E926B151EF6E1200FF0E28
:1009E000B165B26701D00CD0B66906EC00F0FF0E1D
:1009F000B15DB36FB159FF08B25FB351B16FEFD7BB
:100A0000000EB165B26701D01200B151B66F06ECAD
:100A100000F01200C76B4F0EC86FC96B46EC00F0B8
:100A2000C55305E0C86BC96B46EC00F005D0010E5C
:100A3000C86FC96B46EC00F0C8694EEC00F0530E6D
:100A4000C86FC96B46EC00F0C151C86FC96B46EC6A
:100A500000F0C051C86FC151C96F46EC00F0C351DE
:100A6000C86FC96B46EC00F0C251C86FC351C96F63
:100A700046EC00F0C451C86FC96B46EC00F09551CC
:100A8000C86FC96B46EC00F09451C86F9551C96F9F
:100A900046EC00F0010EC86FC96B46EC00F0010E89
:100AA000C86FC96B46EC00F0B151C86FB251C96F45
:100AB000BE51CA6FBEEC02F0CC51C66FC651C761C1
:100AC00014D0B251EA6EB151C725E96EEF520DE074
:100AD000B251EA6EB151C725E96EEF50C86FC96BCC
:100AE00046EC00F0C729C76FE9D7C86BC96B46EC65
:100AF00000F0C8694EEC00F012000F0EC16E64ECFD
:100B000004F049EC04F0A55303E14EEC04F0FBD7EC
:100B100053EC04F093EC04F0A56B00EE05F0E95003
:100B2000A751E926EF0422E1540EB36F6F0EB46FA4
:100B3000750EB56F630EB66F680EB76F650EB86F42
:100B4000B96B000EB26FB30EB16F070EBE6FBF6B05
:100B5000780EC06FC16B040EC26F010EC36F020E20
:100B6000C46F010EC56F0AEC05F027D0200EB66FDA
:100B7000540EB76F630EBA6F650EBC6F680EBB6F15
:100B80006E0EB36FB56F6F0EB46FB86F750EB96F31
:100B9000BD6B000EB26FB30EB16F0B0EBE6FBF6BAD
:100BA000780EC06FC16B040EC26F010EC36F020ED0
:100BB000C46F010EC56F0AEC05F0F40EB16F010EA3
:100BC000B26FEFEC04F0B969BA69BB6943EC01F0AC
:100BD000B96BBA6BF10EBB6FBC6BF00EBD6FBE6B29
:100BE000400EBF6F010EC06FC16FC26FA0EC00F06E
:100BF00088D7D50E6A6EC40E6B6EBB0E6C6EDC0EA3
:100C00006D6E6E6A6F6A706A716A726A736A746A0C
:100C1000756A766A776A786A796A00019D6B9E6B5D
:100C20007E6A7F6A9F6BA06BA16BA26B7A6A7B6AFC
:100C30007C6A7D6A9B6B9C6B9A6B180E846F856BCC
:100C4000A36B866B876B886B896B010EA46F180E84
:100C50008A6F8B6B180E8C6F8D6B180E8E6F8F6B6F
:100C6000906B916BA56BA66BA76B000EA86F010E26
:100C7000A96F020EAA6F030EAB6F040EAC6F050EC8
:100C8000AD6F060EAE6F070EAF6F806B816B826B20
:100C9000836BB06B7DEF05F0EACF01F0E9CF02F096
:100CA000F4CF03F0F3CF04F004C0F3FF03C0F4FF6C
:0A0CB00002C0E9FF01C0EAFF1100D5
:020000040030CA
:0E000000FF32FFFEFFFBBAFFFFFFFFFFFFFF17
:00000001FF
