:020000040000FA
:04000000D5EF03F045
:0800080010EF04F03B52000070
:1000100001E11200F50E00000000000000000000E9
:1000200000000000000000000000000000000000D0
:10003000000000000000FF0FD8A4EDD70000000072
:1000400000000000000000000000000000000000B0
:100050000000000000003B2EDDD712000000000071
:100060003A2EFCD71200FA0E3B6E06EC00F0FA0EA8
:100070003B6E06EC00F0FA0E3B6E06EC00F0FA0E5A
:100080003B6E06EC00F03A2EEED71200636A646A0B
:10009000656A666A656A666A57505B02F350636E0A
:1000A000F450646E58505B02F3506426F45065229D
:1000B000D8B0662A59505B02F3506526F450662288
:1000C0005A505B02F350662657505C02F350642688
:1000D000F4506522D8B0662A58505C02F350652669
:1000E000F450662259505C02F350662657505D0268
:1000F000F3506526F450662258505D02F350662690
:1001000057505E02F350662612005F6A606A616AA9
:10011000626A656A666A676A686A636A200E63145F
:10012000646E64661200D890653666366736683647
:100130005736583659365A365F366036613662362B
:100140005E50625C08E15D50615C05E15C50605CA2
:1001500002E15B505F5C09E35B505F5E5C50605A9C
:100160005D50615A5E50625A6580632AD7D7100E7F
:100170009E14526E5252FBE05050AD6E1200516808
:10018000526A536A546A556A586A502802E1010E4D
:10019000546E555224E1545218E1505203E1010EBD
:1001A000556E13D0566A576A310E565C05E2576693
:1001B00003D0564A572AF8D75228526E640E52621C
:1001C00004D05004506E0400526A200E9E14596EE2
:1001D0005950536E5352DDE0020E556EDAD7020EBF
:1001E000556218D0040EAB14596E5950536E5352C9
:1001F00003E0AE50586E0ED0020EAB14596E59503B
:10020000536E535203E0AB98AB8804D0516AAE50A2
:100210005110516E5150596E5A6A1200AB6AAC6A55
:100220001200536A5250536009D05150EA6E505038
:100230005324E96EEF5202E0532AF4D75350546E20
:100240001200AC847F0EAF6EAB6AAB8EAC8AAB880B
:100250009D9A1200070E3A6401D012003A5204E14E
:100260003B68010E3C6E2FD03A0405E17F0E3B6ED9
:10027000010E3C6E28D0020E3A6203D03B683C6A05
:1002800022D0030E3A6204D07F0E3B6E3C6A1BD034
:10029000040E3A6204D03F0E3B6E3C6A14D0050E49
:1002A0003A6204D01F0E3B6E3C6A0DD0060E3A62D5
:1002B00004D0140E3B6E3C6A06D0070E3A6203D09F
:1002C0000A0E3B6E3C6A0EEC01F03C0402E1AC9479
:1002D00001D0AC843B50AF6EAB6AAB8EAC8AAB88BE
:1002E0009D9A12003D50EA6E3C50E96E3E50EF1070
:1002F000406E4050EF6E3B50EA6E3A50E96E3E5011
:10030000EF14406E3F50416ED8B41200D890403286
:100310004106FAD744504C6E45504D6E46504E6ED5
:1003200047504F6E506ACA0E516E9A0E526E3B0E77
:10033000536E546A4A5205E14850556E4950566E04
:1003400012004FAE14D04950EA6E4850E96E576A19
:100350005750E9262D0EEF6E542A4C1E4D1E4E1E90
:100360004F1E4C3E04D04D3E02D04E4A4F2A4B6A9F
:100370004C504D104E104F10FF0B06E1010E4B6E0E
:10038000506E516A526A536A4A50546072D0535048
:10039000000808E15250000805E15150000802E150
:1003A0005050000866E253504F5C08E152504E5CDA
:1003B00005E151504D5C02E150504C5C02E24B5261
:1003C00040E04C50576E4D50586E4E50596E4F5045
:1003D0005A6E50505B6E51505C6E52505D6E535071
:1003E0005E6E85EC00F065504B6E4B50300F576ED3
:1003F0004950EA6E48505424E96E5750EF6E542A23
:100400004B50576E586A596A5A6A50505B6E515039
:100410005C6E52505D6E53505E6E46EC00F0635061
:100420005F6E6450606E6550616E6650626E5F50C4
:100430004C5E60504D5A61504E5A62504F5A010EF8
:100440004B6E5050576E5150586E5250596E53501B
:100450005A6E0A0E5B6E5C6A5D6A5E6A85EC00F03D
:100460006550506E6650516E6750526E6850536EB4
:100470008BD74A50546007D04950EA6E48505424F4
:10048000E96E000EEF6E4850556E4950566E1200E0
:100490003A6A3B6A3C6A3D6A420E506E516AB7EC5A
:1004A00000F02050506E516AB7EC00F01F50506EB3
:1004B0002050516EB7EC00F05068BFEC00F0450ED4
:1004C000506E516AB7EC00F05068BFEC00F01200BB
:1004D0004F6A4F0E506E516AB7EC00F04D5205E076
:1004E000506A516AB7EC00F005D0010E506E516AA7
:1004F000B7EC00F05068BFEC00F0530E506E516A3C
:10050000B7EC00F04950506E516AB7EC00F048501B
:10051000506E4950516EB7EC00F04B50506E516A1E
:10052000B7EC00F04A50506E4B50516EB7EC00F0F3
:100530004C50506E516AB7EC00F02250506E516A28
:10054000B7EC00F02150506E2250516EB7EC00F025
:10055000010E506E516AB7EC00F0010E506E516AF8
:10056000B7EC00F04450506E4550516E4650526EFC
:1005700011EC01F054504E6E4E504F6014D0455067
:10058000EA6E44504F24E96EEF520DE04550EA6E9A
:1005900044504F24E96EEF50506E516AB7EC00F0B2
:1005A0004F284F6EE9D7506A516AB7EC00F0506897
:1005B000BFEC00F012003A6A949A3A5204E0200E1E
:1005C0008B10826E03D0DF0E8B14826E21EC01F053
:1005D000640E3A6E2EEC00F00F0E3B6E820E3A6EF9
:1005E0000F0E3D6E940E3C6E200E3E6E050E3F6E5D
:1005F00072EC01F04050396E030E3A6E33EC00F0AD
:10060000506ABFEC00F0506ABFEC00F0506ABFECDB
:1006100000F0550E506E516AB7EC00F05068BFEC18
:1006200000F0510E506E516AB7EC00F00C0E506E97
:10063000516AB7EC00F05068BFEC00F0060E3A6E5D
:100640002AEC01F00A0E506EBFEC00F00A0E506E5C
:10065000BFEC00F0366A3632363236321F0E3616AE
:10066000376A373237323F0E3716386A3832383207
:1006700038321F0E381637503A6E226A3A36223612
:100680003A3622363A3622363A3622363A3622364A
:10069000E00E3A163A503810216E3A6A36503B6EE8
:1006A000D8903B36D8903B36D8903B363A50211202
:1006B0003B50221236683632363236321F0E36162C
:1006C0003768373237323F0E3716386838323832AB
:1006D00038321F0E381637503A6E206A3A362036B6
:1006E0003A3620363A3620363A3620363A362036F2
:1006F000E00E3A163A5038101F6E3A6A36503B6E8A
:10070000D8903B36D8903B36D8903B363A501F12A3
:100710003B50201248EC02F00A0E506EBFEC00F085
:100720000A0E506EBFEC00F012003650446E375087
:10073000456E466A476A37AE02D046064706000E47
:10074000496E3E0E486E060E4A6E8AEC01F0000EAF
:10075000456E3E0E446E060E466E476A3850486E31
:100760003950496E3A504A6E3B504B6E3C504C6E7D
:100770003D504D6E68EC02F012000F0EC16EDBECC6
:1007800002F048EC02F02C50366E376A6E0E386E6E
:10079000396AA00E3A6E3B6A020E3C6E010E3D6E47
:1007A00095EC03F02C282C6EECD7D50E056EC40EFC
:1007B000066EBB0E076EDC0E086E096A0A6A0B6ACB
:1007C0000C6A0D6A0E6A0F6A106A116A126A136A5D
:1007D000146A266A276A1D6A1E6A286A296A2A6AB2
:1007E0002B6A156A166A176A186A246A256A236AC8
:1007F0002C6A000E2D6E010E2E6E020E2F6E030E51
:10080000306E040E316E050E326E060E336E070E1C
:10081000346E196A1A6A1B6A1C6A356ABDEF03F0E6
:10082000EACF01F0E9CF02F0F4CF03F0F3CF04F008
:1008300004C0F3FF03C0F4FF02C0E9FF01C0EAFFF8
:020840001100A5
:020000040030CA
:0E000000FF32F9FEFF79BAFFFFFFFFFFFFFF9F
:00000001FF
