:020000040000FA
:040000000CEF09F008
:0800080046EF09F0445200002C
:1000100001E11200F50E00000000000000000000E9
:1000200000000000000000000000000000000000D0
:10003000000000000000FF0FD8A4EDD70000000072
:1000400000000000000000000000000000000000B0
:10005000000000000000442EDDD712000000000068
:10006000432EFCD71200FA0E446E06EC00F0FA0E96
:10007000446E06EC00F0FA0E446E06EC00F0FA0E48
:10008000446E06EC00F0432EEED71200100E9E14C4
:100090004F6E4F52FBE04D50AD6E12004E684F6AEE
:1000A000506A516A526A556A4D2802E1010E516E3A
:1000B000525224E1515218E14D5203E1010E526EA9
:1000C00013D0536A546A310E535C05E2546603D070
:1000D000534A542AF8D74F284F6E640E4F6204D00B
:1000E0004D044D6E04004F6A200E9E14566E5650FD
:1000F000506E5052DDE0020E526EDAD7020E52629E
:1001000018D0040EAB14566E5650506E505203E089
:10011000AE50556E0ED0020EAB14566E5650506E49
:10012000505203E0AB98AB8804D04E6AAE504E10EC
:100130004E6E4E50566E576A1200AB6AAC6A120091
:10014000AC847F0EAF6EAB6AAB8EAC8AAB889D9AE7
:100150001200070E436401D01200435204E14468C8
:10016000010E456E2FD0430405E17F0E446E010E53
:10017000456E28D0020E436203D04468456A22D0FF
:10018000030E436204D07F0E446E456A1BD0040EFA
:10019000436204D03F0E446E456A14D0050E43629C
:1001A00004D01F0E446E456A0DD0060E436204D083
:1001B000140E446E456A06D0070E436203D00A0E41
:1001C000446E456A9DEC00F0450402E1AC9401D018
:1001D000AC844450AF6EAB6AAB8EAC8AAB889D9A50
:1001E00012004650EA6E4550E96E4750EF10496ED6
:1001F0004950EF6E4450EA6E4350E96E4750EF1499
:10020000496E48504A6ED8B41200D89049324A0616
:10021000FAD7476A486A010E496E4A6A010E4B6E68
:100220004C6A4C0E4D6E4E6A46EC00F040504D6EDE
:100230004E6A46EC00F03F504D6E40504E6E46EC1C
:1002400000F042504D6E4E6A46EC00F041504D6E4B
:1002500042504E6E46EC00F044504D6E4E6A46ECF5
:1002600000F043504D6E44504E6E46EC00F0465048
:100270004D6E4E6A46EC00F045504D6E46504E6E47
:1002800046EC00F026504D6E4E6A46EC00F02550CC
:100290004D6E26504E6E46EC00F04D684EEC00F070
:1002A0001200436A446A456A466A420E4D6E4E6ABF
:1002B00046EC00F024504D6E4E6A46EC00F02350A0
:1002C0004D6E24504E6E46EC00F04D684EEC00F042
:1002D000450E4D6E4E6A46EC00F04D684EEC00F057
:1002E0001200180E3F6E406A416A426A180E436E51
:1002F000446AF00E456E466A09EC01F0300E3F6E1E
:10030000406A416A426A300E436E446AF00E456E9E
:10031000466A09EC01F0480E3F6E406A416A426A43
:10032000480E436E446AF00E456E466A09EC01F0D1
:10033000600E3F6E406A416A426A600E436E446AD4
:10034000F00E456E466A09EC01F0780E3F6E406A89
:10035000416A426A780E436E446AF00E456E466A00
:1003600009EC01F0900E3F6E406A416A426A900EBD
:10037000436E446AF00E456E466A09EC01F0A80E21
:100380003F6E406A416A426AA80E436E446AF00EAC
:10039000456E466A09EC01F0C00E3F6E406A416A44
:1003A000426AC00E436E446AF00E456E466A09EC1E
:1003B00001F0D80E3F6E406A416A426AD80E436E21
:1003C000446AF00E456E466A09EC01F0F00E3F6E8D
:1003D000406A416A426AF00E436E446AF00E456E0E
:1003E000466A09EC01F012003F6A406A180E416E3D
:1003F000426AF00E436E446A180E456E466A09EC76
:1004000001F03F6A406A300E416E426AF00E436E60
:10041000446A300E456E466A09EC01F03F6A406A54
:10042000480E416E426AF00E436E446A480E456EB5
:10043000466A09EC01F03F6A406A600E416E426A0A
:10044000F00E436E446A600E456E466A09EC01F098
:100450003F6A406A780E416E426AF00E436E446A0B
:10046000780E456E466A09EC01F03F6A406A900ECC
:10047000416E426AF00E436E446A900E456E466AC3
:1004800009EC01F03F6A406AA80E416E426AF00E24
:10049000436E446AA80E456E466A09EC01F03F6A55
:1004A000406AC00E416E426AF00E436E446AC00E4E
:1004B000456E466A09EC01F03F6A406AD80E416E0B
:1004C000426AF00E436E446AD80E456E466A09ECE5
:1004D00001F03F6A406AF00E416E426AF00E436ED0
:1004E000446AF00E456E466A09EC01F01200180EDF
:1004F0001F5C05E2206603D0040E346E1200300E3D
:100500001F5C05E2206603D00E0E346E1200480E0A
:100510001F5C05E2206603D0180E346E1200600ED8
:100520001F5C05E2206603D0220E346E1200780EA6
:100530001F5C05E2206603D02C0E346E1200900E74
:100540001F5C05E2206603D0360E346E1200A80E42
:100550001F5C05E2206603D0400E346E1200C00E10
:100560001F5C05E2206603D04A0E346E1200D80EDE
:100570001F5C05E2206603D0540E346E1200F00EAC
:100580001F5CD8B01200206612005E0E346E12009E
:10059000180E1F5C05E2206603D0030E346E1200B5
:1005A000300E1F5C05E2206603D00D0E346E120083
:1005B000480E1F5C05E2206603D0170E346E120051
:1005C000600E1F5C05E2206603D0210E346E12001F
:1005D000780E1F5C05E2206603D02B0E346E1200ED
:1005E000900E1F5C05E2206603D0350E346E1200BB
:1005F000A80E1F5C05E2206603D03F0E346E120089
:10060000C00E1F5C05E2206603D0490E346E120056
:10061000D80E1F5C05E2206603D0530E346E120024
:10062000F00E1F5CD8B01200206612005D0E346E12
:100630001200180E1F5C05E2206603D0020E346E15
:100640001200300E1F5C05E2206603D00C0E346EE3
:100650001200480E1F5C05E2206603D0160E346EB1
:100660001200600E1F5C05E2206603D0200E346E7F
:100670001200780E1F5C05E2206603D02A0E346E4D
:100680001200900E1F5C05E2206603D0340E346E1B
:100690001200A80E1F5C05E2206603D03E0E346EE9
:1006A0001200C00E1F5C05E2206603D0480E346EB7
:1006B0001200D80E1F5C05E2206603D0520E346E85
:1006C0001200F00E1F5CD8B01200206612005C0E03
:1006D000346E1200180E1F5C05E2206603D0010E76
:1006E000346E1200300E1F5C05E2206603D00B0E44
:1006F000346E1200480E1F5C05E2206603D0150E12
:10070000346E1200600E1F5C05E2206603D01F0EDF
:10071000346E1200780E1F5C05E2206603D0290EAD
:10072000346E1200900E1F5C05E2206603D0330E7B
:10073000346E1200A80E1F5C05E2206603D03D0E49
:10074000346E1200C00E1F5C05E2206603D0470E17
:10075000346E1200D80E1F5C05E2206603D0510EE5
:10076000346E1200F00E1F5CD8B01200206612002A
:100770005B0E346E1200180E1F5C05E2206603D07B
:100780000A0E346E1200300E1F5C05E2206603D0A4
:10079000140E346E1200480E1F5C05E2206603D072
:1007A0001E0E346E1200600E1F5C05E2206603D040
:1007B000280E346E1200780E1F5C05E2206603D00E
:1007C000320E346E1200900E1F5C05E2206603D0DC
:1007D0003C0E346E1200A80E1F5C05E2206603D0AA
:1007E000460E346E1200C00E1F5C05E2206603D078
:1007F000500E346E1200D80E1F5C05E2206603D046
:100800005A0E346E1200F00E1F5CD8B01200206633
:100810001200640E346E1200180E1F5C05E2206692
:1008200003D0090E346E1200300E1F5C05E2206604
:1008300003D0130E346E1200480E1F5C05E22066D2
:1008400003D01D0E346E1200600E1F5C05E22066A0
:1008500003D0270E346E1200780E1F5C05E220666E
:1008600003D0310E346E1200900E1F5C05E220663C
:1008700003D03B0E346E1200A80E1F5C05E220660A
:1008800003D0450E346E1200C00E1F5C05E22066D8
:1008900003D04F0E346E1200D80E1F5C05E22066A6
:1008A00003D0590E346E1200F00E1F5CD8B0120047
:1008B00020661200630E346E1200180E1F5C05E2F3
:1008C000206603D0080E346E1200300E1F5C05E265
:1008D000206603D0120E346E1200480E1F5C05E233
:1008E000206603D01C0E346E1200600E1F5C05E201
:1008F000206603D0260E346E1200780E1F5C05E2CF
:10090000206603D0300E346E1200900E1F5C05E29C
:10091000206603D03A0E346E1200A80E1F5C05E26A
:10092000206603D0440E346E1200C00E1F5C05E238
:10093000206603D04E0E346E1200D80E1F5C05E206
:10094000206603D0580E346E1200F00E1F5CD8B033
:10095000120020661200620E346E1200180E1F5C28
:1009600005E2206603D0070E346E1200300E1F5CC5
:1009700005E2206603D0110E346E1200480E1F5C93
:1009800005E2206603D01B0E346E1200600E1F5C61
:1009900005E2206603D0250E346E1200780E1F5C2F
:1009A00005E2206603D02F0E346E1200900E1F5CFD
:1009B00005E2206603D0390E346E1200A80E1F5CCB
:1009C00005E2206603D0430E346E1200C00E1F5C99
:1009D00005E2206603D04D0E346E1200D80E1F5C67
:1009E00005E2206603D0570E346E1200F00E1F5C35
:1009F000D8B0120020661200610E346E1200180E7C
:100A00001F5C05E2206603D0060E346E1200300E25
:100A10001F5C05E2206603D0100E346E1200480EF3
:100A20001F5C05E2206603D01A0E346E1200600EC1
:100A30001F5C05E2206603D0240E346E1200780E8F
:100A40001F5C05E2206603D02E0E346E1200900E5D
:100A50001F5C05E2206603D0380E346E1200A80E2B
:100A60001F5C05E2206603D0420E346E1200C00EF9
:100A70001F5C05E2206603D04C0E346E1200D80EC7
:100A80001F5C05E2206603D0560E346E1200F00E95
:100A90001F5CD8B0120020661200600E346E120087
:100AA000180E1F5C05E2206603D0050E346E12009E
:100AB000300E1F5C05E2206603D00F0E346E12006C
:100AC000480E1F5C05E2206603D0190E346E12003A
:100AD000600E1F5C05E2206603D0230E346E120008
:100AE000780E1F5C05E2206603D02D0E346E1200D6
:100AF000900E1F5C05E2206603D0370E346E1200A4
:100B0000A80E1F5C05E2206603D0410E346E120071
:100B1000C00E1F5C05E2206603D04B0E346E12003F
:100B2000D80E1F5C05E2206603D0550E346E12000D
:100B3000F00E1F5CD8B01200206612005F0E346EFB
:100B400012006F0E4D6E4E6A46EC00F0040E4D6EB4
:100B50004E6A46EC00F04D684EEC00F04D684EECED
:100B600000F05650406E4D684EEC00F04D684EEC73
:100B700000F0405232E06F0E4D6E4E6A46EC00F0CF
:100B8000050E4D6E4E6A46EC00F04D684EEC00F0DE
:100B90005650296E57502A6E4D684EEC00F0565054
:100BA0003F6E416A29502A6E4150296E3F502912EA
:100BB0002A524D684EEC00F05650276E5750286E62
:100BC0004D684EEC00F056503F6E416A2750286E3B
:100BD0004150276E3F50271228524050416E12005C
:100BE000590E4D6E4E6A46EC00F0050E4D6E4E6A83
:100BF00046EC00F04D6A4E6A46EC00F04D684EEC53
:100C000000F056503F6E590E4D6E4E6A46EC00F0A5
:100C1000050E4D6E4E6A46EC00F0020E4D6E4E6AA9
:100C200046EC00F04D684EEC00F056503F6E060E5C
:100C30003F6202D03F6A01D03F683F50406E1200D1
:100C4000590E4D6E4E6A46EC00F0050E4D6E4E6A22
:100C500046EC00F0010E4D6E4E6A46EC00F04D6819
:100C60004EEC00F056503F6E060E3F6202D03F6AD7
:100C700001D03F683F50406E1200436A949A43523D
:100C800004E0200E8B10826E03D0DF0E8B14826E78
:100C9000A0EC00F0640E436E2EEC00F00F0E446EDC
:100CA000820E436E0F0E466E940E456E200E476EFA
:100CB000050E486EF1EC00F04950426E030E436E93
:100CC00033EC00F04D6A4EEC00F04D6A4EEC00F053
:100CD0004D6A4EEC00F0550E4D6E4E6A46EC00F03B
:100CE0004D684EEC00F0510E4D6E4E6A46EC00F031
:100CF0000C0E4D6E4E6A46EC00F04D684EEC00F066
:100D0000060E436EA9EC00F00A0E4D6E4EEC00F09C
:100D10000A0E4D6E4EEC00F03F6A3F323F323F32DA
:100D20001F0E3F16406A403240323F0E4016416A65
:100D30004132413241321F0E41164050436E266A05
:100D4000433626364336263643362636433626364F
:100D500043362636E00E431643504110256E436A53
:100D60003F50446ED8904436D8904436D89044369C
:100D700043502512445026123F683F323F323F32E3
:100D80001F0E3F164068403240323F0E4016416809
:100D90004132413241321F0E41164050436E246AA7
:100DA00043362436433624364336243643362436F7
:100DB00043362436E00E431643504110236E436AF7
:100DC0003F50446ED8904436D8904436D89044363C
:100DD000435023124450241251EC01F00A0E4D6E80
:100DE0004EEC00F00A0E4D6E4EEC00F0120020ECBE
:100DF00006F0F0EC05F01200A1EC05F04150356E64
:100E000012003DEC06F051EC01F0F4EC01F071EC55
:100E100001F01200180E215C05E2226603D06AEC94
:100E200003F01200300E215C05E2226603D019ECBB
:100E300003F01200480E215C05E2226603D0C8ECE4
:100E400002F01200600E215C05E2226603D077EC0E
:100E500002F01200780E215C05E2226603D050EC0D
:100E600005F01200900E215C05E2226603D0FFEC33
:100E700004F01200A80E215C05E2226603D0AEEC5D
:100E800004F01200C00E215C05E2226603D05DEC86
:100E900004F01200D80E215C05E2226603D00CECAF
:100EA00004F01200F00E215CD8B01200226612008D
:100EB000BBEC03F0120047524DE148524BE1700E7B
:100EC0004D6E4E6A46EC00F04D6A4E6A46EC00F0FC
:100ED0004D684EEC00F0720E4D6E4E6A46EC00F01E
:100EE00040504D6E4E6A46EC00F03F504D6E405003
:100EF0004E6E46EC00F042504D6E4E6A46EC00F0ED
:100F000041504D6E42504E6E46EC00F044504D6ED6
:100F10004E6A46EC00F043504D6E44504E6E46EC27
:100F200000F046504D6E4E6A46EC00F045504D6E56
:100F300046504E6E46EC00F024504D6E4E6A46EC24
:100F400000F023504D6E24504E6E46EC00F04D687C
:100F50004EEC00F0700E4D6E4E6A46EC00F04852BA
:100F600005E04D6A4E6A46EC00F005D0010E4D6E6C
:100F70004E6A46EC00F04D684EEC00F0720E4D6E7D
:100F80004E6A46EC00F040504D6E4E6A46EC00F062
:100F90003F504D6E40504E6E46EC00F042504D6E4C
:100FA0004E6A46EC00F041504D6E42504E6E46EC9B
:100FB00000F044504D6E4E6A46EC00F043504D6ECA
:100FC00044504E6E46EC00F046504D6E4E6A46EC74
:100FD00000F045504D6E46504E6E46EC00F02650E7
:100FE0004D6E4E6A46EC00F025504D6E26504E6E0A
:100FF00046EC00F04D684EEC00F01200406A416A89
:101000003F5207E0780E3F6201D003D0580E3F6296
:1010100004D02950406E2A50416E3F0407E0790EFB
:101020003F6201D003D0590E3F6204D02750406E7A
:101030002850416E4050426E4150436E12000F0ED8
:10104000C16E01EC07F0F7EC06F0355203E1FCEC61
:1010500006F0FBD73F6AFEEC07F04250216E43508A
:10106000226E010E3F6EFEEC07F042501F6E4350A1
:10107000206E0AEC07F0340424E00B0E346201D039
:1010800030D0150E346201D03DD01F0E346201D035
:101090004AD0290E346201D057D0330E346201D0C9
:1010A00064D03D0E346201D071D0470E346201D05D
:1010B0007ED0510E346201D08BD05B0E3462A9D049
:1010C00098D03F6A406A416A426A180E436E446A89
:1010D000180E456E466A476A010E486E5BEC07F0D3
:1010E00098D03F6A406A180E416E426A180E436EED
:1010F000446A300E456E466A476A010E486E5BECE4
:1011000007F087D03F6A406A300E416E426A180E7F
:10111000436E446A480E456E466A476A010E486E41
:101120005BEC07F076D03F6A406A480E416E426A37
:10113000180E436E446A600E456E466A476A010E99
:10114000486E5BEC07F065D03F6A406A600E416E06
:10115000426A180E436E446A780E456E466A476AC4
:10116000010E486E5BEC07F054D03F6A406A780E7F
:10117000416E426A180E436E446A900E456E466A8E
:10118000476A010E486E5BEC07F043D03F6A406A45
:10119000900E416E426A180E436E446AA80E456E68
:1011A000466A476A010E486E5BEC07F032D03F6A30
:1011B000406AA80E416E426A180E436E446AC00E21
:1011C000456E466A476A010E486E5BEC07F021D017
:1011D0003F6A406AC00E416E426A180E436E446A0E
:1011E000D80E456E466A476A010E486E5BEC07F002
:1011F00010D03F6A406AD80E416E426A180E436EA4
:10120000446AF00E456E466A476A010E486E5BEC12
:1012100007F0356A346A17D7D50E056EC40E066E10
:10122000BB0E076EDC0E086E096A0A6A0B6A0C6A4E
:101230000D6A0E6A0F6A106A116A126A136A146ADA
:101240002E6A2F6A1D6A1E6A306A316A326A336AF0
:10125000156A166A176A186A2C6A2D6A2B6A000EBC
:10126000366E010E376E020E386E030E396E040EA6
:101270003A6E050E3B6E060E3C6E070E3D6E196A09
:101280001A6A1B6A1C6A3E6A1FEF08F0EACF01F077
:10129000E9CF02F0F4CF03F0F3CF04F004C0F3FF82
:0E12A00003C0F4FF02C0E9FF01C0EAFF110025
:020000040030CA
:0E000000FF32FFFEFFFBBAFFFFFFFFFFFFFF17
:00000001FF
