:020000040000FA
:040000003CEF03F0DE
:0800080076EF03F03A5200000C
:1000100001E11200F50E00000000000000000000E9
:1000200000000000000000000000000000000000D0
:10003000000000000000FF0FD8A4EDD70000000072
:1000400000000000000000000000000000000000B0
:100050000000000000003A2EDDD712000000000072
:10006000392EFCD71200FA0E3A6E06EC00F0FA0EAA
:100070003A6E06EC00F0FA0E3A6E06EC00F0FA0E5C
:100080003A6E06EC00F0392EEED71200100E9E14D8
:10009000456E4552FBE04350AD6E12004468456A20
:1000A000466A476A486A4B6A432802E1010E476E76
:1000B000485224E1475218E1435203E1010E486ED1
:1000C00013D0496A4A6A310E495C05E24A6603D098
:1000D000494A4A2AF8D74528456E640E456204D03D
:1000E0004304436E0400456A200E9E144C6E4C502F
:1000F000466E4652DDE0020E486EDAD7020E4862C6
:1001000018D0040EAB144C6E4C50466E465203E0B1
:10011000AE504B6E0ED0020EAB144C6E4C50466E71
:10012000465203E0AB98AB8804D0446AAE5044100A
:10013000446E44504C6E4D6A1200AB6AAC6A1200B9
:10014000AC847F0EAF6EAB6AAB8EAC8AAB889D9AE7
:100150001200070E396401D01200395204E13A68E6
:10016000010E3B6E2FD0390405E17F0E3A6E010E71
:100170003B6E28D0020E396203D03A683B6A22D027
:10018000030E396204D07F0E3A6E3B6A1BD0040E18
:10019000396204D03F0E3A6E3B6A14D0050E3962C4
:1001A00004D01F0E3A6E3B6A0DD0060E396204D0A1
:1001B000140E3A6E3B6A06D0070E396203D00A0E5F
:1001C0003A6E3B6A9DEC00F03B0402E1AC9401D036
:1001D000AC843A50AF6EAB6AAB8EAC8AAB889D9A5A
:1001E00012003C50EA6E3B50E96E3D50EF103F6EFE
:1001F0003F50EF6E3A50EA6E3950E96E3D50EF14C1
:100200003F6E3E50406ED8B41200D8903F32400648
:10021000FAD7396A3A6A3B6A3C6A420E436E446ACC
:1002200046EC00F02050436E446A46EC00F01F504C
:10023000436E2050446E46EC00F043684EEC00F0F4
:10024000450E436E446A46EC00F043684EEC00F005
:1002500012003D6A3E6A010E3F6E406A010E416E19
:10026000426A4C0E436E446A46EC00F03650436ED0
:10027000446A46EC00F03550436E3650446E46EC0E
:1002800000F03850436E446A46EC00F03750436E3D
:100290003850446E46EC00F03A50436E446A46ECE7
:1002A00000F03950436E3A50446E46EC00F03C503A
:1002B000436E446A46EC00F03B50436E3C50446E43
:1002C00046EC00F02250436E446A46EC00F02150A8
:1002D000436E2250446E46EC00F043684EEC00F052
:1002E0001200356A366A180E376E386AF00E396EAB
:1002F0003A6A180E3B6E3C6A29EC01F0356A366AA0
:10030000300E376E386AF00E396E3A6A300E3B6E38
:100310003C6A29EC01F0356A366A480E376E386A55
:10032000F00E396E3A6A480E3B6E3C6A29EC01F0D9
:10033000356A366A600E376E386AF00E396E3A6A80
:10034000600E3B6E3C6A29EC01F0356A366A780E25
:10035000376E386AF00E396E3A6A780E3B6E3C6A38
:1003600029EC01F0356A366A900E376E386AF00E65
:10037000396E3A6A900E3B6E3C6A29EC01F0356AA0
:10038000366AA80E376E386AF00E396E3A6AA80ED1
:100390003B6E3C6A29EC01F0356A366AC00E376E56
:1003A000386AF00E396E3A6AC00E3B6E3C6A29EC30
:1003B00001F0356A366AD80E376E386AF00E396E3B
:1003C0003A6AD80E3B6E3C6A29EC01F0356A366A0F
:1003D000F00E376E386AF00E396E3A6AF00E3B6EE8
:1003E0003C6A29EC01F01200180E356E366A376A45
:1003F000386A180E396E3A6AF00E3B6E3C6A29EC88
:1004000001F0300E356E366A376A386A300E396E52
:100410003A6AF00E3B6E3C6A29EC01F0480E356EEC
:10042000366A376A386A480E396E3A6AF00E3B6EA1
:100430003C6A29EC01F0600E356E366A376A386A1C
:10044000600E396E3A6AF00E3B6E3C6A29EC01F0A0
:10045000780E356E366A376A386A780E396E3A6ABF
:10046000F00E3B6E3C6A29EC01F0900E356E366A58
:10047000376A386A900E396E3A6AF00E3B6E3C6A03
:1004800029EC01F0A80E356E366A376A386AA80E74
:10049000396E3A6AF00E3B6E3C6A29EC01F0C00EF0
:1004A000356E366A376A386AC00E396E3A6AF00EAF
:1004B0003B6E3C6A29EC01F0D80E356E366A376A1D
:1004C000386AD80E396E3A6AF00E3B6E3C6A29ECF7
:1004D00001F0F00E356E366A376A386AF00E396E02
:1004E0003A6AF00E3B6E3C6A29EC01F01200396A60
:1004F000949A395204E0200E8B10826E03D0DF0EE6
:100500008B14826EA0EC00F0640E396E2EEC00F0BD
:100510000F0E3A6E820E396E0F0E3C6E940E3B6ECD
:10052000200E3D6E050E3E6EF1EC00F03F50386E31
:10053000030E396E33EC00F0436A4EEC00F0436A70
:100540004EEC00F0436A4EEC00F0550E436E446AE8
:1005500046EC00F043684EEC00F0510E436E446AE6
:1005600046EC00F00C0E436E446A46EC00F0436823
:100570004EEC00F0060E396EA9EC00F00A0E436E48
:100580004EEC00F00A0E436E4EEC00F0356A353248
:10059000353235321F0E3516366A363236323F0E58
:1005A0003616376A3732373237321F0E3716365023
:1005B000396E226A393622363936223639362236B3
:1005C0003936223639362236E00E39163950371090
:1005D000216E396A35503A6ED8903A36D8903A360C
:1005E000D8903A36395021123A50221235683532B5
:1005F000353235321F0E35163668363236323F0EFA
:10060000361637683732373237321F0E37163650C4
:10061000396E206A3936203639362036393620365A
:100620003936203639362036E00E39163950371033
:100630001F6E396A35503A6ED8903A36D8903A36AD
:10064000D8903A3639501F123A50201209EC01F076
:100650000A0E436E4EEC00F00A0E436E4EEC00F0B4
:1006600012000F0EC16E77EC02F009EC01F071EC94
:1006700001F0F4EC01F0FBD7D50E056EC40E066E4A
:10068000BB0E076EDC0E086E096A0A6A0B6A0C6AFA
:100690000D6A0E6A0F6A106A116A126A136A146A86
:1006A000266A276A1D6A1E6A286A296A2A6A2B6ACC
:1006B000156A166A176A186A246A256A236A000E80
:1006C0002C6E010E2D6E020E2E6E030E2F6E040E7A
:1006D000306E050E316E060E326E070E336E196ADD
:1006E0001A6A1B6A1C6A346A31EF03F0EACF01F020
:1006F000E9CF02F0F4CF03F0F3CF04F004C0F3FF2E
:0E07000003C0F4FF02C0E9FF01C0EAFF1100D0
:020000040030CA
:0E000000FF32FFFEFFFBBAFFFFFFFFFFFFFF17
:00000001FF
