:020000040000FA
:040000008AEF05F08E
:08000800CBEF05F00000000041
:10001000542EFCD712004452000001E11200F50EEC
:1000200000000000000000000000000000000000D0
:1000300000000000000000000000000000000000C0
:10004000FF0FD8A4EDD70000000000000000000062
:1000500000000000000000000000000000000000A0
:10006000442EDDD71200FA0E446E0BEC00F0FA0EAF
:10007000446E0BEC00F0FA0E446E0BEC00F0FA0E3E
:10008000446E0BEC00F0432EEED712006A6A6B6AE6
:100090006C6A6D6A6C6A6D6A5E506202F3506A6ED9
:1000A000F4506B6E5F506202F3506B26F4506C227A
:1000B000D8B06D2A60506202F3506C26F4506D2265
:1000C00061506202F3506D265E506302F3506B265E
:1000D000F4506C22D8B06D2A5F506302F3506C2646
:1000E000F4506D2260506302F3506D265E5064023E
:1000F000F3506C26F4506D225F506402F3506D266D
:100100005E506502F3506D261200666A676A686A7F
:10011000696A6C6A6D6A6E6A6F6A6A6A200E6A142E
:100120006B6E6B661200D8906C366D366E366F361D
:100130005E365F36603661366636673668366936F3
:100140006550695C08E16450685C05E16350675C78
:1001500002E16250665C09E36250665E6350675A72
:100160006450685A6550695A6C806A2AD7D7100E55
:100170009E14496E4952FBE04750AD6E120048682C
:10018000496A4A6A4B6A4C6A4F6A472802E1010E83
:100190004B6E4C5224E14B5218E1475203E1010EE1
:1001A0004C6E13D04D6A4E6A310E4D5C05E24E66C0
:1001B00003D04D4A4E2AF8D74928496E640E496249
:1001C00004D04704476E0400496A200E9E14506E06
:1001D00050504A6E4A52DDE0020E4C6EDAD7020EE3
:1001E0004C6218D0040EAB14506E50504A6E4A52F6
:1001F00003E0AE504F6E0ED0020EAB14506E505056
:100200004A6E4A5203E0AB98AB8804D0486AAE50BD
:100210004810486E4850506E516A1200AB6AAC6A82
:100220001200546A5350546009D05250EA6E515033
:100230005424E96EEF5202E0542AF4D75450556E1C
:100240001200546A9390545204E0010E8A10816E99
:1002500003D0FE0E8A14816E546A9392545204E0C5
:10026000020E8A10816E03D0FD0E8A14816E546ACC
:100270009394545204E0040E8A10816E03D0FB0E56
:100280008A14816E546A9396545204E0080E8A10C0
:10029000816E03D0F70E8A14816E546A939854527B
:1002A00004E0100E8A10816E03D0EF0E8A14816E66
:1002B000546A939A545204E0200E8A10816E03D03F
:1002C000DF0E8A14816E51380F0B536E010E5314DA
:1002D000546E9390545204E0010E8A10816E03D044
:1002E000FE0E8A14816E5352D8905332010E53146D
:1002F000546E9392545204E0020E8A10816E03D021
:10030000FD0E8A14816E5352D8905332010E53144D
:10031000546E9394545204E0040E8A10816E03D0FC
:10032000FB0E8A14816E5352D8905332010E53142F
:10033000546E9396545204E0080E8A10816E03D0D6
:10034000F70E8A14816E52A00CD0010E546E939851
:10035000545204E0100E8A10816E03D0EF0E8A14FE
:10036000816E640E546E06EC00F0010E546E939A8A
:10037000545204E0200E8A10816E03D0DF0E8A14DE
:10038000816E640E546E06EC00F0546A939A5452D7
:1003900004E0200E8A10816E03D0DF0E8A14816E75
:1003A000640E546E06EC00F0546A9390545204E0CC
:1003B000010E8A10816E03D0FE0E8A14816E546A7B
:1003C0009392545204E0020E8A10816E03D0FD0E07
:1003D0008A14816E546A9394545204E0040E8A1075
:1003E000816E03D0FB0E8A14816E546A9396545228
:1003F00004E0080E8A10816E03D0F70E8A14816E15
:10040000546A9398545204E0100E8A10816E03D0FF
:10041000EF0E8A14816E0F0E5114546E5450536EA9
:10042000010E5314546E9390545204E0010E8A103E
:10043000816E03D0FE0E8A14816E5352D8905332CF
:10044000010E5314546E9392545204E0020E8A101B
:10045000816E03D0FD0E8A14816E5352D8905332B0
:10046000010E5314546E9394545204E0040E8A10F7
:10047000816E03D0FB0E8A14816E5352D890533292
:10048000010E5314546E9396545204E0080E8A10D1
:10049000816E03D0F70E8A14816E52A00CD0010E2B
:1004A000546E9398545204E0100E8A10816E03D05B
:1004B000EF0E8A14816E640E546E06EC00F0010E8D
:1004C000546E939A545204E0200E8A10816E03D029
:1004D000DF0E8A14816E640E546E06EC00F0546ACE
:1004E000939A545204E0200E8A10816E03D0DF0EDE
:1004F0008A14816E640E546E06EC00F01200AC8417
:100500007F0EAF6EAB6AAB8EAC8AAB889D9A120041
:10051000070E436401D01200435204E14468010E07
:10052000456E2FD0430405E17F0E446E010E456EEB
:1005300028D0020E436203D04468456A22D0030EDD
:10054000436204D07F0E446E456A1BD0040E4362A2
:1005500004D03F0E446E456A14D0050E436204D0A9
:100560001F0E446E456A0DD0060E436204D0140E71
:10057000446E456A06D0070E436203D00A0E446EED
:10058000456A0EEC01F0450402E1AC9401D0AC8464
:100590004450AF6EAB6AAB8EAC8AAB889D9A1200AA
:1005A0004650EA6E4550E96E4750EF10496E49508B
:1005B000EF6E4450EA6E4350E96E4750EF14496EB7
:1005C00048504A6ED8B41200D89049324A06FAD739
:1005D0004B50536E4C50546E4D50556E4E50566E9F
:1005E000576ACA0E586E9A0E596E3B0E5A6E5B6A67
:1005F000515205E14F505C6E50505D6E120056AE88
:1006000014D05050EA6E4F50E96E5E6A5E50E92693
:100610002D0EEF6E5B2A531E541E551E561E533E62
:1006200004D0543E02D0554A562A526A53505410B0
:1006300055105610FF0B06E1010E526E576E586AA8
:10064000596A5A6A51505B6072D05A50000808E1EA
:100650005950000805E15850000802E157500008C1
:1006600066E25A50565C08E15950555C05E1585015
:10067000545C02E15750535C02E2525240E0535046
:100680005E6E54505F6E5550606E5650616E57509E
:10069000626E5850636E5950646E5A50656E85ECA8
:1006A00000F06C50526E5250300F5E6E5050EA6E39
:1006B0004F505B24E96E5E50EF6E5B2A52505E6EC7
:1006C0005F6A606A616A5750626E5850636E595033
:1006D000646E5A50656E46EC00F06A50666E6B5060
:1006E000676E6C50686E6D50696E6650535E6750F1
:1006F000545A6850555A6950565A010E526E575006
:100700005E6E58505F6E5950606E5A50616E0A0EA0
:10071000626E636A646A656A85EC00F06C50576EBD
:100720006D50586E6E50596E6F505A6E8BD7515037
:100730005B6007D05050EA6E4F505B24E96E000EAC
:10074000EF6E4F505C6E50505D6E1200436A446A0B
:10075000456A466A420E476E486AB7EC00F024507C
:10076000476E486AB7EC00F02350476E2450486E3D
:10077000B7EC00F04768BFEC00F0450E476E486AE2
:10078000B7EC00F04768BFEC00F012004F6A4B5026
:10079000516E4C50526E4D50536E11EC01F055504D
:1007A000506E50504F6012004C50EA6E4B504F2428
:1007B000E96EEF50516E528021EC01F04F284F6EE0
:1007C000F0D7436A949A435204E0200E8B10826E55
:1007D00003D0DF0E8B14826E7FEC02F0640E546E39
:1007E00006EC00F00F0E446E820E436E0F0E466E46
:1007F000940E456E200E476E050E486ED0EC02F04A
:100800004950426E030E436E33EC00F0476ABFEC72
:1008100000F0476ABFEC00F0476ABFEC00F0550EED
:10082000476E486AB7EC00F04768BFEC00F0510E25
:10083000476E486AB7EC00F00C0E476E486AB7EC9A
:1008400000F04768BFEC00F0060E436E88EC02F043
:100850000A0E476EBFEC00F00A0E476EBFEC00F0C8
:100860003F6A3F323F323F321F0E3F16406A4032EE
:1008700040323F0E4016416A4132413241321F0E32
:1008800041164050436E266A433626364336263696
:10089000433626364336263643362636E00E431692
:1008A00043504110256E436A3F50446ED890443601
:1008B000D8904436D89044364350251244502612DE
:1008C0003F683F323F323F321F0E3F164068403292
:1008D00040323F0E401641684132413241321F0ED4
:1008E00041164050436E246A43362436433624363C
:1008F000433624364336243643362436E00E431638
:1009000043504110236E436A3F50446ED8904436A2
:10091000D8904436D8904436435023124450241281
:10092000A6EC03F00A0E476EBFEC00F00A0E476E0D
:10093000BFEC00F01200590E476E486AB7EC00F0A9
:10094000050E476E486AB7EC00F0476A486AB7EC94
:1009500000F04768BFEC00F050503F6E590E476EF4
:10096000486AB7EC00F0050E476E486AB7EC00F035
:10097000020E476E486AB7EC00F04768BFEC00F023
:1009800050503F6E060E3F6202D03F6A01D03F6872
:100990003F50406E12006F0E476E486AB7EC00F091
:1009A000040E476E486AB7EC00F04768BFEC00F0F1
:1009B0004768BFEC00F05050406E4768BFEC00F055
:1009C0004768BFEC00F0405232E06F0E476E486A55
:1009D000B7EC00F0050E476E486AB7EC00F04768C8
:1009E000BFEC00F05050296E51502A6E4768BFECA2
:1009F00000F050503F6E416A29502A6E4150296ED6
:100A00003F5029122A524768BFEC00F05050276E21
:100A10005150286E4768BFEC00F050503F6E416A5D
:100A20002750286E4150276E3F50271228524050C1
:100A3000416E1200406A416A3F5207E0780E3F6201
:100A400001D003D0580E3F6204D02950406E2A5086
:100A5000416E3F0407E0790E3F6201D003D0590E8A
:100A60003F6204D02750406E2850416E4050426E85
:100A70004150436E12003F504B6E40504C6E4D6AD9
:100A80004E6A40AE02D04D064E06000E506E410E2C
:100A90004F6E0A0E516EE8EC02F0000E4C6E410EE5
:100AA0004B6E0A0E4D6E4E6AC6EC03F01200010E3C
:100AB000516E529021EC01F0020E446E0BEC00F0EE
:100AC000020E516E529021EC01F0020E446E0BECBE
:100AD00000F012000F0EC16EE1EC03F09BEC04F08D
:100AE000CBEC04F04150216E226A010E3F6E1AECED
:100AF00005F042501F6E4350206E57EC05F01F501A
:100B00003F6E2050406E3BEC05F01F6A206A216A60
:100B1000226AE6D7D50E056EC40E066EBB0E076EB2
:100B2000DC0E086E096A0A6A0B6A0C6A0D6A0E6AA4
:100B30000F6A106A116A126A136A146A2E6A2F6A9F
:100B40001D6A1E6A306A316A326A336A156A166A29
:100B5000176A186A2C6A2D6A2B6A346A1F6A206A1F
:100B6000216A226A010E356E000E366E010E376E56
:100B7000020E386E030E396E040E3A6E050E3B6E91
:100B8000060E3C6E070E3D6E196A1A6A1B6A1C6AD5
:100B90003E6A6AEF05F0EACF01F0E9CF02F0F4CF48
:100BA00003F0F3CF04F004C0F3FF03C0F4FF02C06E
:080BB000E9FF01C0EAFF11009A
:020000040030CA
:0E000000FF32F9FEFF79BAFFFFFFFFFFFFFF9F
:00000001FF
