:020000040000FA
:04000000A0EF08F075
:08000800F4EF08F0B75300000B
:1000100001E11200F50E00000000000000000000E9
:1000200000000000000000000000000000000000D0
:10003000000000000000FF0FD8A4EDD70000000072
:1000400000000000000000000000000000000000B0
:10005000000000000000B72FDDD7120000000000F4
:10006000B62FFCD71200FA0EB76F06EC00F0FA0EAE
:10007000B76F06EC00F0FA0EB76F06EC00F0FA0E60
:10008000B76F06EC00F0B62FEED71200100E9E14DC
:10009000F66FF653FBE0F451AD6E1200F569F66BA6
:1000A000F76BF86BF96BFC6BF42902E1010EF86F4A
:1000B000F95324E1F85318E1F45303E1010EF96F09
:1000C00013D0FA6BFB6B310EFA5D05E2FB6703D0D0
:1000D000FA4BFB2BF8D7F629F66F640EF66304D0C3
:1000E000F405F46F0400F66B200E9E14FD6FFD51B5
:1000F000F76FF753DDE0020EF96FDAD7020EF963FE
:1001000018D0040EAB14FD6FFD51F76FF75303E0E9
:10011000AE50FC6F0ED0020EAB14FD6FFD51F76FA9
:10012000F75303E0AB98AB8804D0F56BAE50F511F4
:10013000F56FF551FD6FFE6B1200AB6AAC6A1200F1
:10014000C6534DE1C7534BE1700EF46FF56B46ECAF
:1001500000F0F46BF56B46EC00F0F4694EEC00F047
:10016000720EF46FF56B46EC00F0BF51F46FF56B57
:1001700046EC00F0BE51F46FBF51F56F46EC00F055
:10018000C151F46FF56B46EC00F0C051F46FC151F2
:10019000F56F46EC00F0C351F46FF56B46EC00F0E0
:1001A000C251F46FC351F56F46EC00F0C551F46FC6
:1001B000F56B46EC00F0C451F46FC551F56F46EC99
:1001C00000F09351F46FF56B46EC00F09251F46F30
:1001D0009351F56F46EC00F0F4694EEC00F0700EB0
:1001E000F46FF56B46EC00F0C75305E0F46BF56B6C
:1001F00046EC00F005D0010EF46FF56B46EC00F014
:10020000F4694EEC00F0720EF46FF56B46EC00F002
:10021000BF51F46FF56B46EC00F0BE51F46FBF5167
:10022000F56F46EC00F0C151F46FF56B46EC00F051
:10023000C051F46FC151F56F46EC00F0C351F46F3B
:10024000F56B46EC00F0C251F46FC351F56F46EC0C
:1002500000F0C551F46FF56B46EC00F0C451F46F3B
:10026000C551F56F46EC00F09551F46FF56B46EC17
:1002700000F09451F46F9551F56F46EC00F0F4697D
:100280004EEC00F01200BE33BE33BE331F0EBE175D
:10029000BF33BF333F0EBF17C033C033C0331F0E51
:1002A000C017BF51C16F956BC1379537C1379537AF
:1002B000C1379537C1379537C1379537E00EC1172C
:1002C000C151C011946FC16BBE51C26FD890C2377B
:1002D000D890C237D890C237C1519413C2519513E8
:1002E0001200AC847F0EAF6EAB6AAB8EAC8AAB886B
:1002F0009D9A1200070EB66501D01200B65304E1B4
:10030000B769010EB86F2FD0B60505E17F0EB76F44
:10031000010EB86F28D0020EB66303D0B769B86B70
:1003200022D0030EB66304D07F0EB76FB86B1BD01C
:10033000040EB66304D03F0EB76FB86B14D0050E31
:10034000B66304D01F0EB76FB86B0DD0060EB66340
:1003500004D0140EB76FB86B06D0070EB66303D087
:100360000A0EB76FB86B9DEC00F0B80502E1AC94D3
:1003700001D0AC84B751AF6EAB6AAB8EAC8AAB88A0
:100380009D9A1200B951EA6EB851E96EBA51EF1058
:10039000BC6FBC51EF6EB751EA6EB651E96EBA51FF
:1003A000EF14BC6FBB51BD6FD8B41200D890BC33F2
:1003B000BD07FAD7BB51BE6FBC51BF6FBD51C06FF7
:1003C00043EC01F0B351BE6FB451BF6FB751C06F72
:1003D000B851C16FB551C26FB651C36FB951C46F37
:1003E000BA51C56FC66B010EC76FA0EC00F01200CA
:1003F000F76BF651F76109D0F551EA6EF451F72524
:10040000E96EEF5202E0F72BF4D7F751F86F1200C4
:10041000BB6BBC6B010EBD6FBE6B010EBF6FC06BC3
:100420004C0EF46FF56B46EC00F0B451F46FF56BC5
:1004300046EC00F0B351F46FB451F56F46EC00F0A8
:10044000B651F46FF56B46EC00F0B551F46FB65150
:10045000F56F46EC00F0B851F46FF56B46EC00F028
:10046000B751F46FB851F56F46EC00F0BA51F46F24
:10047000F56B46EC00F0B951F46FBA51F56F46ECEC
:1004800000F09551F46FF56B46EC00F09451F46F69
:100490009551F56F46EC00F0F4694EEC00F0120057
:1004A0000001B66BB76BB86BB96B420EF46FF56BAE
:1004B00046EC00F09351F46FF56B46EC00F092516E
:1004C000F46F9351F56F46EC00F0F4694EEC00F0D8
:1004D000450EF46FF56B46EC00F0F4694EEC00F05D
:1004E0001200180E00018A6F8B6B180E846F856BDB
:1004F0008A51B36F8B51B46FB56BB66B8A51B76FBE
:100500008B51B86FF00EB96FBA6B08EC02F0B36B99
:10051000180E8A278B51B323B3518B6FB26BF00E39
:100520008A6303D08B51D8B4B22BB253E1E0B36BE2
:10053000B46B8451B56F8551B66FF00EB76FB86B61
:100540008451B96F8551BA6F08EC02F0B36B180E85
:1005500084278551B323B351856FB26BF00E846548
:10056000856701D0B22BB253E2E1120000018E5137
:10057000B36F8F51B46F180E8E5DB56F8E5918081A
:100580008F5DB66F8C51B76F8D51B86F180E8C5D43
:10059000B96F8C5918088D5DBA6F460EBB6FBC6F72
:1005A000BD6FDAEC01F012000001BE69BF69C069DD
:1005B00043EC01F0BE6BBF6BF10EC06FC16BF00E70
:1005C000C26FC36B400EC46F010EC56FC66FC76F9D
:1005D000A0EC00F0BE6BBF6BC06B43EC01F01200EF
:1005E0006F0E0001F46FF56B46EC00F0040EF46F33
:1005F000F56B46EC00F0F4694EEC00F0F4694EEC5B
:1006000000F0FD51B46FF4694EEC00F0F4694EEC6B
:1006100000F0B45332E06F0EF46FF56B46EC00F06F
:10062000050EF46FF56B46EC00F0F4694EEC00F04B
:10063000FD51986FFE51996FF4694EEC00F0FD5139
:10064000B36FB56B9851996FB551986FB3519813BB
:100650009953F4694EEC00F0FD51966FFE51976F7F
:10066000F4694EEC00F0FD51B36FB56B9651976F86
:10067000B551966FB35196139753B451B56F12009D
:10068000590E0001F46FF56B46EC00F0050EF46FA7
:10069000F56B46EC00F0F46BF56B46EC00F0F4699A
:1006A0004EEC00F0FD51B36F590EF46FF56B46EC54
:1006B00000F0050EF46FF56B46EC00F0020EF46FDF
:1006C000F56B46EC00F0F4694EEC00F0FD51B36FB1
:1006D000060EB36302D0B36B01D0B369B351B46FEC
:1006E0001200590E0001F46FF56B46EC00F0050E98
:1006F000F46FF56B46EC00F0010EF46FF56B46EC11
:1007000000F0F4694EEC00F0FD51B36F060EB363D8
:1007100002D0B36B01D0B369B351B46F1200F36B65
:100720004F0EF46FF56B46EC00F0F15305E0F46BFF
:10073000F56B46EC00F005D0010EF46FF56B46EC5E
:1007400000F0F4694EEC00F0530EF46FF56B46ECDC
:1007500000F0ED51F46FF56B46EC00F0EC51F46FE6
:10076000ED51F56F46EC00F0EF51F46FF56B46EC90
:1007700000F0EE51F46FEF51F56F46EC00F0F051E0
:10078000F46FF56B46EC00F09551F46FF56B46ECA9
:1007900000F09451F46F9551F56F46EC00F0010EA6
:1007A000F46FF56B46EC00F0010EF46FF56B46EC60
:1007B00000F0B351F46FB451F56FEA51F66FF8ECF5
:1007C00001F0F851F26FF251F36114D0B451EA6EB6
:1007D000B351F325E96EEF520DE0B451EA6EB35117
:1007E000F325E96EEF50F46FF56B46EC00F0F3295A
:1007F000F36FE9D7F46BF56B46EC00F0F4694EEC5F
:1008000000F012000001B66B949AB65304E0200E7B
:100810008B10826E03D0DF0E8B14826E71EC01F0B0
:10082000640EB66F2EEC00F00F0EB76F820EB66F2F
:100830000F0EB96F940EB86F200EBA6F050EBB6F16
:10084000C2EC01F0BC51B56F030EB66F33EC00F093
:10085000F46B4EEC00F0F46B4EEC00F0F46B4EECED
:1008600000F0550EF46FF56B46EC00F0F4694EECB9
:1008700000F0510EF46FF56B46EC00F00C0EF46FC7
:10088000F56B46EC00F0F4694EEC00F0060EB66F26
:100890007AEC01F00A0EF46F4EEC00F00A0EF46FE1
:1008A0004EEC00F0B26BB233B233B2331F0EB2175C
:1008B000B36BB333B3333F0EB317B46BB433B4334A
:1008C000B4331F0EB417B351B66F956BB637953767
:1008D000B6379537B6379537B6379537B637953734
:1008E000E00EB617B651B411946FB66BB251B76F34
:1008F000D890B737D890B737D890B737B651941348
:10090000B7519513B269B233B233B2331F0EB21777
:10091000B369B333B3333F0EB317B469B433B433ED
:10092000B4331F0EB417B351B66F936BB63793370A
:10093000B6379337B6379337B6379337B6379337DB
:10094000E00EB617B651B411926FB66BB251B76FD5
:10095000D890B737D890B737D890B737B6519213E9
:10096000B751931350EC02F00A0EF46F4EEC00F006
:100970000A0EF46F4EEC00F01200B46BB56BB3537B
:1009800007E0780EB36301D003D0580EB36304D0F0
:100990009851B46F9951B56FB30507E0790EB36301
:1009A00001D003D0590EB36304D09651B46F975160
:1009B000B56FB451B66FB551B76F1200010E00019B
:1009C000A46F180E8C6F8D6B180E8E6F8F6B010ECF
:1009D000865D34E2876732D08D51895D02E18C51AA
:1009E000885D21E28F51915D02E18E51905D09E3B6
:1009F000A429A46FB36B180E8E278F51B323B35164
:100A00008F6F86538753862BD8B4872BB26B8F5149
:100A1000915D04E18E51906101D001D0D8A0B271F6
:100A2000B253E0E00BD00A0EA425A46FB26B180EEF
:100A30008C278D51B223B2518D6FC9D700EE05F0CE
:100A4000E950A851E926EF0458E18E51B36F8F5158
:100A5000B46F180E8E5DB56F8E5918088F5DB66F26
:100A60008C51B76F8D51B86F180E8C5DB96F8C5962
:100A700018088D5DBA6FBB69BC6BBD6BDAEC01F019
:100A8000200EB56FB66FB76FB86FB96FBA6FBB6F27
:100A9000BC6FBD6FBE6FBF6FC06FC76FC86FC96FD0
:100AA000540EC16F630EC46F650EC66F680EC56FBE
:100AB0006F0EC26F750EC36FCA6B000EB46FB50EAA
:100AC000B36F160EEA6FEB6BEC6BED6BF10EEE6F26
:100AD000EF6B020EF06F010EF16F8FEC03F000EE82
:100AE00005F0E950A851E926B26BB22B050EE96E6C
:100AF000A451E926B251EF6E4AD08E51B36F8F5197
:100B0000B46F180E8E5DB56F8E5918088F5DB66F75
:100B10008C51B76F8D51B86F180E8C5DB96F8C59B1
:100B200018088D5DBA6FBB6BBC6BBD6BDAEC01F066
:100B3000200EB56FB66FB76FB86FB96FBA6FBB6F76
:100B4000BC6FBD6FBE6FBF6FC06FC76FC86FC96F1F
:100B50004D0EC16F610EC26F650EC66F6E0EC36F14
:100B6000710EC46F750EC56FCA6B000EB46FB50EF3
:100B7000B36F160EEA6FEB6BEC6BED6BF10EEE6F75
:100B8000EF6B020EF06F010EF16F8FEC03F08E6BC6
:100B90008F6B8C6B8D6B866B876B120071EC03F027
:100BA00040EC03F01200F0EC02F0B551A56F12001A
:100BB000050E0001A76101D08FD1D4EC02F0090E1F
:100BC000A76101D041D1D4EC02F00C0EA76101D095
:100BD000E1D0D4EC02F00F0EA76101D08DD0D4EC9F
:100BE00002F0110EA76101D03BD0200EB56FB66F99
:100BF000B76FB86FBB6FC36FC66FCD6FCF6F320E5D
:100C0000CE6F450EB96F610EBC6F640EC46F650E7A
:100C1000BF6FC26FCA6F6A0EC76F6E0EBA6FC06FBA
:100C20006F0EC86F720ECC6F740EBD6FBE6FC16F4A
:100C3000750EC56FC96FCB6FD06B000EB46FB50E5C
:100C4000B36F1C0EEA6FEB6BEC6BED6BF10EEE6F9E
:100C5000EF6B020EF06F010EF16F8FEC03F01200DC
:100C6000200EBD6FC46FC76FD26FD56F280ED36FC4
:100C7000290EDB6F320ED46F560EB56F610EC06F4A
:100C8000D76F630EC16FD66F650EB66FBB6FC26F45
:100C9000C66FCF6FD96F690EB86FCC6F6C0EB96F1E
:100CA000BA6FBF6FC56FCD6FCE6F6F0EC96F700E0D
:100CB000BE6FCB6F720EC36FCA6FD16F730ED86FDA
:100CC000DA6F740EC86F750EB76FD06F7A0EBC6F87
:100CD000DC6B000EB46FB50EB36F280EEA6FEB6BD2
:100CE000EC6BED6BF10EEE6FEF6B020EF06F010E21
:100CF000F16F8FEC03F01200200EBD6FC46FC76F51
:100D0000D26FD56F280ED36F290EDB6F2D0ECC6FEF
:100D1000330ED46F560EB56F610EC06FCE6FD76FA6
:100D2000630EC16FD66F650EB66FBB6FC26FC66FB5
:100D3000D96F690EB86FD06F6C0EB96FBA6FBF6F95
:100D4000C56F6D0ECD6F6E0ED16F6F0EC96F700EC9
:100D5000BE6F720EC36FCF6F730EC86FCB6FD86F3D
:100D6000DA6F750EB76FCA6F7A0EBC6FDC6B000E50
:100D7000B46FB50EB36F280EEA6FEB6BEC6BED6BD7
:100D8000F10EEE6FEF6B020EF06F010EF16F8FEC54
:100D900003F01200200EBD6FC46FC76FCE6FCF6F10
:100DA000D06FD16FD26FD36FD46FD56FE26F280E33
:100DB000E06F290EE86F330EE16F560EB56F610ECE
:100DC000C06FE46F630EC16FC86FE36F650EB66FDF
:100DD000BB6FC26FC66FCD6FDD6FE66F690EB86F08
:100DE000DA6F6C0EB96FBA6FBF6FC56FDB6FDC6FF8
:100DF0006E0ECA6F6F0EC96FD76F700EBE6FD96F50
:100E0000720EC36FCC6FD86FDF6F730EE56FE76F35
:100E1000740ECB6FD66F750EB76FDE6F7A0EBC6F28
:100E2000E96B000EB46FB50EB36F350EEA6FEB6B66
:100E3000EC6BED6BF10EEE6FEF6B020EF06F010ECF
:100E4000F16F8FEC03F01200200EBD6FC46FC76FFF
:100E5000D26F280ED06F290ED86F340ED16F560E78
:100E6000B56F610EC06FD46F630EC16FC86FD36F63
:100E7000650EB66FBB6FC26FC66FCD6FD66F690E52
:100E8000B86FCB6F6C0EB96FBA6FBF6FC56F6F0E57
:100E9000CA6F700EBE6F720EC36FC96FCF6F730EC5
:100EA000CC6FD56FD76F750EB76FCE6F7A0EBC6FE4
:100EB000D96B000EB46FB50EB36F250EEA6FEB6BF6
:100EC000EC6BED6BF10EEE6FEF6B020EF06F010E3F
:100ED000F16F8FEC03F01200200EBD6FC46FC76F6F
:100EE000CD6FD56F280ED36F290EDB6F350ED46F03
:100EF000560EB56F610EC06FCE6FD76F630EC16FA8
:100F0000D66F650EB66FBB6FC26FC66FCC6FD96FF1
:100F1000690EB86FD06F6C0EB96FBA6FBF6FC56FC7
:100F20006E0ED26F6F0EC96FD16F700EBE6FC86F2D
:100F3000720EC36FCA6F730ED86FDA6F740ECB6FF9
:100F4000750EB76F760ECF6F7A0EBC6FDC6B000E2E
:100F5000B46FB50EB36F280EEA6FEB6BEC6BED6BF5
:100F6000F10EEE6FEF6B020EF06F010EF16F8FEC72
:100F700003F012000001B36BBDEC04F0B651906FAA
:100F8000B751916F010EB36FBDEC04F0B651886F8D
:100F9000B751896F120000EE05F0E9500001A4512D
:100FA000B36FB351E926EF50B46F050EE96EA4514B
:100FB000E926B451EF6EA429A46FB26B640EA4634A
:100FC00001D0B22BB253E7E000EE05F0E950A45196
:100FD000B26FB251E926EF50B36F050EE96EA8511A
:100FE000E926B351EF6E02EC04F050EC02F071EC24
:100FF00002F01200010E0001A46F180E8C6F8D6BB1
:10100000180E8E6F8F6B010E865D3AE2876738D0BF
:101010008D51895D02E18C51885D27E28F51915D90
:1010200002E18E51905D09E3A429A46FB46B180E00
:101030008E278F51B423B4518F6F86538753862BDD
:10104000D8B4872BB36B8F51915D04E18E519061C1
:1010500001D001D0D8A0B371B353E0E0B6EC02F0F8
:101060008E6B8F6B8C6B8D6BCED70A0EA425A46F05
:10107000B36B180E8C278D51B323B3518D6FC3D72B
:1010800000EE05F0E950A851E926B36BB32B050E2D
:10109000E96EA451E926B351EF6EA729A76F866BBD
:1010A000876B1200FF0EB365B46701D00CD0B7692F
:1010B00006EC00F0FF0EB35DB56FB359FF08B45FE7
:1010C000B551B36FEFD7000EB365B46701D012000E
:1010D000B351B76F06EC00F012000F0EC16ECBECEF
:1010E00007F0CEEC05F0D8EC05F0A55303E1D3EC06
:1010F00005F0FBD7BAEC07F0FAEC07F0A56BF40E9D
:10110000B36F010EB46F52EC08F0B26B110EA76111
:10111000B22BB253E6E0D4EC02F0CEEC05F0A553CE
:1011200003E1D3EC05F0FBD7BAEC07F0DEEC04F0FA
:10113000A56BF40EB36F010EB46F52EC08F0EBD751
:10114000D50E6A6EC40E6B6EBB0E6C6EDC0E6D6ED1
:101150006E6A6F6A706A716A726A736A746A756AB3
:10116000766A776A786A796A00019D6B9E6B7E6AFF
:101170007F6A9F6BA06BA16BA26B7A6A7B6A7C6AA9
:101180007D6A9B6B9C6B9A6B180E846F856BA36B4F
:10119000866B876B886B896B010EA46F180E8A6F44
:1011A0008B6B180E8C6F8D6B180E8E6F8F6B906B18
:1011B000916BA56BA66BA76BA86B000EA96F010EB8
:1011C000AA6F020EAB6F030EAC6F040EAD6F050E6F
:1011D000AE6F060EAF6F070EB06F806B816B826BC8
:1011E000836BB16B6DEF08F0EACF01F0E9CF02F04D
:1011F000F4CF03F0F3CF04F004C0F3FF03C0F4FF17
:0A12000002C0E9FF01C0EAFF11007F
:020000040030CA
:0E000000FF32FFFEFFFBBAFFFFFFFFFFFFFF17
:00000001FF
