:020000040000FA
:04000000B0EF05F068
:0800080004EF06F0B7530000FD
:1000100001E11200F50E00000000000000000000E9
:1000200000000000000000000000000000000000D0
:10003000000000000000FF0FD8A4EDD70000000072
:1000400000000000000000000000000000000000B0
:10005000000000000000B72FDDD7120000000000F4
:10006000B62FFCD71200FA0EB76F06EC00F0FA0EAE
:10007000B76F06EC00F0FA0EB76F06EC00F0FA0E60
:10008000B76F06EC00F0B62FEED71200100E9E14DC
:10009000C96FC953FBE0C751AD6E1200C869C96B87
:1000A000CA6BCB6BCC6BCF6BC72902E1010ECB6F58
:1000B000CC5324E1CB5318E1C75303E1010ECC6FBD
:1000C00013D0CD6BCE6B310ECD5D05E2CE6703D084
:1000D000CD4BCE2BF8D7C929C96F640EC96304D0A4
:1000E000C705C76F0400C96B200E9E14D06FD05196
:1000F000CA6FCA53DDE0020ECC6FDAD7020ECC63B2
:1001000018D0040EAB14D06FD051CA6FCA5303E09D
:10011000AE50CF6F0ED0020EAB14D06FD051CA6F5D
:10012000CA5303E0AB98AB8804D0C86BAE50C8117B
:10013000C86FC851D06FD16B1200AB6AAC6A1200A5
:10014000C5534DE1C6534BE1700EC76FC86B46EC0B
:1001500000F0C76BC86B46EC00F0C7694EEC00F0CE
:10016000720EC76FC86B46EC00F0BE51C76FC86B0C
:1001700046EC00F0BD51C76FBE51C86F46EC00F0B1
:10018000C051C76FC86B46EC00F0BF51C76FC0517C
:10019000C86F46EC00F0C251C76FC86B46EC00F068
:1001A000C151C76FC251C86F46EC00F0C451C76F50
:1001B000C86B46EC00F0C351C76FC451C86F46EC22
:1001C00000F09351C76FC86B46EC00F09251C76FB7
:1001D0009351C86F46EC00F0C7694EEC00F0700E0A
:1001E000C76FC86B46EC00F0C65305E0C76BC86B21
:1001F00046EC00F005D0010EC76FC86B46EC00F06E
:10020000C7694EEC00F0720EC76FC86B46EC00F089
:10021000BE51C76FC86B46EC00F0BD51C76FBE51F1
:10022000C86F46EC00F0C051C76FC86B46EC00F0D9
:10023000BF51C76FC051C86F46EC00F0C251C76FC5
:10024000C86B46EC00F0C151C76FC251C86F46EC95
:1002500000F0C451C76FC86B46EC00F0C351C76FC4
:10026000C451C86F46EC00F09551C76FC86B46EC9F
:1002700000F09451C76F9551C86F46EC00F0C76904
:100280004EEC00F01200BD33BD33BD331F0EBD1761
:10029000BE33BE333F0EBE17BF33BF33BF331F0E57
:1002A000BF17BE51C06F956BC0379537C0379537B4
:1002B000C0379537C0379537C0379537E00EC01730
:1002C000C051BF11946FC06BBD51C16FD890C13781
:1002D000D890C137D890C137C0519413C1519513EC
:1002E0001200AC847F0EAF6EAB6AAB8EAC8AAB886B
:1002F0009D9A1200070EB66501D01200B65304E1B4
:10030000B769010EB86F2FD0B60505E17F0EB76F44
:10031000010EB86F28D0020EB66303D0B769B86B70
:1003200022D0030EB66304D07F0EB76FB86B1BD01C
:10033000040EB66304D03F0EB76FB86B14D0050E31
:10034000B66304D01F0EB76FB86B0DD0060EB66340
:1003500004D0140EB76FB86B06D0070EB66303D087
:100360000A0EB76FB86B9DEC00F0B80502E1AC94D3
:1003700001D0AC84B751AF6EAB6AAB8EAC8AAB88A0
:100380009D9A1200B951EA6EB851E96EBA51EF1058
:10039000BC6FBC51EF6EB751EA6EB651E96EBA51FF
:1003A000EF14BC6FBB51BD6FD8B41200D890BC33F2
:1003B000BD07FAD7BA51BD6FBB51BE6FBC51BF6FFD
:1003C00043EC01F0B251BD6FB351BE6FB651BF6F78
:1003D000B751C06FB451C16FB551C26FB851C36F3F
:1003E000B951C46FC56B010EC66FA0EC00F01200CE
:1003F000C16BC051C16109D0BF51EA6EBE51C12568
:10040000E96EEF5202E0C12BF4D7C151C26F120066
:10041000BB6BBC6B010EBD6FBE6B010EBF6FC06BC3
:100420004C0EC76FC86B46EC00F0B451C76FC86B79
:1004300046EC00F0B351C76FB451C86F46EC00F002
:10044000B651C76FC86B46EC00F0B551C76FB651D7
:10045000C86F46EC00F0B851C76FC86B46EC00F0AF
:10046000B751C76FB851C86F46EC00F0BA51C76FAB
:10047000C86B46EC00F0B951C76FBA51C86F46EC73
:1004800000F09551C76FC86B46EC00F09451C76FF0
:100490009551C86F46EC00F0C7694EEC00F01200B1
:1004A0000001B66BB76BB86BB96B420EC76FC86B08
:1004B00046EC00F09351C76FC86B46EC00F09251C8
:1004C000C76F9351C86F46EC00F0C7694EEC00F05F
:1004D000450EC76FC86B46EC00F0C7694EEC00F0E4
:1004E0001200180E00018A6F8B6B180E846F856BDB
:1004F0008A51B36F8B51B46FB56BB66B8A51B76FBE
:100500008B51B86FF00EB96FBA6B08EC02F0B36B99
:10051000180E8A278B51B323B3518B6FB26BF00E39
:100520008A6303D08B51D8B4B22BB253E1E0B36BE2
:10053000B46B8451B56F8551B66FF00EB76FB86B61
:100540008451B96F8551BA6F08EC02F0B36B180E85
:1005500084278551B323B351856FB26BF00E846548
:10056000856701D0B22BB253E2E1120000018E5137
:10057000B26F8F51B36F180E8E5DB46F8E5918081D
:100580008F5DB56F8C51B66F8D51B76F180E8C5D46
:10059000B86F8C5918088D5DB96F460EBA6FBB6F76
:1005A000BC6FDAEC01F012006F0E0001C76FC86B70
:1005B00046EC00F0040EC76FC86B46EC00F0C7694C
:1005C0004EEC00F0C7694EEC00F0D051B36FC76934
:1005D0004EEC00F0C7694EEC00F0B35332E06F0E02
:1005E000C76FC86B46EC00F0050EC76FC86B46ECD2
:1005F00000F0C7694EEC00F0D051986FD151996F5F
:10060000C7694EEC00F0D051B26FB46B9851996F3E
:10061000B451986FB25198139953C7694EEC00F0DA
:10062000D051966FD151976FC7694EEC00F0D05101
:10063000B26FB46B9651976FB451966FB2519613D7
:100640009753B351B46F1200590E0001C76FC86BB6
:1006500046EC00F0050EC76FC86B46EC00F0C76BA8
:10066000C86B46EC00F0C7694EEC00F0D051B26F99
:10067000590EC76FC86B46EC00F0050EC76FC86B0C
:1006800046EC00F0020EC76FC86B46EC00F0C7697D
:100690004EEC00F0D051B26F060EB26302D0B26BD6
:1006A00001D0B269B251B36F1200590E0001C76F89
:1006B000C86B46EC00F0050EC76FC86B46EC00F047
:1006C000010EC76FC86B46EC00F0C7694EEC00F036
:1006D000D051B26F060EB26302D0B26B01D0B269D4
:1006E000B251B36F12000001B66B949AB65304E096
:1006F000200E8B10826E03D0DF0E8B14826E71EC95
:1007000001F0640EB66F2EEC00F00F0EB76F820E84
:10071000B66F0F0EB96F940EB86F200EBA6F050E3C
:10072000BB6FC2EC01F0BC51B56F030EB66F33EC7A
:1007300000F0C76B4EEC00F0C76B4EEC00F0C76BDF
:100740004EEC00F0550EC76FC86B46EC00F0C76961
:100750004EEC00F0510EC76FC86B46EC00F00C0E6B
:10076000C76FC86B46EC00F0C7694EEC00F0060E90
:10077000B66F7AEC01F00A0EC76F4EEC00F00A0E6D
:10078000C76F4EEC00F0B26BB233B233B2331F0E10
:10079000B217B36BB333B3333F0EB317B46BB43389
:1007A000B433B4331F0EB417B351B66F956BB6376D
:1007B0009537B6379537B6379537B6379537B63755
:1007C0009537E00EB617B651B411946FB66BB251AF
:1007D000B76FD890B737D890B737D890B737B651EA
:1007E0009413B7519513B269B233B233B2331F0EBB
:1007F000B217B369B333B3333F0EB317B469B4332D
:10080000B433B4331F0EB417B351B66F936BB6370E
:100810009337B6379337B6379337B6379337B637FC
:100820009337E00EB617B651B411926FB66BB25152
:10083000B76FD890B737D890B737D890B737B65189
:100840009213B751931350EC02F00A0EC76F4EEC9F
:1008500000F00A0EC76F4EEC00F01200B36BB46BE1
:10086000B25307E0780EB26301D003D0580EB263E2
:1008700004D09851B36F9951B46FB20507E0790E67
:10088000B26301D003D0590EB26304D09651B36F56
:100890009751B46FB351B56FB451B66F1200BD6BC1
:1008A0004F0EC76FC86B46EC00F0BB5305E0C76B3B
:1008B000C86B46EC00F005D0010EC76FC86B46EC64
:1008C00000F0C7694EEC00F0530EC76FC86B46ECE2
:1008D00000F0B751C76FC86B46EC00F0B651C76F58
:1008E000B751C86F46EC00F0B951C76FC86B46EC02
:1008F00000F0B851C76FB951C86F46EC00F0BA515B
:10090000C76FC86B46EC00F09551C76FC86B46ECDB
:1009100000F09451C76F9551C86F46EC00F0010E7E
:10092000C76FC86B46EC00F0010EC76FC86B46EC92
:1009300000F0B251BE6FB351BF6FB451C06FF8EC4D
:1009400001F0C251BC6FBC51BD6114D0B351EA6E0D
:10095000B251BD25E96EEF520DE0B351EA6EB251CE
:10096000BD25E96EEF50C76FC86B46EC00F0BD299E
:10097000BD6FE9D7C76BC86B46EC00F0C7694EEC9A
:1009800000F0120055EC03F024EC03F0120000011B
:10099000BD69BE69BF6943EC01F0BD6BBE6BF10E72
:1009A000BF6FC06BF00EC16FC26B400EC36F010E04
:1009B000C46FC56FC66FA0EC00F0BD6BBE6BBF6BA4
:1009C00043EC01F01200D4EC02F0B451A56F120018
:1009D0000001B26B2EEC04F0B551906FB651916FDF
:1009E000010EB26F2EEC04F0B551886FB651896FCD
:1009F000120000EE05F0E9500001A451E926000EB6
:100A0000EF6EA429A46FB26B640EA46301D0B22B65
:100A1000B253EFE000EE05F0E950A451B26FB251CD
:100A2000E926EF50B36F050EE96EA851E926B351E0
:100A3000EF6E73EC03F050EC02F071EC02F0120078
:100A4000010E0001A46F180E8C6F8D6B180E8E6F47
:100A50008F6B010E865D3AE2876738D08D51895DD4
:100A600002E18C51885D27E28F51915D02E18E5148
:100A7000905D09E3A429A46FB36B180E8E278F51E4
:100A8000B323B3518F6F86538753862BD8B4872BEC
:100A9000B26B8F51915D04E18E51906101D001D014
:100AA000D8A0B271B253E0E0B6EC02F08E6B8F6B5F
:100AB0008C6B8D6BCED70A0EA425A46FB26B180E6B
:100AC0008C278D51B223B2518D6FC3D7000EB36FF7
:100AD000050EB26F650EB46FB56B320EB66FB76BA5
:100AE000F00EB86FB96B020EBA6F010EBB6F4FEC10
:100AF00004F0866B876B1200FF0EB265B36701D0FE
:100B00000CD0B76906EC00F0FF0EB25DB46FB259BD
:100B1000FF08B35FB451B26FEFD7000EB265B36791
:100B200001D01200B251B76F06EC00F012000F0EA8
:100B3000C16EF9EC04F0C7EC04F0C2EC04F0A5536C
:100B400003E1E3EC04F0FBD7E8EC04F020EC05F063
:100B5000A56BF40EB26F010EB36F7CEC05F0EBD712
:100B6000D50E6A6EC40E6B6EBB0E6C6EDC0E6D6EB7
:100B70006E6A6F6A706A716A726A736A746A756A99
:100B8000766A776A786A796A00019D6B9E6B7E6AE5
:100B90007F6A9F6BA06BA16BA26B7A6A7B6A7C6A8F
:100BA0007D6A9B6B9C6B9A6B180E846F856BA36B35
:100BB000866B876B886B896B010EA46F180E8A6F2A
:100BC0008B6B180E8C6F8D6B180E8E6F8F6B906BFE
:100BD000916BA56BA66BA76BA86B000EA96F010E9E
:100BE000AA6F020EAB6F030EAC6F040EAD6F050E55
:100BF000AE6F060EAF6F070EB06F806B816B826BAE
:100C0000836BB16B97EF05F0EACF01F0E9CF02F00B
:100C1000F4CF03F0F3CF04F004C0F3FF03C0F4FFFC
:0A0C200002C0E9FF01C0EAFF110065
:020000040030CA
:0E000000FF32FFFEFFFBBAFFFFFFFFFFFFFF17
:00000001FF
