:020000040000FA
:0400000003EF05F015
:0800080043EF05F04452000033
:1000100001E11200F50E00000000000000000000E9
:1000200000000000000000000000000000000000D0
:10003000000000000000FF0FD8A4EDD70000000072
:1000400000000000000000000000000000000000B0
:10005000000000000000442EDDD712000000000068
:10006000432EFCD71200FA0E446E06EC00F0FA0E96
:10007000446E06EC00F0FA0E446E06EC00F0FA0E48
:10008000446E06EC00F0432EEED712006C6A6D6AE7
:100090006E6A6F6A6E6A6F6A60506402F3506C6ECB
:1000A000F4506D6E61506402F3506D26F4506E2270
:1000B000D8B06F2A62506402F3506E26F4506F225B
:1000C00063506402F3506F2660506502F3506D2652
:1000D000F4506E22D8B06F2A61506502F3506E263C
:1000E000F4506F2262506502F3506F266050660232
:1000F000F3506E26F4506F2261506602F3506F2663
:1001000060506702F3506F261200686A696A6A6A73
:100110006B6A6E6A6F6A706A716A6C6A200E6C1420
:100120006D6E6D661200D8906E366F367036713611
:100130006036613662366336683669366A366B36E3
:1001400067506B5C08E166506A5C05E16550695C6C
:1001500002E16450685C09E36450685E6550695A66
:1001600066506A5A67506B5A6E806C2AD7D7100E49
:100170009E146C6E6C52FBE06A50AD6E12006B68A0
:100180006C6A6D6A6E6A6F6A726A6A2802E1010EB1
:100190006E6E6F5224E16E5218E16A5203E1010E55
:1001A0006F6E13D0706A716A310E705C05E2716611
:1001B00003D0704A712AF8D76C286C6E640E6C629A
:1001C00004D06A046A6E04006C6A200E9E14736E7A
:1001D00073506D6E6D52DDE0020E6F6EDAD7020E57
:1001E0006F6218D0040EAB14736E73506D6E6D5247
:1001F00003E0AE50726E0ED0020EAB14736E7350ED
:100200006D6E6D5203E0AB98AB8804D06B6AAE5054
:100210006B106B6E6B50736E746A1200AB6AAC6AD3
:1002200012006D6A6C506D6009D06B50EA6E6A50B6
:100230006D24E96EEF5202E06D2AF4D76D506E6EB8
:100240001200AC847F0EAF6EAB6AAB8EAC8AAB880B
:100250009D9A1200070E436401D01200435204E13C
:100260004468010E456E2FD0430405E17F0E446EB5
:10027000010E456E28D0020E436203D04468456AE1
:1002800022D0030E436204D07F0E446E456A1BD019
:10029000040E436204D03F0E446E456A14D0050E2E
:1002A000436204D01F0E446E456A0DD0060E4362B1
:1002B00004D0140E446E456A06D0070E436203D084
:1002C0000A0E446E456A0EEC01F0450402E1AC945E
:1002D00001D0AC844450AF6EAB6AAB8EAC8AAB88B5
:1002E0009D9A12004650EA6E4550E96E4750EF1055
:1002F000496E4950EF6E4450EA6E4350E96E4750E4
:10030000EF14496E48504A6ED8B41200D890493262
:100310004A06FAD74D50556E4E50566E4F50576E96
:100320005050586E596ACA0E5A6E9A0E5B6E3B0E4A
:100330005C6E5D6A535205E151505E6E52505F6EC5
:10034000120058AE14D05250EA6E5150E96E606AF5
:100350006050E9262D0EEF6E5D2A551E561E571E63
:10036000581E553E04D0563E02D0574A582A546A69
:100370005550561057105810FF0B06E1010E546EE1
:10038000596E5A6A5B6A5C6A53505D6072D05C5009
:10039000000808E15B50000805E15A50000802E13E
:1003A0005950000866E25C50585C08E15B50575CAD
:1003B00005E15A50565C02E15950555C02E2545234
:1003C00040E05550606E5650616E5750626E585006
:1003D000636E5950646E5A50656E5B50666E5C5029
:1003E000676E85EC00F06E50546E5450300F606EA6
:1003F0005250EA6E51505D24E96E6050EF6E5D2AF6
:100400005450606E616A626A636A5950646E5A50F1
:10041000656E5B50666E5C50676E46EC00F06C502B
:10042000686E6D50696E6E506A6E6F506B6E68507C
:10043000555E6950565A6A50575A6B50585A010EB9
:10044000546E5950606E5A50616E5B50626E5C50D3
:10045000636E0A0E646E656A666A676A85EC00F010
:100460006E50596E6F505A6E70505B6E71505C6E6C
:100470008BD753505D6007D05250EA6E51505D24C7
:10048000E96E000EEF6E51505E6E52505F6E1200BC
:10049000696A4F0E6A6E6B6AB7EC00F0675205E04E
:1004A0006A6A6B6AB7EC00F005D0010E6A6E6B6A7F
:1004B000B7EC00F06A68BFEC00F0530E6A6E6B6A2E
:1004C000B7EC00F063506A6E6B6AB7EC00F06250F4
:1004D0006A6E63506B6EB7EC00F065506A6E6B6AC3
:1004E000B7EC00F064506A6E65506B6EB7EC00F0CC
:1004F00066506A6E6B6AB7EC00F028506A6E6B6AE1
:10050000B7EC00F027506A6E28506B6EB7EC00F025
:10051000010E6A6E6B6AB7EC00F0010E6A6E6B6AD0
:10052000B7EC00F04D506A6E4E506B6E60506C6EC2
:1005300011EC01F06E50686E6850696014D04E5036
:10054000EA6E4D506924E96EEF520DE04E50EA6EAE
:100550004D506924E96EEF506A6E6B6AB7EC00F09B
:100560006928696EE9D76A6A6B6AB7EC00F06A6855
:10057000BFEC00F01200436A446A456A466A420EC4
:100580006A6E6B6AB7EC00F026506A6E6B6AB7EC65
:1005900000F025506A6E26506B6EB7EC00F06A686A
:1005A000BFEC00F0450E6A6E6B6AB7EC00F06A684B
:1005B000BFEC00F012003F504D6E40504E6E4F6A3F
:1005C000506A40AE02D04F065006000E526E470EE3
:1005D000516E060E536E8AEC01F0000E4E6E470E01
:1005E0004D6E060E606E616A4150626E4250636EDF
:1005F0004350646E4450656E4550666E4650676E5B
:1006000048EC02F01200406A416A3F5207E0780E5F
:100610003F6201D003D0580E3F6204D02B50406E91
:100620002C50416E3F0407E0790E3F6201D003D0A9
:10063000590E3F6204D02950406E2A50416E4050FE
:10064000426E4150436E12006F0E6A6E6B6AB7ECD9
:1006500000F0040E6A6E6B6AB7EC00F06A68BFECDB
:1006600000F06A68BFEC00F07350406E6A68BFEC3F
:1006700000F06A68BFEC00F0405232E06F0E6A6E24
:100680006B6AB7EC00F0050E6A6E6B6AB7EC00F0AF
:100690006A68BFEC00F073502B6E74502C6E6A6861
:1006A000BFEC00F073503F6E416A2B502C6E4150EE
:1006B0002B6E3F502B122C526A68BFEC00F0735027
:1006C000296E74502A6E6A68BFEC00F073503F6E5A
:1006D000416A29502A6E4150296E3F5029122A52F0
:1006E0004050416E1200590E6A6E6B6AB7EC00F012
:1006F000050E6A6E6B6AB7EC00F0010E6A6E6B6AEB
:10070000B7EC00F06A68BFEC00F073503F6E060E65
:100710003F6202D03F6A01D03F683F50406E1200F6
:10072000590E6A6E6B6AB7EC00F0050E6A6E6B6A62
:10073000B7EC00F06A6A6B6AB7EC00F06A68BFEC6D
:1007400000F073503F6E590E6A6E6B6AB7EC00F0A2
:10075000050E6A6E6B6AB7EC00F0020E6A6E6B6A89
:10076000B7EC00F06A68BFEC00F073503F6E060E05
:100770003F6202D03F6A01D03F683F50406E120096
:10078000436A949A435204E0200E8B10826E03D089
:10079000DF0E8B14826E21EC01F0640E436E2EECA2
:1007A00000F00F0E446E820E436E0F0E466E940ED6
:1007B000456E200E476E050E486E72EC01F04950F2
:1007C000426E030E436E33EC00F06A6ABFEC00F039
:1007D0006A6ABFEC00F06A6ABFEC00F0550E6A6E00
:1007E0006B6AB7EC00F06A68BFEC00F0510E6A6EFD
:1007F0006B6AB7EC00F00C0E6A6E6B6AB7EC00F037
:100800006A68BFEC00F0060E436E2AEC01F00A0E97
:100810006A6EBFEC00F00A0E6A6EBFEC00F03F6A31
:100820003F323F323F321F0E3F16406A4032403265
:100830003F0E4016416A4132413241321F0E41168D
:100840004050436E286A43362836433628364336AE
:1008500028364336283643362836E00E43164350B2
:100860004110276E436A3F50446ED8904436D8906A
:100870004436D890443643502712445028123F68DB
:100880003F323F323F321F0E3F1640684032403207
:100890003F0E401641684132413241321F0E41162F
:1008A0004050436E266A4336263643362636433654
:1008B00026364336263643362636E00E4316435058
:1008C0004110256E436A3F50446ED8904436D8900C
:1008D0004436D89044364350251244502612BBEC7F
:1008E00002F00A0E6A6EBFEC00F00A0E6A6EBFECF0
:1008F00000F01200C0EC03F0BBEC02F090EC03F04F
:10090000120073EC03F090EC03F0235237E1245211
:1009100035E124EC03F04150236E246A200E576E1B
:10092000560E4F6E610E586E650E506E556E5D6EB2
:10093000690E526E6C0E536E546E700E596E5A6E76
:10094000720E5E6E750E516E5B6E790E5C6E7A0E77
:10095000566E5F6A000E4E6E4F0E4D6E110E606E3B
:10096000616A320E626E636A960E646E656A020E8A
:10097000666E010E676E48EC02F0C7D7BBEC02F062
:100980003F6A03EC03F04250216E4350226E010E89
:100990003F6E03EC03F042501F6E4350206E215017
:1009A0003F6E2250406E500E416E426A960E436E6C
:1009B000446A020E456E010E466EDBEC02F01F50DB
:1009C0003F6E2050406E780E416E426A960E436E26
:1009D000446A020E456E010E466EDBEC02F0020E1A
:1009E000436E33EC00F0BBEC02F0236A246A216A08
:1009F000226A1F6A206A85D70F0EC16E7AEC04F056
:100A000081EC04F0FFD7D50E056EC40E066EBB0E4A
:100A1000076EDC0E086E096A0A6A0B6A0C6A0D6AB8
:100A20000E6A0F6A106A116A126A136A146A306ACF
:100A3000316A1D6A1E6A326A336A346A356A156A17
:100A4000166A176A186A2E6A2F6A2D6A1F6A206A48
:100A5000216A226A236A246A000E366E010E376EFE
:100A6000020E386E030E396E040E3A6E050E3B6EA2
:100A7000060E3C6E070E3D6E196A1A6A1B6A1C6AE6
:100A80003E6AFCEF04F0EACF01F0E9CF02F0F4CFC8
:100A900003F0F3CF04F004C0F3FF03C0F4FF02C07F
:080AA000E9FF01C0EAFF1100AB
:020000040030CA
:0E000000FF32F9FEFFFBBAFFFFFFFFFFFFFF1D
:00000001FF
