:020000040000FA
:04000000ACEF04F06D
:08000800FDEF04F0505200006E
:1000100001E11200F50E00000000000000000000E9
:1000200000000000000000000000000000000000D0
:10003000000000000000FF0FD8A4EDD70000000072
:1000400000000000000000000000000000000000B0
:10005000000000000000502EDDD71200000000005C
:100060004F2EFCD71200FA0E506E06EC00F0FA0E7E
:10007000506E06EC00F0FA0E506E06EC00F0FA0E30
:10008000506E06EC00F04F2EEED71200100E9E14AC
:100090005F6E5F52FBE05D50AD6E12005E685F6A9E
:1000A000606A616A626A656A5D2802E1010E616EDA
:1000B000625224E1615218E15D5203E1010E626E69
:1000C00013D0636A646A310E635C05E2646603D030
:1000D000634A642AF8D75F285F6E640E5F6204D0BB
:1000E0005D045D6E04005F6A200E9E14666E6650AD
:1000F000606E6052DDE0020E626EDAD7020E62625E
:1001000018D0040EAB14666E6650606E605203E049
:10011000AE50656E0ED0020EAB14666E6650606E09
:10012000605203E0AB98AB8804D05E6AAE505E10BC
:100130005E6E5E50666E676A1200AB6AAC6A120051
:100140005B524DE15C524BE1700E5D6E5E6A46ECB7
:1001500000F05D6A5E6A46EC00F05D684EEC00F00F
:10016000720E5D6E5E6A46EC00F054505D6E5E6A23
:1001700046EC00F053505D6E54505E6E46EC00F05D
:1001800056505D6E5E6A46EC00F055505D6E5650FE
:100190005E6E46EC00F058505D6E5E6A46EC00F014
:1001A00057505D6E58505E6E46EC00F05A505D6ED2
:1001B0005E6A46EC00F059505D6E5A505E6E46EC39
:1001C00000F02E505D6E5E6A46EC00F02D505D6EC4
:1001D0002E505E6E46EC00F05D684EEC00F0700E46
:1001E0005D6E5E6A46EC00F05C5205E05D6A5E6A38
:1001F00046EC00F005D0010E5D6E5E6A46EC00F044
:100200005D684EEC00F0720E5D6E5E6A46EC00F0CA
:1002100054505D6E5E6A46EC00F053505D6E545073
:100220005E6E46EC00F056505D6E5E6A46EC00F085
:1002300055505D6E56505E6E46EC00F058505D6E47
:100240005E6A46EC00F057505D6E58505E6E46ECAC
:1002500000F05A505D6E5E6A46EC00F059505D6EDB
:100260005A505E6E46EC00F030505D6E5E6A46ECB1
:1002700000F02F505D6E30505E6E46EC00F05D6811
:100280004EEC00F012005332533253321F0E53160D
:10029000543254323F0E54165532553255321F0ED9
:1002A00055165450566E306A5636303656363036FD
:1002B000563630365636303656363036E00E56160E
:1002C000565055102F6E566A5350576ED890573669
:1002D000D8905736D890573656502F125750301264
:1002E0001200AC847F0EAF6EAB6AAB8EAC8AAB886B
:1002F0009D9A1200070E4F6401D012004F5204E184
:100300005068010E516E2FD04F0405E17F0E506EE4
:10031000010E516E28D0020E4F6203D05068516A10
:1003200022D0030E4F6204D07F0E506E516A1BD054
:10033000040E4F6204D03F0E506E516A14D0050E69
:100340004F6204D01F0E506E516A0DD0060E4F62E0
:1003500004D0140E506E516A06D0070E4F6203D0BF
:100360000A0E506E516A9DEC00F0510402E1AC940B
:1003700001D0AC845050AF6EAB6AAB8EAC8AAB8808
:100380009D9A12005250EA6E5150E96E5350EF1090
:10039000556E5550EF6E5050EA6E4F50E96E535007
:1003A000EF14556E5450566ED8B41200D890553292
:1003B0005606FAD7320E536E546E556E43EC01F06A
:1003C0004B50536E4C50546E4F50556E5050566EAD
:1003D0004D50576E4E50586E5150596E52505A6E85
:1003E0005B6A010E5C6EA0EC00F01200546A556A64
:1003F000010E566E576A010E586E596A4C0E5D6EAC
:100400005E6A46EC00F04D505D6E5E6A46EC00F0B0
:100410004C505D6E4D505E6E46EC00F04F505D6E80
:100420005E6A46EC00F04E505D6E4F505E6E46ECDC
:1004300000F051505D6E5E6A46EC00F050505D6E0B
:1004400051505E6E46EC00F053505D6E5E6A46ECB5
:1004500000F052505D6E53505E6E46EC00F030502E
:100460005D6E5E6A46EC00F02F505D6E30505E6E41
:1004700046EC00F05D684EEC00F012004F6A506AE6
:10048000516A526A420E5D6E5E6A46EC00F02E5072
:100490005D6E5E6A46EC00F02D505D6E2E505E6E15
:1004A00046EC00F05D684EEC00F0450E5D6E5E6A55
:1004B00046EC00F05D684EEC00F01200180E256E60
:1004C000266A180E1F6E206A25504C6E26504D6EFF
:1004D0004E6A4F6A2550506E2650516EF00E526E85
:1004E000536AF6EC01F04C6A180E252626504C2271
:1004F0004C50266E4B6AF00E256203D02650D8B4BD
:100500004B2A4B52E1E04C6A4D6A1F504E6E205010
:100510004F6EF00E506E516A1F50526E2050536E47
:10052000F6EC01F04C6A180E1F2620504C224C505D
:10053000206E4B6AF00E1F64206601D04B2A4B528E
:10054000E2E1120029504B6E2A504C6E180E295CC5
:100550004D6E295818082A5C4E6E27504F6E285051
:10056000506E180E275C516E27581808285C526E82
:10057000DAEC01F012006F0E5D6E5E6A46EC00F080
:10058000040E5D6E5E6A46EC00F05D684EEC00F0B5
:100590005D684EEC00F066504C6E5D684EEC00F00D
:1005A0005D684EEC00F04C5232E06F0E5D6E5E6A9C
:1005B00046EC00F0050E5D6E5E6A46EC00F05D688C
:1005C0004EEC00F06650336E6750346E5D684EEC52
:1005D00000F066504B6E4D6A3350346E4D50336EA2
:1005E0004B50331234525D684EEC00F06650316E61
:1005F0006750326E5D684EEC00F066504B6E4D6A8F
:100600003150326E4D50316E4B50311232524C508F
:100610004D6E1200590E5D6E5E6A46EC00F0050EDE
:100620005D6E5E6A46EC00F05D6A5E6A46EC00F064
:100630005D684EEC00F066504B6E590E5D6E5E6A62
:1006400046EC00F0050E5D6E5E6A46EC00F0020EB0
:100650005D6E5E6A46EC00F05D684EEC00F0665040
:100660004B6E060E4B6202D04B6A01D04B684B506A
:100670004C6E1200590E5D6E5E6A46EC00F0050E7F
:100680005D6E5E6A46EC00F0010E5D6E5E6A46ECE1
:1006900000F05D684EEC00F066504B6E060E4B624B
:1006A00002D04B6A01D04B684B504C6E12004F6A1F
:1006B000949A4F5204E0200E8B10826E03D0DF0E0E
:1006C0008B14826E71EC01F0640E4F6E2EEC00F014
:1006D0000F0E506E820E4F6E0F0E526E940E516EB4
:1006E000200E536E050E546EC2EC01F055504E6E46
:1006F000030E4F6E33EC00F05D6A4EEC00F05D6A65
:100700004EEC00F05D6A4EEC00F0550E5D6E5E6AD8
:1007100046EC00F05D684EEC00F0510E5D6E5E6AD6
:1007200046EC00F00C0E5D6E5E6A46EC00F05D6813
:100730004EEC00F0060E4F6E7AEC01F00A0E5D6E84
:100740004EEC00F00A0E5D6E4EEC00F04B6A4B3240
:100750004B324B321F0E4B164C6A4C324C323F0E12
:100760004C164D6A4D324D324D321F0E4D164C50C7
:100770004F6E306A4F3630364F3630364F36303661
:100780004F3630364F363036E00E4F164F504D1044
:100790002F6E4F6A4B50506ED8905036D8905036CE
:1007A000D89050364F502F12505030124B684B3269
:1007B0004B324B321F0E4B164C684C324C323F0EB4
:1007C0004C164D684D324D324D321F0E4D164C5069
:1007D0004F6E2E6A4F362E364F362E364F362E3609
:1007E0004F362E364F362E36E00E4F164F504D10E8
:1007F0002D6E4F6A4B50506ED8905036D890503670
:10080000D89050364F502D1250502E123EEC02F020
:100810000A0E5D6E4EEC00F00A0E5D6E4EEC00F0BE
:1008200012004C6A4D6A4B5207E0780E4B6201D0C1
:1008300003D0580E4B6204D033504C6E34504D6E82
:100840004B0407E0790E4B6201D003D0590E4B6286
:1008500004D031504C6E32504D6E4C504E6E4D5057
:100860004F6E12003AEC03F00AEC03F01200BBECFE
:1008700002F04D50406E12004B6A11EC04F04E50E5
:100880002B6E4F502C6E010E4B6E11EC04F04E503F
:10089000236E4F50246E120057EC03F03EEC02F032
:1008A0005EEC02F01200010E3F6E180E276E286AF1
:1008B000180E296E2A6A010E215C3AE2226638D0AF
:1008C0002850245C02E12750235C27E22A502C5C4C
:1008D00002E129502B5C09E33F283F6E4C6A180E59
:1008E00029262A504C224C502A6E21522252212A6B
:1008F000D8B4222A4B6A2A502C5C04E129502B6080
:1009000001D001D0D8A04B704B52E0E0A2EC02F035
:10091000296A2A6A276A286ACED70A0E3F243F6EC0
:100920004B6A180E272628504B224B50286EC3D7EF
:10093000216A226A12000F0EC16E4CEC04F032ECF8
:1009400004F0405203E137EC04F0FBD73CEC04F038
:1009500053EC04F0406AF3D7D50E056EC40E066E54
:10096000BB0E076EDC0E086E096A0A6A0B6A0C6A17
:100970000D6A0E6A0F6A106A116A126A136A146AA3
:10098000386A396A1D6A1E6A3A6A3B6A3C6A3D6A7D
:10099000156A166A176A186A366A376A356A180E4F
:1009A0001F6E206A3E6A216A226A236A246A010E47
:1009B0003F6E180E256E266A180E276E286A180ECE
:1009C000296E2A6A2B6A2C6A406A416A000E426EBE
:1009D000010E436E020E446E030E456E040E466E0B
:1009E000050E476E060E486E070E496E196A1A6AA2
:1009F0001B6A1C6A4A6A9BEF04F0EACF01F0E9CF58
:100A000002F0F4CF03F0F3CF04F004C0F3FF03C00F
:0C0A1000F4FF02C0E9FF01C0EAFF110082
:020000040030CA
:0E000000FF32FFFEFFFBBAFFFFFFFFFFFFFF17
:00000001FF
