:020000040000FA
:0400000039EF0EF0D6
:0800080092EF0EF0BE53000060
:1000100001E11200F50E00000000000000000000E9
:1000200000000000000000000000000000000000D0
:10003000000000000000FF0FD8A4EDD70000000072
:1000400000000000000000000000000000000000B0
:10005000000000000000BE2FDDD7120000000000ED
:10006000BB2FFCD71200FA0EBE6F06EC00F0FA0EA2
:10007000BE6F06EC00F0FA0EBE6F06EC00F0FA0E52
:10008000BE6F06EC00F0BB2FEED71200100E9E14D0
:100090000001FF6FFF53FAE001010051AD6E120045
:1000A00001010069016B026B036B046B076B0001BC
:1000B000FF2903E1010E0101036F0101045329E14E
:1000C00003531DE10001FF5304E1010E0101046F20
:1000D00016D00101056B066B310E055D05E2066762
:1000E00003D0054B062BF8D70129016F640E01637D
:1000F00006D00001FF05FF6F04000101016B200E17
:100100009E14086F0851026F0253D7E0020E046F6D
:10011000D4D7020E046318D0040EAB14086F085134
:10012000026F025303E0AE50076F0ED0020EAB1405
:10013000086F0851026F025303E0AB98AB8804D0FC
:10014000006BAE500011006F0051086F096B120078
:100150000101026B0001FF510101026109D001514F
:10016000EA6E00510225E96EEF5202E0022BF2D74F
:100170000251036F1200D1536EE1D2536CE1700E45
:100180000101006F016B46EC00F0006B016B46EC67
:1001900000F00001FF6950EC00F0720E006F016B7F
:1001A00046EC00F00001CA510101006F016B46EC02
:1001B00000F00001C9510101006F0001CA510101A5
:1001C000016F46EC00F00001CC510101006F016BA2
:1001D00046EC00F00001CB510101006F0001CC5151
:1001E0000101016F46EC00F00001CE510101006FEA
:1001F000016B46EC00F00001CD510101006F0001E0
:10020000CE510101016F46EC00F00001D051010117
:10021000006F016B46EC00F00001CF510101006F4F
:100220000001D0510101016F46EC00F00001935133
:100230000101006F016B46EC00F0000192510101D9
:10024000006F000193510101016F46EC00F00001C5
:10025000FF6950EC00F0700E0101006F016B46EC7D
:1002600000F00001D25306E00101006B016B46EC87
:1002700000F006D0010E0101006F016B46EC00F0AA
:100280000001FF6950EC00F0720E006F016B46EC4C
:1002900000F00001CA510101006F016B46EC00F053
:1002A0000001C9510101006F0001CA510101016F34
:1002B00046EC00F00001CC510101006F016B46ECEF
:1002C00000F00001CB510101006F0001CC51010190
:1002D000016F46EC00F00001CE510101006F016B8F
:1002E00046EC00F00001CD510101006F0001CE513C
:1002F0000101016F46EC00F00001D0510101006FD7
:10030000016B46EC00F00001CF510101006F0001CC
:10031000D0510101016F46EC00F00001955101013F
:10032000006F016B46EC00F0000194510101006F79
:10033000000195510101016F46EC00F00001FF69D9
:1003400050EC00F01200C933C933C9331F0EC9176E
:10035000CA33CA333F0ECA17CB33CB33CB331F0E4E
:10036000CB17CA51CC6F956BCC379537CC379537B7
:10037000CC379537CC379537CC379537E00ECC173F
:10038000CC51CB11946FCC6BC951CD6FD890CD3778
:10039000D890CD37D890CD37CC519413CD519513FB
:1003A0001200AB6AAC6A1200C651C96FC751CA6F5E
:1003B000C851CB6FA3EC01F0BE51C96FBF51CA6FDA
:1003C000C251CB6FC351CC6FC051CD6FC151CE6FF5
:1003D000C451CF6FC551D06FD16B010ED26FBBEC42
:1003E00000F012000001C969CA69CB69A3EC01F0F1
:1003F000C96BCA6BF10ECB6FCC6BF00ECD6FCE6BB1
:10040000400ECF6F010ED06FD16FD26FBBEC00F0FA
:100410000001C96BCA6BCB6BA3EC01F012006F0E2D
:100420000101006F016B46EC00F0040E006F016BE0
:1004300046EC00F00001FF6950EC00F00001FF699C
:1004400050EC00F008510001BF6FFF6950EC00F064
:100450000001FF6950EC00F00001BF533CE06F0E5B
:100460000101006F016B46EC00F0050E006F016B9F
:1004700046EC00F00001FF6950EC00F0085100016B
:10048000986F010109510001996FFF6950EC00F06C
:1004900008510001BE6FC06B9851996FC051986FA1
:1004A000BE5198139953FF6950EC00F008510001B8
:1004B000966F010109510001976FFF6950EC00F040
:1004C00008510001BE6FC06B9651976FC051966F77
:1004D000BE5196139753BF51C06F1200590E0101C0
:1004E000006F016B46EC00F0050E006F016B46ECEF
:1004F00000F0006B016B46EC00F00001FF6950EC6E
:1005000000F008510001BE6F590E0101006F016B30
:1005100046EC00F0050E006F016B46EC00F0020E99
:10052000006F016B46EC00F00001FF6950EC00F039
:1005300008510001BE6F060EBE6302D0BE6B01D033
:10054000BE69BE51BF6F1200590E0101006F016BF1
:1005500046EC00F0050E006F016B46EC00F0010E5A
:10056000006F016B46EC00F00001FF6950EC00F0F9
:1005700008510001BE6F060EBE6302D0BE6B01D0F3
:10058000BE69BE51BF6F1200750E0101006F016B95
:1005900046EC00F00001BF510101006F016B46EC19
:1005A00000F00001BE510101006F0001BF510101C7
:1005B000016F46EC00F00001C1510101006F016BB9
:1005C00046EC00F00001C0510101006F0001C15173
:1005D0000101016F46EC00F00001C3510101006F01
:1005E000016B46EC00F00001C2510101006F0001F7
:1005F000C3510101016F46EC00F00001C55101013A
:10060000006F016B46EC00F00001C4510101006F66
:100610000001C5510101016F46EC00F00001FF69C6
:1006200050EC00F008510001C66F060EC66302D000
:10063000C66B01D0C669C651C76F1200BF6BC06BD5
:10064000BE5307E0780EBE6301D003D0580EBE63E0
:1006500004D09851BF6F9951C06FBE0507E0790E65
:10066000BE6301D003D0590EBE6304D09651BF6F54
:100670009751C06FBF51C16FC051C26F1200FE6B66
:100680004F0E0101006F016B46EC00F00001FC53BE
:1006900006E00101006B016B46EC00F006D0010E94
:1006A0000101006F016B46EC00F00001FF6950ECA6
:1006B00000F0530E006F016B46EC00F00001F851A2
:1006C0000101006F016B46EC00F00001F7510101E0
:1006D000006F0001F8510101016F46EC00F00001CC
:1006E000FA510101006F016B46EC00F00001F95175
:1006F0000101006F0001FA510101016F46EC00F0A9
:100700000001FB510101006F016B46EC00F000019C
:1007100095510101006F016B46EC00F0000194510E
:100720000101006F000195510101016F46EC00F0DD
:10073000010E006F016B46EC00F0010E006F016BC3
:1007400046EC00F00001BE510101006F0001BF51F5
:100750000101016F0001F551FF6FA8EC00F003519A
:100760000001FD6FFD51FE6116D0BF51EA6EBE5112
:10077000FE25E96EEF520FE0BF51EA6EBE51FE2535
:10078000E96EEF500101006F016B46EC00F00001D3
:10079000FE29FE6FE7D70101006B016B46EC00F00C
:1007A0000001FF6950EC00F01200AC847F0EAF6EC8
:1007B000AB6AAB8EAC8AAB889D9A1200070EBB6504
:1007C00001D01200BB5304E1BC69010EBD6F2FD0F4
:1007D000BB0505E17F0EBC6F010EBD6F28D0020E78
:1007E000BB6303D0BC69BD6B22D0030EBB6304D0D6
:1007F0007F0EBC6FBD6B1BD0040EBB6304D03F0EDD
:10080000BC6FBD6B14D0050EBB6304D01F0EBC6F54
:10081000BD6B0DD0060EBB6304D0140EBC6FBD6B58
:1008200006D0070EBB6303D00A0EBC6FBD6BD1ECC4
:1008300001F0BD0502E1AC9401D0AC84BC51AF6EB7
:10084000AB6AAB8EAC8AAB889D9A1200BE51EA6E41
:10085000BD51E96EBF51EF10C16FC151EF6EBC5178
:10086000EA6EBB51E96EBF51EF14C16FC051C26F48
:10087000D8B41200D890C133C207FAD700018E5104
:10088000BE6F8F51BF6F180E8E5DC06F8E591808E6
:100890008F5DC16F8C51C26F8D51C36F180E8C5D0F
:1008A000C46F8C5918088D5DC56F460EC66FC76F33
:1008B000C86FD4EC01F01200A4EC02F06EEC02F070
:1008C000BE6BBF6BC06BC16BF00EC26FC36BF00E23
:1008D000C46FC56BC4EC02F012000FEC02F0C05103
:1008E000A86F1200050E0001AA6101D053D1F2ECED
:1008F00001F0090EAA6101D005D1F2EC01F00C0E55
:10090000AA6101D0A5D0F2EC01F00F0EAA6101D0CE
:1009100051D0F2EC01F0110EAA611200200EC86F46
:10092000CF6FD26FDD6FE06F280EDE6F290EE66F9E
:10093000320EDF6F560EC06F610ECB6FE26F630E2B
:10094000CC6FE16F650EC16FC66FCD6FD16FDA6F7F
:10095000E46F690EC36FD76F6C0EC46FC56FCA6F3B
:10096000D06FD86FD96F6F0ED46F700EC96FD66FFE
:10097000720ECE6FD56FDC6F730EE36FE56F740E82
:10098000D36F750EC26FDB6F7A0EC76FE76B000E09
:10099000BF6FC00EBE6F280EF56FF66BF76BF86B6E
:1009A000F10EF96FFA6B020EFB6F010EFC6F3FEC5C
:1009B00003F01200200EC86FCF6FD26FDD6FE06FB3
:1009C000280EDE6F290EE66F2D0ED76F330EDF6F08
:1009D000560EC06F610ECB6FD96FE26F630ECC6F96
:1009E000E16F650EC16FC66FCD6FD16FE46F690E99
:1009F000C36FDB6F6C0EC46FC56FCA6FD06F6D0EA7
:100A0000D86F6E0EDC6F6F0ED46F700EC96F720EE2
:100A1000CE6FDA6F730ED36FD66FE36FE56F750E1F
:100A2000C26FD56F7A0EC76FE76B000EBF6FC00E37
:100A3000BE6F280EF56FF66BF76BF86BF10EF96F62
:100A4000FA6B020EFB6F010EFC6F3FEC03F012001D
:100A5000200EC86FCF6FD26FD96FDA6FDB6FDC6F8C
:100A6000DD6FDE6FDF6FE06FED6F280EEB6F290E2D
:100A7000F36F330EEC6F560EC06F610ECB6FEF6FDE
:100A8000630ECC6FD36FEE6F650EC16FC66FCD6F07
:100A9000D16FD86FE86FF16F690EC36FE56F6C0EA1
:100AA000C46FC56FCA6FD06FE66FE76F6E0ED56FFC
:100AB0006F0ED46FE26F700EC96FE46F720ECE6F5F
:100AC000D76FE36FEA6F730EF06FF26F740ED66F2D
:100AD000E16F750EC26FE96F7A0EC76FF46B000E8F
:100AE000BF6FC00EBE6F350EF56FF66BF76BF86B10
:100AF000F10EF96FFA6B020EFB6F010EFC6F3FEC0B
:100B000003F01200200EC86FCF6FD26FDD6F280E7A
:100B1000DB6F290EE36F340EDC6F560EC06F610E73
:100B2000CB6FDF6F630ECC6FD36FDE6F650EC16F5F
:100B3000C66FCD6FD16FD86FE16F690EC36FD66F7F
:100B40006C0EC46FC56FCA6FD06F6F0ED56F700E0D
:100B5000C96F720ECE6FD46FDA6F730ED76FE06FFE
:100B6000E26F750EC26FD96F7A0EC76FE46B000E1D
:100B7000BF6FC00EBE6F250EF56FF66BF76BF86B8F
:100B8000F10EF96FFA6B020EFB6F010EFC6F3FEC7A
:100B900003F01200200EC86FCF6FD26FD86FE06FD6
:100BA000280EDE6F290EE66F350EDF6F560EC06F12
:100BB000610ECB6FD96FE26F630ECC6FE16F650E84
:100BC000C16FC66FCD6FD16FD76FE46F690EC36F02
:100BD000DB6F6C0EC46FC56FCA6FD06F6E0EDD6FAA
:100BE0006F0ED46FDC6F700EC96FD36F720ECE6F45
:100BF000D56F730EE36FE56F740ED66F750EC26F0F
:100C0000760EDA6F7A0EC76FE76B000EBF6FC00EFD
:100C1000BE6F280EF56FF66BF76BF86BF10EF96F80
:100C2000FA6B020EFB6F010EFC6F3FEC03F012003B
:100C30000001BE6B1EEC03F0C151906FC251916F69
:100C4000010EBE6F1EEC03F0C151886FC251896F57
:100C50001200C06BC16B010EC26FC36B010EC46F7B
:100C6000C56B4C0E0101006F016B46EC00F00001FA
:100C7000B9510101006F016B46EC00F00001B85161
:100C80000101006F0001B9510101016F46EC00F054
:100C90000001BB510101006F016B46EC00F0000147
:100CA000BA510101006F0001BB510101016F46EC17
:100CB00000F00001BD510101006F016B46EC00F036
:100CC0000001BC510101006F0001BD510101016F24
:100CD00046EC00F00001BF510101006F016B46ECD2
:100CE00000F00001BE510101006F0001BF51010180
:100CF000016F46EC00F0000195510101006F016B9E
:100D000046EC00F0000194510101006F0001955183
:100D10000101016F46EC00F00001FF6950EC00F0AA
:100D200012000001BB6BBC6BBD6BBE6B420E0101C0
:100D3000006F016B46EC00F0000193510101006F60
:100D4000016B46EC00F0000192510101006F0001BF
:100D500093510101016F46EC00F00001FF6950EC76
:100D600000F0450E006F016B46EC00F00001FF69DA
:100D700050EC00F01200180E00018A6F8B6B180EF9
:100D8000846F856B8A51B86F8B51B96FBA6BBB6B2F
:100D90008A51BC6F8B51BD6FF00EBE6FBF6B29ECDB
:100DA00006F00001B86B180E8A278B51B823B85192
:100DB0008B6FB76BF00E8A6303D08B51D8B4B72B0F
:100DC000B753E0E0B86BB96B8451BA6F8551BB6F14
:100DD000F00EBC6FBD6B8451BE6F8551BF6F29ECA7
:100DE00006F00001B86B180E84278551B823B8515E
:100DF000856FB76BF00E8465856701D0B72BB7534D
:100E0000E1E1120000018E51BE6F8F51BF6F180ECD
:100E10008E5DC06F8E5918088F5DC16F8C51C26F87
:100E20008D51C36F180E8C5DC46F8C5918088D5D81
:100E3000C56FC669C76BC86BD4EC01F0200E00010A
:100E4000C06FC16FC26FC36FC46FC56FC66FC76F0E
:100E5000C86FC96FCA6FCB6FD26FD36FD46F540E88
:100E6000CC6F630ECF6F650ED16F680ED06F6F0EB3
:100E7000CD6F750ECE6FD56B000EBF6FC00EBE6FFF
:100E8000160EF56FF66BF76BF86BF10EF96FFA6BE8
:100E9000020EFB6F010EFC6F3FEC03F000EE05F05D
:100EA000E9500001A651E926B86BB82B050EE96E92
:100EB000A651E926B851EF6EA305A36F12000001F9
:100EC0008E51BE6F8F51BF6F180E8E5DC06F8E59E1
:100ED00018088F5DC16F8C51C26F8D51C36F180E92
:100EE0008C5DC46F8C5918088D5DC56FC669C76B62
:100EF000C86BD4EC01F0200E0001C06FC16FC26F4F
:100F0000C36FC46FC56FC66FC76FC86FC96FCA6F35
:100F1000CB6FD26FD36FD46F540ECC6F630ECF6F85
:100F2000650ED16F680ED06F6F0ECD6F750ECE6FE0
:100F3000D56B000EBF6FC00EBE6F160EF56FF66B51
:100F4000F76BF86BF10EF96FFA6B020EFB6F010E87
:100F5000FC6F3FEC03F00001AD05AD6F1200000126
:100F60008E51BE6F8F51BF6F180E8E5DC06F8E5940
:100F700018088F5DC16F8C51C26F8D51C36F180EF1
:100F80008C5DC46F8C5918088D5DC56FC669C76BC1
:100F9000C86BD4EC01F0200E0001C06FC16FC26FAE
:100FA000C36FC46FC56FC66FC76FC86FC96FCA6F95
:100FB000CB6FD26FD36FD46F540ECC6F630ECF6FE5
:100FC000650ED16F680ED06F6F0ECD6F750ECE6F40
:100FD000D56B000EBF6FC00EBE6F160EF56FF66BB1
:100FE000F76BF86BF10EF96FFA6B020EFB6F010EE7
:100FF000FC6F3FEC03F000EE05F0E9500001A65154
:10100000E926B86BB82B050EE96EA651E926B85152
:10101000EF6EA705A76F120000018E51BE6F8F51B2
:10102000BF6F180E8E5DC06F8E5918088F5DC16F2F
:101030008C51C26F8D51C36F180E8C5DC46F8C596B
:1010400018088D5DC56FC669C76BC86BD4EC01F01D
:10105000200E0001C06FC16FC26FC36FC46FC56F38
:10106000C66FC76FC86FC96FCA6FCB6FD26FD36FB0
:10107000D46F540ECC6F630ECF6F650ED16F680EB8
:10108000D06F6F0ECD6F750ECE6FD56B000EBF6F2C
:10109000C00EBE6F160EF56FF66BF76BF86BF10EA8
:1010A000F96FFA6B020EFB6F010EFC6F3FEC03F061
:1010B00000EE05F0E9500001A651E926B86BB82B07
:1010C000050EE96EA651E926B851EF6EAB05AB6F80
:1010D000120000018E51BE6F8F51BF6F180E8E5DD2
:1010E000C06F8E5918088F5DC16F8C51C26F8D51C2
:1010F000C36F180E8C5DC46F8C5918088D5DC56F59
:10110000C669C76BC86BD4EC01F0200E0001C06F3C
:10111000C16FC26FC36FC46FC56FC66FC76FC86F33
:10112000C96FCA6FCB6FD26FD36FD46F540ECC6FB1
:10113000630ECF6F650ED16F680ED06F6F0ECD6FDF
:10114000750ECE6FD56B000EBF6FC00EBE6F160E44
:10115000F56FF66BF76BF86BF10EF96FFA6B020E29
:10116000FB6F010EFC6F3FEC03F000EE05F0E95061
:101170000001A651E926B86BB82B050EE96EA65101
:10118000E926B851EF6EA405A46F1200010E00010C
:10119000A66F180E8C6F8D6B180E8E6F8F6B010EF5
:1011A0000001865D36E2876734D08D51895D02E1AA
:1011B0008C51885D23E28F51915D02E18E51905DEB
:1011C00009E3A629A66FBF6B180E8E278F51BF2388
:1011D000BF518F6F86538753862BD8B4872BBE6B36
:1011E0008F51915D04E18E51906101D001D0D8A062
:1011F000BE71BE53E0E03EEC04F0D1D70A0EA62546
:10120000A66FBE6B180E8C278D51BE23BE518D6FFD
:10121000C6D700EE05F0E950A651E926050EEF6E9F
:10122000AA29AA6F866B876BA86B8E6B8F6B8C6BF2
:101230008D6BA429A46F1200010E0001A66F180E79
:101240008C6F8D6B180E8E6F8F6B010E0001865D9B
:1012500036E2876734D08D51895D02E18C51885D1B
:1012600023E28F51915D02E18E51905D09E3A62941
:10127000A66FBF6B180E8E278F51BF23BF518F6F84
:1012800086538753862BD8B4872BBE6B8F51915DC5
:1012900004E18E51906101D001D0D8A0BE71BE533F
:1012A000E0E03EEC04F0D1D70A0EA625A66FBE6B97
:1012B000180E8C278D51BE23BE518D6FC6D700EE00
:1012C00005F0E950A651E926040EEF6EAA29AA6F8F
:1012D000866B876BA86B8E6B8F6B8C6B8D6BA72966
:1012E000A76F1200010E0001A66F180E8C6F8D6B98
:1012F000180E8E6F8F6B010E0001865D36E28767D8
:1013000034D08D51895D02E18C51885D23E28F518B
:10131000915D02E18E51905D09E3A629A66FBF6B36
:10132000180E8E278F51BF23BF518F6F865387535F
:10133000862BD8B4872BBE6B8F51915D04E18E5103
:10134000906101D001D0D8A0BE71BE53E0E03EEC68
:1013500004F0D1D70A0EA625A66FBE6B180E8C27F7
:101360008D51BE23BE518D6FC6D700EE05F0E950FA
:10137000A651E926010EEF6EAA29AA6F866B876B2C
:10138000A86B8E6B8F6B8C6B8D6BAB29AB6F120068
:1013900000018E51BE6F8F51BF6F180E8E5DC06FF2
:1013A0008E5918088F5DC16F8C51C26F8D51C36FFC
:1013B000180E8C5DC46F8C5918088D5DC56FC66B97
:1013C000C76BC86BD4EC01F0200E0001C06FC16F79
:1013D000C26FC36FC46FC56FC66FC76FC86FC96F69
:1013E000CA6FCB6FD26FD36FD46F4D0ECC6F610EBF
:1013F000CD6F650ED16F6E0ECE6F710ECF6F750E05
:10140000D06FD56B000EBF6FC00EBE6F160EF56F9E
:10141000F66BF76BF86BF10EF96FFA6B020EFB6F60
:10142000010EFC6F3FEC03F012001200010E0001F0
:10143000A66F180E8C6F8D6B180E8E6F8F6B010E52
:101440000001865D36E2876734D08D51895D02E107
:101450008C51885D23E28F51915D02E18E51905D48
:1014600009E3A629A66FBF6B180E8E278F51BF23E5
:10147000BF518F6F86538753862BD8B4872BBE6B93
:101480008F51915D04E18E51906101D001D0D8A0BF
:10149000BE71BE53E0E03EEC04F0D1D70A0EA625A3
:1014A000A66FBE6B180E8C278D51BE23BE518D6F5B
:1014B000C6D700EE05F0E950A651E926020EEF6E00
:1014C000AA29AA6F866B876BA86B8E6B8F6B8C6B50
:1014D0008D6BA329A36F1200010E0001A66F180ED9
:1014E0008C6F8D6B180E8E6F8F6B010E0001865DF9
:1014F00036E2876734D08D51895D02E18C51885D79
:1015000023E28F51915D02E18E51905D09E3A6299E
:10151000A66FBF6B180E8E278F51BF23BF518F6FE1
:1015200086538753862BD8B4872BBE6B8F51915D22
:1015300004E18E51906101D001D0D8A0BE71BE539C
:10154000E0E03EEC04F0D1D70A0EA625A66FBE6BF4
:10155000180E8C278D51BE23BE518D6FC6D700EE5D
:1015600005F0E950A651E926030EEF6EAA29AA6FED
:10157000866B876BA86B8E6B8F6B8C6B8D6BAD29BD
:10158000AD6F1200F2EC01F05CEC04F072EC04F0D0
:101590000001A85303E16DEC04F0FAD718EC06F053
:1015A000640EBE6F06EC00F012000001BB6B949A53
:1015B000BB5304E0200E8B10826E03D0DF0E8B1421
:1015C000826ED5EC03F0640EBB6F2EEC00F00F0EB4
:1015D000BC6F820EBB6F0F0EBE6F940EBD6F200EE0
:1015E000BF6F050EC06F26EC04F0C151BA6F030E39
:1015F000BB6F33EC00F0FF6B50EC00F00001FF6BB1
:1016000050EC00F00001FF6B50EC00F0550E006F45
:10161000016B46EC00F00001FF6950EC00F0510E48
:10162000006F016B46EC00F00C0E006F016B46EC96
:1016300000F00001FF6950EC00F0060E0001BB6FE6
:10164000DEEC03F00A0EFF6F50EC00F00A0E000112
:10165000FF6F50EC00F00001B76BB733B733B7330F
:101660001F0EB717B86BB833B8333F0EB817B96B46
:10167000B933B933B9331F0EB917B851BB6F956B76
:10168000BB379537BB379537BB379537BB37953762
:10169000BB379537E00EBB17BB51B911946FBB6BCD
:1016A000B751BC6FD890BC37D890BC37D890BC37F6
:1016B000BB519413BC519513B769B733B733B733E4
:1016C0001F0EB717B869B833B8333F0EB817B969EA
:1016D000B933B933B9331F0EB917B851BB6F936B18
:1016E000BB379337BB379337BB379337BB3793370A
:1016F000BB379337E00EBB17BB51B911926FBB6B71
:10170000B751BC6FD890BC37D890BC37D890BC3795
:10171000BB519213BC51931391EC06F00A0E0001D9
:10172000FF6F50EC00F00A0E0001FF6F50EC00F06C
:101730001200010E0001A66F180E8C6F8D6B180E33
:101740008E6F8F6B010E865D34E2876732D08D51CC
:10175000895D02E18C51885D21E28F51915D02E14A
:101760008E51905D09E3A629A66FB96B180E8E27DE
:101770008F51B923B9518F6F86538753862BD8B4B5
:10178000872BB86B8F51915D04E18E51906101D030
:1017900001D0D8A0B871B853E0E0D4D70A0EA6257E
:1017A000A66FB86B180E8C278D51B823B8518D6F6A
:1017B000C9D700EE05F0E950A651E926EF0439E15A
:1017C0000CEC08F0AB53D8A428D1F2EC01F0640E75
:1017D000BE6F06EC00F0200EC06FC16FC26FC36F0A
:1017E000C46FC56FC66FC76FC86FC96FCA6FCB6F45
:1017F000D16FD26FD36F430ECC6F650ED06F6C0E6E
:10180000CF6F6F0ECD6F750ECE6FD46B000EBF6FA6
:10181000C00EBE6F150EF56FF66BF76BF86BF10E21
:10182000F96FFA6B020EFB6F010EFC6F3FEC03F0D9
:10183000F4D000EE05F0E950A651E926020EEF6261
:1018400039D002EC07F0A353D8A4E7D0F2EC01F0B2
:10185000640EBE6F06EC00F0200EC06FC16FC26F49
:10186000C36FC46FC56FC66FC76FC86FC96FCA6FCC
:10187000CB6FD16FD26FD36F430ECC6F650ED06F2D
:101880006C0ECF6F6F0ECD6F750ECE6FD46B000EDA
:10189000BF6FC00EBE6F150EF56FF66BF76BF86B72
:1018A000F10EF96FFA6B020EFB6F010EFC6F3FEC4D
:1018B00003F0B3D000EE05F0E950A651E926030E7F
:1018C000EF6239D05FEC07F0AD53D8A4A6D0F2ECAC
:1018D00001F0640EBE6F06EC00F0200EC06FC16F09
:1018E000C26FC36FC46FC56FC66FC76FC86FC96F54
:1018F000CA6FCB6FD16FD26FD36F430ECC6F650EB3
:10190000D06F6C0ECF6F6F0ECD6F750ECE6FD46B28
:10191000000EBF6FC00EBE6F150EF56FF66BF76B46
:10192000F86BF10EF96FFA6B020EFB6F010EFC6F94
:101930003FEC03F072D000EE05F0E950A651E92625
:10194000040EEF6238D0AFEC07F0A75366E1F2EC7B
:1019500001F0640EBE6F06EC00F0200EC06FC16F88
:10196000C26FC36FC46FC56FC66FC76FC86FC96FD3
:10197000CA6FCB6FD16FD26FD36F430ECC6F650E32
:10198000D06F6C0ECF6F6F0ECD6F750ECE6FD46BA8
:10199000000EBF6FC00EBE6F150EF56FF66BF76BC6
:1019A000F86BF10EF96FFA6B020EFB6F010EFC6F14
:1019B0003FEC03F032D000EE05F0E950A651E926E5
:1019C000050EEF6228D069EC08F0A45326E1F2EC92
:1019D00001F0640EBE6F06EC00F0430EC06F6F0E98
:1019E000C16F750EC26F6C0EC36F650EC46FC56B91
:1019F000000EBF6FC00EBE6F060EF56FF66BF76B75
:101A0000F86BF10EF96FFA6B020EFB6F010EFC6FB3
:101A10003FEC03F002D0C8EC09F00001866B876B45
:101A20008E6B8F6B8C6B8D6BA351A415B76FAB5105
:101A3000B717AD51B717A751B717B753D8B415ECAF
:101A40000AF0640EBE6F06EC00F0120000EE05F026
:101A5000E9500001A651E926000EEF6EA629A66FF7
:101A6000B76B650EA66301D0B72BB753EFE000EE5E
:101A700005F0E950A651B76FB751E926EF50B86F9E
:101A8000050EE96EAC51E926B851EF6ED5EC0AF0BF
:101A900091EC06F0BBEC06F0BE6BBF6BC06BC16B8C
:101AA000F00EC26FC36BF00EC46FC56BC4EC02F0D6
:101AB00012000001B86B050EAB6301D0B82BB867FC
:101AC00008D0050EAB61F5D7C2EC0AF072EC09F054
:101AD000F0D7B96B040EA36301D0B92BB96708D056
:101AE000050EAB63F6D7C2EC0AF016EC0AF0F1D79C
:101AF000BA6B030EAD6301D0BA2BBA6705D0C2EC46
:101B00000AF06CEC0AF0F4D7BB6B030EA76301D0AC
:101B1000BB2BBB6705D0C2EC0AF01CEC09F0F4D774
:101B2000BC6B020EA46301D0BC2BBC6705D0C2EC19
:101B30000AF0C6EC08F0F4D7BD6BBD2BA867BD91C9
:101B4000BD53B7E01200F2EC01F05CEC04F0A853D6
:101B500003E16DEC04F0FBD718EC06F0640EBE6FE9
:101B600006EC00F01200FF0EB765B86701D00CD08C
:101B7000BE6906EC00F0FF0EB75DB96FB759FF08FC
:101B8000B85FB951B76FEFD7000EB765B86701D02E
:101B90001200B751BE6F06EC00F012000F0EC16EBE
:101BA00026EC0DF0F2EC01F05CEC04F072EC04F0C9
:101BB0000001A85303E16DEC04F0FAD718EC06F02D
:101BC00059EC0DF0640EBE6F06EC00F0B76B110E11
:101BD000AA61B72BB753E6E0F2EC01F0200EC06F1C
:101BE000C16FC26FC36FC66FCE6FD16FD86FDA6F20
:101BF000320ED96F450EC46F610EC76F640ECF6F82
:101C0000650ECA6FCD6FD56F6A0ED26F6E0EC56F3F
:101C1000CB6F6F0ED36F720ED76F740EC86FC96F14
:101C2000CC6F750ED06FD46FD66FDB6B000EBF6FAD
:101C3000C00EBE6F1C0EF56FF66BF76BF86BF10EF6
:101C4000F96FFA6B020EFB6F010EFC6F3FEC03F0B5
:101C5000020E0001BB6F33EC00F0A3EC0DF099EC29
:101C60000BF0A86BF40EB76F010EB86FB3EC0DF06C
:101C7000F4D7D50E6A6EC40E6B6EBB0E6C6EDC0EA6
:101C80006D6E6E6A6F6A706A716A726A736A746A7C
:101C9000756A766A776A786A796A00019D6B9E6BCD
:101CA0007E6A7F6A9F6BA06BA16BA26B7A6A7B6A6C
:101CB0007C6A7D6A9B6B9C6B9A6BA36BA46B180E02
:101CC000846F856BA56B866B876B886B896B010E48
:101CD000A66F180E8A6F8B6B180E8C6F8D6B180E9B
:101CE0008E6F8F6BA76B906B916BA86BA96BAA6BB8
:101CF000AB6BAC6BAD6B000EAE6F010EAF6F020E37
:101D0000B06F030EB16F040EB26F050EB36F060E07
:101D1000B46F070EB56F806B816B826B836BB66B94
:101D2000CEEF0DF0EACF01F0E9CF02F0F4CF03F0EF
:101D3000F3CF04F004C0F3FF03C0F4FF02C0E9FFD7
:061D400001C0EAFF1100E2
:020000040030CA
:0E000000FF32F9FEFF79BAFFFFFFFFFFFFFF9F
:00000001FF
