:020000040000FA
:0400000066EF06F0B1
:080008008EEF06F0000000007D
:10001000AD2FFCD712006F52000001E11200F50E67
:1000200000000000000000000000000000000000D0
:1000300000000000000000000000000000000000C0
:10004000FF0FD8A4EDD70000000000000000000062
:1000500000000000000000000000000000000000A0
:100060006F2EDDD71200FA0E6F6E0BEC00F0FA0E59
:100070006F6E0BEC00F0FA0E6F6E0BEC00F0FA0EE8
:100080006F6E0BEC00F05A2EEED71200D569D66BCE
:10009000D76BD86BD96BDC6BD42902E1010ED86F1A
:1000A000D95324E1D85318E1D45303E1010ED96F99
:1000B00013D0DA6BDB6B310EDA5D05E2DB6703D060
:1000C000DA4BDB2BF8D7D629D66F640ED66304D073
:1000D000D405D46F0400D66B200E9E14DD6FDD5165
:1000E000D76FD753DDE0020ED96FDAD7020ED9638E
:1000F00018D0040EAB14DD6FDD51D76FD75303E07A
:10010000AE50DC6F0ED0020EAB14DD6FDD51D76F39
:10011000D75303E0AB98AB8804D0D56BAE50D51164
:10012000D56FD551DD6FDE6B1200FF0EAB65AC678E
:1001300001D00CD0AD6906EC00F0FF0EAB5DAD6FE9
:10014000AB59FF08AC5FAD51AB6FEFD7000EAB659D
:10015000AC6701D01200AB51AD6F06EC00F012009D
:10016000100E9E14AA6FAA53FBE0A851AD6E1200A8
:10017000986B9751986109D09651EA6E95519825E0
:10018000E96EEF5202E0982BF4D79851996F120064
:100190000001A86BA96B5950A96F586A596A576A30
:1001A000585213E1FF0EA86110D0A829A86F59502A
:1001B000A963596203D0A86B5950A96FF40EAB6FB5
:1001C000010EAC6F95EC00F0EBD7A82904E1586A5A
:1001D000596AAA6B02D0010EAA6FAA51AB6F120026
:1001E000A16B9E517C628CD09F517D6289D0A26BA5
:1001F0007B50A26109D07A50EA6E7950A225E96E4F
:10020000EF5202E0A22BF4D7A051A26158D0A16B0B
:100210009D51A16109D07D50EA6E7C50A125E96E07
:10022000EF5202E0A12BF4D7A251A05DA36FA15120
:10023000A36105D0A251A05DA46FA451A16FA151EB
:10024000A2259D6FA151A26F000EA26514D0A20736
:100250009D077D50EA6E7C50E96EA251A46FA451B7
:10026000E926EF50A56F9F51EA6E9E519D25E96EDC
:10027000A551EF6EE9D7A26B7B50A2611DD0A051B2
:10028000A2611AD07A50EA6E7950A225E96EEF5237
:1002900013E07A50EA6E7950E96EA251A46FA4512E
:1002A000E926EF50A56F9F51EA6E9E51A225E96E97
:1002B000A551EF6EA22BE0D7A251A12775D0A16B5B
:1002C0007B50A16171D0A051A1616ED07A50EA6ECD
:1002D0007950A125E96EEF5267E07A50EA6E7950C5
:1002E000E96EA151A36FA351E926EF50A46F9F516E
:1002F000EA6E9E51A125E96EA451EF6EA12BE0D7C5
:10030000A16B7B50A1611DD0A051A1611AD07A5080
:10031000EA6E7950A125E96EEF5213E07A50EA6E49
:100320007950E96EA151A36FA351E926EF50A46F54
:100330009F51EA6E9E51A125E96EA451EF6EA12B4B
:10034000E0D7A051A16130D0A46BA1519E25A36F2D
:100350009F51A423A351796EA4517A6EA151A05D3F
:100360007B6EA26B9D51A2611DD07B50A2611AD001
:100370007D50EA6E7C50A225E96EEF5213E07D506D
:10038000EA6E7C50E96EA251A36FA351E926EF50AB
:10039000A46F7A50EA6E7950A225E96EA451EF6EEF
:1003A000A22BE0D7A251A127A051A16112009F5119
:1003B000EA6E9E51A125E96E000EEF6E12007E6A74
:1003C000C8EC00F0AB51946F9453FAE17950956FFB
:1003D0007A50966F7B50976FB8EC00F099517F6E12
:1003E0007F5217E07F507E600DD07A50EA6E7950D0
:1003F0007E24E96EEF50A86FA96BB0EC00F07E2868
:100400007E6EF0D77D5205E00D0EA86FA96BB0ECA3
:1004100000F0C8EC00F0C8EC00F0AB51946F9453BE
:1004200002E1946901D0946B9451956F1200AC84F1
:100430007F0EAF6EAB6AAB8EAC8AAB889D8AF28CB6
:10044000F28E12007F6A7B507F601ED07E507F60EC
:100450001BD06050EA6E5F507F24E96EEF5214E0CB
:100460006050EA6E5F50E96E7F500001D16FD1514C
:10047000E926EF50D26F7D50EA6E7C507F24E96E02
:10048000D251EF6E7F2ADFD77E507F6012007D5001
:10049000EA6E7C507F24E96E000EEF6E120062520D
:1004A0001AE0620425E0020E626201D02ED0030E33
:1004B000626201D037D0040E626201D040D0050ED6
:1004C000626201D049D0060E626201D052D0070E9E
:1004D000626212005BD0010E636E9390635204E07F
:1004E000010E8A10816E1200FE0E8A14816E1200B7
:1004F000010E636E9392635204E0020E8A10816EC5
:100500001200FD0E8A14816E1200010E636E939428
:10051000635204E0040E8A10816E1200FB0E8A14EE
:10052000816E1200010E636E9396635204E0080E12
:100530008A10816E1200F70E8A14816E1200010E6D
:10054000636E9398635204E0100E8A10816E12005D
:10055000EF0E8A14816E1200010E636E939A63523D
:1005600004E0200E8A10816E1200DF0E8A14816E64
:100570001200010E636E939C635204E0400E8A10D9
:10058000816E1200BF0E8A14816E1200010E636E1E
:10059000939E635204E0800E8A10816E12007F0EDB
:1005A0008A14816E120062521AE0620424E0020E84
:1005B000626201D02CD0030E626201D034D0040EEE
:1005C000626201D03CD0050E626201D044D0060EBA
:1005D000626201D04CD0070E6262120054D0636A8E
:1005E0009390635204E0010E8A10816E1200FE0E99
:1005F0008A14816E1200636A9392635204E0020EC1
:100600008A10816E1200FD0E8A14816E1200636AD8
:100610009394635204E0040E8A10816E1200FB0E64
:100620008A14816E1200636A9396635204E0080E86
:100630008A10816E1200F70E8A14816E1200636AAE
:100640009398635204E0100E8A10816E1200EF0E30
:100650008A14816E1200636A939A635204E0200E3A
:100660008A10816E1200DF0E8A14816E1200636A96
:10067000939C635204E0400E8A10816E1200BF0EFC
:100680008A14816E1200636A939E635204E0800EA6
:100690008A10816E12007F0E8A14816E1200410E44
:1006A000706E540E716E260E726E460E736E2A0EAA
:1006B000746E756A000E7A6E700E796E060E7B6E21
:1006C0007C6A010E7D6EDFEC01F095516F6E6F500C
:1006D000706E12006F5241E0705220E0410E000136
:1006E000806F540E816F530E826F350E836F310E03
:1006F000846F320E856F3D0E866F340E876F886B68
:10070000000E7A6E800E796E090E7B6E7C6A010E89
:100710007D6EDFEC01F09551716E5FD0310E0001FE
:10072000846F320E856F876F350E836F3D0E866F37
:10073000410E806F530E826F540E816F886B000ED6
:100740007A6E800E796E090E7B6E7C6A010E7D6E6C
:10075000DFEC01F09551716E40D070521FE0310E08
:100760000001846F320E856F876F350E836F3D0EEB
:10077000866F410E806F530E826F540E816F886BAF
:10078000000E7A6E800E796E090E7B6E7C6A030E07
:100790007D6EDFEC01F09551716E1FD0410E0001AE
:1007A000806F540E816F530E826F350E836F310E42
:1007B000846F320E856F3D0E866F300E876F886BAB
:1007C000000E7A6E800E796E090E7B6E7C6A010EC9
:1007D0007D6EDFEC01F09551716E7150726E1200FA
:1007E000410E706E540E716E260E726E570E736E41
:1007F000746A000E7A6E700E796E050E7B6E7C6ADE
:10080000010E7D6EDFEC01F095516F6E6F5214E1B9
:10081000410E706E540E716E5A0E726E736A000E37
:100820007A6E700E796E040E7B6E7C6A010E7D6EA0
:10083000DFEC01F095516F6E6F50706E1200220E5A
:1008400000019B6F2B0E966F3D0E9A6F410E946FB9
:10085000420E976F4B0E996F540E956F986F9C6B6D
:10086000000E7A6E940E796E090E7B6E6F507C6E60
:1008700070507D6E76509D6F000E9F6F800E9E6F44
:10088000140EA06FF0EC00F0000E7A6E800E796E00
:10089000140E7B6E220E7E6E7F6A000E7D6E7E0EC3
:1008A0007C6E020E9D6F000E9F6F800E9E6F140E69
:1008B000A06FF0EC00F0000E7A6E800E796E140ED0
:1008C0007B6E7C6A010E7D6EDFEC01F09551786ED7
:1008D0007850796E12005B6A5C6A5D6A5E6A5F6A74
:1008E0005B6A080E5B601200010E606E616A5B500D
:1008F000FF0B05E0D89060366136FF0FF9D76050E6
:100900005A1405E05B50626E4FEC02F004D05B506D
:10091000626ED3EC02F05B285B6EE3D75B6A586AC9
:10092000595057600AD000EE05F0E9505750E926BB
:10093000EF505C6E5728576E12D0320E59600CD0B3
:100940005A5203E05A505B6007D0010E6F6E0BECF9
:1009500000F05B285B6EE4D7576A596A5C685C50AC
:100960005D6E12005B6A5C685D6A010E5A6001D0C0
:1009700003D0020E5A6402D05E68E3D05A040CE041
:10098000020E5A6201D04FD0030E5A6201D082D0BB
:10099000040E5A629FD08ED00A0E0001AF6FB46F62
:1009A000BE6FC86F0D0EAE6FB36FBD6FC76F300EE9
:1009B000AB6FCD6F310EAD6FB96FC66F320EBA6FC0
:1009C000CE6F330EC36F350EB86FC26FCC6F360E5D
:1009D000C46F370EBC6F3D0EAC6FBB6FC56FCF6F72
:1009E000410EA86FB06FB56FBF6FC96F520EB26F77
:1009F000530EAA6FB76FC16FCB6F540EA96FB16F53
:100A0000B66FC06FCA6FD06B000E606EA80E5F6EBF
:100A1000290E7B6E000E7D6E800E7C6E280E7E6E23
:100A200022EC02F059D00A0E6A6E6F6E756E0D0ED2
:100A3000696E6E6E746E260E726E300E796E310EA9
:100A4000666E320E686E330E656E350E646E3D0E48
:100A5000676E410E616E6B6E6D6E706E766E530ECC
:100A6000636E540E626E6C6E716E776E570E736E9F
:100A70005A0E786E7A6A000E606E610E5F6E1A0E04
:100A80007B6E000E7D6E800E7C6E280E7E6E22ECDC
:100A900002F022D0616A000E606E610E5F6E010E80
:100AA0007B6E000E7D6E800E7C6E280E7E6E22ECBC
:100AB00002F012D0616A000E606E610E5F6E010E70
:100AC0007B6E000E7D6E800E7C6E280E7E6E22EC9C
:100AD00002F002D05E6835D0000E5C6423D00001C5
:100AE00000EE80F0E9505B50E926EF505C6E000E9E
:100AF0005C6415D00A0E5C6201D011D05C50A86F06
:100B0000A96BB0EC00F05D285D6E0D0E5C6207D045
:100B1000C8EC00F0C8EC00F0AB515E6E5D6A5B287B
:100B20005B6EDAD7000E5D640CD00D0E0001A86F6D
:100B3000A96BB0EC00F0C8EC00F0C8EC00F0AB51D1
:100B40005E6E5E505F6E12006F6A93926F5204E0A9
:100B5000020E8A10816E03D0FD0E8A14816E640E1F
:100B60006F6E0BEC00F0010E6F6E93926F5204E00B
:100B7000020E8A10816E03D0FD0E8A14816E6E6A99
:100B800017EC02F00A0E6F6E0BEC00F0C8EC00F0F0
:100B90004FEC03F0220E876F2B0E826F3D0E866F97
:100BA000410E806F420E836F4E0E856F540E816F23
:100BB000846F886B000E7A6E800E796E090E7B6EE4
:100BC0004D0E896F410E8A6F520E8B6F430E8C6FE4
:100BD000480E8D6F450E8E6F5F0E8F6F500E906FAB
:100BE000540E916F4E0E926F936B000E7D6E890EB8
:100BF0007C6E0B0E9D6F000E9F6F5A0E9E6F140E33
:100C0000A06FF0EC00F0000E7A6E5A0E796E140EA2
:100C10007B6E220E706E716A000E7D6E700E7C6EA1
:100C2000020E9D6F000E9F6F5A0E9E6F140EA06FE6
:100C3000F0EC00F0000E7A6E5A0E796E140E7B6E98
:100C40007C6A010E7D6EDFEC01F0310E716E330EA9
:100C5000726E370E736E390E746E756A000E706E9A
:100C6000710E6F6E050E766E776A1FEC04F0010E42
:100C70006F6E706E6AEC03F0F0EC03F070506E6E05
:100C80006E506F6E1200A4EC05F0010E5A6E33EC3C
:100C900000F0010E5A6EB2EC04F0020E5A6EB2EC85
:100CA00004F0010E5A6E33EC00F0140E5A6E8EEC06
:100CB00004F05D50566E56505A6E6BEC04F0F5D74A
:100CC0000F0EC16E990E43EF06F0FFD7D50E376EAB
:100CD000C40E386EBB0E396EDC0E3A6E3B6A3C6A4F
:100CE0003D6A3E6A3F6A406A416A426A436A446AB0
:100CF000456A466A506A516A4B6A4C6A526A536A3C
:100D0000546A556A476A486A496A4A6A4E6A4F6A2B
:100D10004D6A576A586A596A60EF06F0EACF01F0E7
:100D2000E9CF02F0F4CF03F0F3CF04F0200E9E14CD
:100D30000001D56F200E9D14D46FD36BD453D8A46B
:100D4000D553D8A4D32BD35322E0010ED46F46EC55
:100D500000F0DD51D36F585219E1320E596016D0B0
:100D60000A0ED3630AD0010E586E00EE05F0E9506A
:100D70005950E926000EEF6E09D000EE05F0E9505B
:100D80005950E926D351EF6E5928596E9E9A04C0E6
:100D9000F3FF03C0F4FF02C0E9FF01C0EAFF110046
:020000040030CA
:0E000000FF32F9FEFF78BAFFFFFFFFFFFFFFA0
:00000001FF
